{
  "contractName": "ClockAuction",
  "abi": [
    {
      "constant": false,
      "inputs": [],
      "name": "unpause",
      "outputs": [
        {
          "name": "",
          "type": "bool"
        }
      ],
      "payable": false,
      "stateMutability": "nonpayable",
      "type": "function"
    },
    {
      "constant": true,
      "inputs": [],
      "name": "paused",
      "outputs": [
        {
          "name": "",
          "type": "bool"
        }
      ],
      "payable": false,
      "stateMutability": "view",
      "type": "function"
    },
    {
      "constant": true,
      "inputs": [],
      "name": "ownerCut",
      "outputs": [
        {
          "name": "",
          "type": "uint256"
        }
      ],
      "payable": false,
      "stateMutability": "view",
      "type": "function"
    },
    {
      "constant": false,
      "inputs": [],
      "name": "pause",
      "outputs": [
        {
          "name": "",
          "type": "bool"
        }
      ],
      "payable": false,
      "stateMutability": "nonpayable",
      "type": "function"
    },
    {
      "constant": true,
      "inputs": [],
      "name": "owner",
      "outputs": [
        {
          "name": "",
          "type": "address"
        }
      ],
      "payable": false,
      "stateMutability": "view",
      "type": "function"
    },
    {
      "constant": true,
      "inputs": [],
      "name": "nonFungibleContract",
      "outputs": [
        {
          "name": "",
          "type": "address"
        }
      ],
      "payable": false,
      "stateMutability": "view",
      "type": "function"
    },
    {
      "constant": false,
      "inputs": [
        {
          "name": "newOwner",
          "type": "address"
        }
      ],
      "name": "transferOwnership",
      "outputs": [],
      "payable": false,
      "stateMutability": "nonpayable",
      "type": "function"
    },
    {
      "inputs": [
        {
          "name": "_nftAddress",
          "type": "address"
        },
        {
          "name": "_cut",
          "type": "uint256"
        }
      ],
      "payable": false,
      "stateMutability": "nonpayable",
      "type": "constructor"
    },
    {
      "anonymous": false,
      "inputs": [
        {
          "indexed": false,
          "name": "tokenId",
          "type": "uint256"
        },
        {
          "indexed": false,
          "name": "startingPrice",
          "type": "uint256"
        },
        {
          "indexed": false,
          "name": "endingPrice",
          "type": "uint256"
        },
        {
          "indexed": false,
          "name": "duration",
          "type": "uint256"
        }
      ],
      "name": "AuctionCreated",
      "type": "event"
    },
    {
      "anonymous": false,
      "inputs": [
        {
          "indexed": false,
          "name": "tokenId",
          "type": "uint256"
        },
        {
          "indexed": false,
          "name": "totalPrice",
          "type": "uint256"
        },
        {
          "indexed": false,
          "name": "winner",
          "type": "address"
        }
      ],
      "name": "AuctionSuccessful",
      "type": "event"
    },
    {
      "anonymous": false,
      "inputs": [
        {
          "indexed": false,
          "name": "tokenId",
          "type": "uint256"
        }
      ],
      "name": "AuctionCancelled",
      "type": "event"
    },
    {
      "anonymous": false,
      "inputs": [],
      "name": "Pause",
      "type": "event"
    },
    {
      "anonymous": false,
      "inputs": [],
      "name": "Unpause",
      "type": "event"
    },
    {
      "constant": false,
      "inputs": [],
      "name": "withdrawBalance",
      "outputs": [],
      "payable": false,
      "stateMutability": "nonpayable",
      "type": "function"
    },
    {
      "constant": false,
      "inputs": [
        {
          "name": "_tokenId",
          "type": "uint256"
        },
        {
          "name": "_startingPrice",
          "type": "uint256"
        },
        {
          "name": "_endingPrice",
          "type": "uint256"
        },
        {
          "name": "_duration",
          "type": "uint256"
        },
        {
          "name": "_seller",
          "type": "address"
        }
      ],
      "name": "createAuction",
      "outputs": [],
      "payable": false,
      "stateMutability": "nonpayable",
      "type": "function"
    },
    {
      "constant": false,
      "inputs": [
        {
          "name": "_tokenId",
          "type": "uint256"
        }
      ],
      "name": "bid",
      "outputs": [],
      "payable": true,
      "stateMutability": "payable",
      "type": "function"
    },
    {
      "constant": false,
      "inputs": [
        {
          "name": "_tokenId",
          "type": "uint256"
        }
      ],
      "name": "cancelAuction",
      "outputs": [],
      "payable": false,
      "stateMutability": "nonpayable",
      "type": "function"
    },
    {
      "constant": false,
      "inputs": [
        {
          "name": "_tokenId",
          "type": "uint256"
        }
      ],
      "name": "cancelAuctionWhenPaused",
      "outputs": [],
      "payable": false,
      "stateMutability": "nonpayable",
      "type": "function"
    },
    {
      "constant": true,
      "inputs": [
        {
          "name": "_tokenId",
          "type": "uint256"
        }
      ],
      "name": "getAuction",
      "outputs": [
        {
          "name": "seller",
          "type": "address"
        },
        {
          "name": "startingPrice",
          "type": "uint256"
        },
        {
          "name": "endingPrice",
          "type": "uint256"
        },
        {
          "name": "duration",
          "type": "uint256"
        },
        {
          "name": "startedAt",
          "type": "uint256"
        }
      ],
      "payable": false,
      "stateMutability": "view",
      "type": "function"
    },
    {
      "constant": true,
      "inputs": [
        {
          "name": "_tokenId",
          "type": "uint256"
        }
      ],
      "name": "getCurrentPrice",
      "outputs": [
        {
          "name": "",
          "type": "uint256"
        }
      ],
      "payable": false,
      "stateMutability": "view",
      "type": "function"
    }
  ],
  "bytecode": "0x608060405260008060146101000a81548160ff02191690831515021790555034801561002a57600080fd5b5060405160408061181483398101806040528101908080519060200190929190805190602001909291905050506000336000806101000a81548173ffffffffffffffffffffffffffffffffffffffff021916908373ffffffffffffffffffffffffffffffffffffffff16021790555061271082111515156100aa57600080fd5b816002819055508290508073ffffffffffffffffffffffffffffffffffffffff166301ffc9a7639a20483d7c0100000000000000000000000000000000000000000000000000000000026040518263ffffffff167c010000000000000000000000000000000000000000000000000000000002815260040180827bffffffffffffffffffffffffffffffffffffffffffffffffffffffff19167bffffffffffffffffffffffffffffffffffffffffffffffffffffffff19168152602001915050602060405180830381600087803b15801561018457600080fd5b505af1158015610198573d6000803e3d6000fd5b505050506040513d60208110156101ae57600080fd5b810190808051906020019092919050505015156101ca57600080fd5b80600160006101000a81548173ffffffffffffffffffffffffffffffffffffffff021916908373ffffffffffffffffffffffffffffffffffffffff1602179055505050506115f78061021d6000396000f3006080604052600436106100d0576000357c0100000000000000000000000000000000000000000000000000000000900463ffffffff16806327ebe40a146100d55780633f4ba83a14610140578063454a2ab31461016f5780635c975abb1461018f5780635fd8c710146101be57806378bd7935146101d557806383b5ff8b1461025e5780638456cb5914610289578063878eb368146102b85780638da5cb5b146102e557806396b5a7551461033c578063c55d0f5614610369578063dd1b7a0f146103aa578063f2fde38b14610401575b600080fd5b3480156100e157600080fd5b5061013e60048036038101908080359060200190929190803590602001909291908035906020019092919080359060200190929190803573ffffffffffffffffffffffffffffffffffffffff169060200190929190505050610444565b005b34801561014c57600080fd5b50610155610569565b604051808215151515815260200191505060405180910390f35b61018d6004803603810190808035906020019092919050505061062e565b005b34801561019b57600080fd5b506101a4610662565b604051808215151515815260200191505060405180910390f35b3480156101ca57600080fd5b506101d3610675565b005b3480156101e157600080fd5b5061020060048036038101908080359060200190929190505050610780565b604051808673ffffffffffffffffffffffffffffffffffffffff1673ffffffffffffffffffffffffffffffffffffffff1681526020018581526020018481526020018381526020018281526020019550505050505060405180910390f35b34801561026a57600080fd5b506102736108a3565b6040518082815260200191505060405180910390f35b34801561029557600080fd5b5061029e6108a9565b604051808215151515815260200191505060405180910390f35b3480156102c457600080fd5b506102e360048036038101908080359060200190929190505050610970565b005b3480156102f157600080fd5b506102fa610a42565b604051808273ffffffffffffffffffffffffffffffffffffffff1673ffffffffffffffffffffffffffffffffffffffff16815260200191505060405180910390f35b34801561034857600080fd5b5061036760048036038101908080359060200190929190505050610a67565b005b34801561037557600080fd5b5061039460048036038101908080359060200190929190505050610b03565b6040518082815260200191505060405180910390f35b3480156103b657600080fd5b506103bf610b40565b604051808273ffffffffffffffffffffffffffffffffffffffff1673ffffffffffffffffffffffffffffffffffffffff16815260200191505060405180910390f35b34801561040d57600080fd5b50610442600480360381019080803573ffffffffffffffffffffffffffffffffffffffff169060200190929190505050610b66565b005b61044c61154d565b600060149054906101000a900460ff1615151561046857600080fd5b846fffffffffffffffffffffffffffffffff168514151561048857600080fd5b836fffffffffffffffffffffffffffffffff16841415156104a857600080fd5b8267ffffffffffffffff16831415156104c057600080fd5b6104ca3387610c3b565b15156104d557600080fd5b6104df3387610d3f565b60a0604051908101604052808373ffffffffffffffffffffffffffffffffffffffff168152602001866fffffffffffffffffffffffffffffffff168152602001856fffffffffffffffffffffffffffffffff1681526020018467ffffffffffffffff1681526020014267ffffffffffffffff1681525090506105618682610e54565b505050505050565b60008060009054906101000a900473ffffffffffffffffffffffffffffffffffffffff1673ffffffffffffffffffffffffffffffffffffffff163373ffffffffffffffffffffffffffffffffffffffff161415156105c657600080fd5b600060149054906101000a900460ff1615156105e157600080fd5b60008060146101000a81548160ff0219169083151502179055507f7805862f689e2f13df9f062ff482ad3ad112aca9e0847911ed832e158c525b3360405160405180910390a16001905090565b600060149054906101000a900460ff1615151561064a57600080fd5b6106548134611039565b5061065f33826111e6565b50565b600060149054906101000a900460ff1681565b600080600160009054906101000a900473ffffffffffffffffffffffffffffffffffffffff1691506000809054906101000a900473ffffffffffffffffffffffffffffffffffffffff1673ffffffffffffffffffffffffffffffffffffffff163373ffffffffffffffffffffffffffffffffffffffff16148061072357508173ffffffffffffffffffffffffffffffffffffffff163373ffffffffffffffffffffffffffffffffffffffff16145b151561072e57600080fd5b8173ffffffffffffffffffffffffffffffffffffffff166108fc3073ffffffffffffffffffffffffffffffffffffffff16319081150290604051600060405180830381858888f1935050505090505050565b6000806000806000806003600088815260200190815260200160002090506107a7816112c7565b15156107b257600080fd5b8060000160009054906101000a900473ffffffffffffffffffffffffffffffffffffffff168160010160009054906101000a90046fffffffffffffffffffffffffffffffff168260010160109054906101000a90046fffffffffffffffffffffffffffffffff168360020160009054906101000a900467ffffffffffffffff168460020160089054906101000a900467ffffffffffffffff16836fffffffffffffffffffffffffffffffff169350826fffffffffffffffffffffffffffffffff1692508167ffffffffffffffff1691508067ffffffffffffffff169050955095509550955095505091939590929450565b60025481565b60008060009054906101000a900473ffffffffffffffffffffffffffffffffffffffff1673ffffffffffffffffffffffffffffffffffffffff163373ffffffffffffffffffffffffffffffffffffffff1614151561090657600080fd5b600060149054906101000a900460ff1615151561092257600080fd5b6001600060146101000a81548160ff0219169083151502179055507f6985a02210a168e66602d3235cb6db0e70f92b3ba4d376a33c0f3d9434bff62560405160405180910390a16001905090565b60008060149054906101000a900460ff16151561098c57600080fd5b6000809054906101000a900473ffffffffffffffffffffffffffffffffffffffff1673ffffffffffffffffffffffffffffffffffffffff163373ffffffffffffffffffffffffffffffffffffffff161415156109e757600080fd5b600360008381526020019081526020016000209050610a05816112c7565b1515610a1057600080fd5b610a3e828260000160009054906101000a900473ffffffffffffffffffffffffffffffffffffffff166112f5565b5050565b6000809054906101000a900473ffffffffffffffffffffffffffffffffffffffff1681565b600080600360008481526020019081526020016000209150610a88826112c7565b1515610a9357600080fd5b8160000160009054906101000a900473ffffffffffffffffffffffffffffffffffffffff1690508073ffffffffffffffffffffffffffffffffffffffff163373ffffffffffffffffffffffffffffffffffffffff16141515610af457600080fd5b610afe83826112f5565b505050565b600080600360008481526020019081526020016000209050610b24816112c7565b1515610b2f57600080fd5b610b3881611343565b915050919050565b600160009054906101000a900473ffffffffffffffffffffffffffffffffffffffff1681565b6000809054906101000a900473ffffffffffffffffffffffffffffffffffffffff1673ffffffffffffffffffffffffffffffffffffffff163373ffffffffffffffffffffffffffffffffffffffff16141515610bc157600080fd5b600073ffffffffffffffffffffffffffffffffffffffff168173ffffffffffffffffffffffffffffffffffffffff16141515610c3857806000806101000a81548173ffffffffffffffffffffffffffffffffffffffff021916908373ffffffffffffffffffffffffffffffffffffffff1602179055505b50565b60008273ffffffffffffffffffffffffffffffffffffffff16600160009054906101000a900473ffffffffffffffffffffffffffffffffffffffff1673ffffffffffffffffffffffffffffffffffffffff16636352211e846040518263ffffffff167c010000000000000000000000000000000000000000000000000000000002815260040180828152602001915050602060405180830381600087803b158015610ce557600080fd5b505af1158015610cf9573d6000803e3d6000fd5b505050506040513d6020811015610d0f57600080fd5b810190808051906020019092919050505073ffffffffffffffffffffffffffffffffffffffff1614905092915050565b600160009054906101000a900473ffffffffffffffffffffffffffffffffffffffff1673ffffffffffffffffffffffffffffffffffffffff166323b872dd8330846040518463ffffffff167c0100000000000000000000000000000000000000000000000000000000028152600401808473ffffffffffffffffffffffffffffffffffffffff1673ffffffffffffffffffffffffffffffffffffffff1681526020018373ffffffffffffffffffffffffffffffffffffffff1673ffffffffffffffffffffffffffffffffffffffff1681526020018281526020019350505050600060405180830381600087803b158015610e3857600080fd5b505af1158015610e4c573d6000803e3d6000fd5b505050505050565b603c816060015167ffffffffffffffff1610151515610e7257600080fd5b806003600084815260200190815260200160002060008201518160000160006101000a81548173ffffffffffffffffffffffffffffffffffffffff021916908373ffffffffffffffffffffffffffffffffffffffff16021790555060208201518160010160006101000a8154816fffffffffffffffffffffffffffffffff02191690836fffffffffffffffffffffffffffffffff16021790555060408201518160010160106101000a8154816fffffffffffffffffffffffffffffffff02191690836fffffffffffffffffffffffffffffffff16021790555060608201518160020160006101000a81548167ffffffffffffffff021916908367ffffffffffffffff16021790555060808201518160020160086101000a81548167ffffffffffffffff021916908367ffffffffffffffff1602179055509050507fa9c8dfcda5664a5a124c713e386da27de87432d5b668e79458501eb296389ba78282602001516fffffffffffffffffffffffffffffffff1683604001516fffffffffffffffffffffffffffffffff16846060015167ffffffffffffffff166040518085815260200184815260200183815260200182815260200194505050505060405180910390a15050565b6000806000806000806000600360008a81526020019081526020016000209550611062866112c7565b151561106d57600080fd5b61107686611343565b945084881015151561108757600080fd5b8560000160009054906101000a900473ffffffffffffffffffffffffffffffffffffffff1693506110b789611436565b6000851115611118576110c9856114f2565b925082850391508373ffffffffffffffffffffffffffffffffffffffff166108fc839081150290604051600060405180830381858888f19350505050158015611116573d6000803e3d6000fd5b505b84880390503373ffffffffffffffffffffffffffffffffffffffff166108fc829081150290604051600060405180830381858888f19350505050158015611163573d6000803e3d6000fd5b507f4fcc30d90a842164dd58501ab874a101a3749c3d4747139cefe7c876f4ccebd2898633604051808481526020018381526020018273ffffffffffffffffffffffffffffffffffffffff1673ffffffffffffffffffffffffffffffffffffffff168152602001935050505060405180910390a184965050505050505092915050565b600160009054906101000a900473ffffffffffffffffffffffffffffffffffffffff1673ffffffffffffffffffffffffffffffffffffffff1663a9059cbb83836040518363ffffffff167c0100000000000000000000000000000000000000000000000000000000028152600401808373ffffffffffffffffffffffffffffffffffffffff1673ffffffffffffffffffffffffffffffffffffffff16815260200182815260200192505050600060405180830381600087803b1580156112ab57600080fd5b505af11580156112bf573d6000803e3d6000fd5b505050505050565b6000808260020160089054906101000a900467ffffffffffffffff1667ffffffffffffffff16119050919050565b6112fe82611436565b61130881836111e6565b7f2809c7e17bf978fbc7194c0a694b638c4215e9140cacc6c38ca36010b45697df826040518082815260200191505060405180910390a15050565b600080600090508260020160089054906101000a900467ffffffffffffffff1667ffffffffffffffff1642111561139c578260020160089054906101000a900467ffffffffffffffff1667ffffffffffffffff16420390505b61142e8360010160009054906101000a90046fffffffffffffffffffffffffffffffff166fffffffffffffffffffffffffffffffff168460010160109054906101000a90046fffffffffffffffffffffffffffffffff166fffffffffffffffffffffffffffffffff168560020160009054906101000a900467ffffffffffffffff1667ffffffffffffffff168461150d565b915050919050565b60036000828152602001908152602001600020600080820160006101000a81549073ffffffffffffffffffffffffffffffffffffffff02191690556001820160006101000a8154906fffffffffffffffffffffffffffffffff02191690556001820160106101000a8154906fffffffffffffffffffffffffffffffff02191690556002820160006101000a81549067ffffffffffffffff02191690556002820160086101000a81549067ffffffffffffffff0219169055505050565b6000612710600254830281151561150557fe5b049050919050565b600080600080858510151561152457869350611542565b87870392508585840281151561153657fe5b05915081880190508093505b505050949350505050565b60a060405190810160405280600073ffffffffffffffffffffffffffffffffffffffff16815260200160006fffffffffffffffffffffffffffffffff16815260200160006fffffffffffffffffffffffffffffffff168152602001600067ffffffffffffffff168152602001600067ffffffffffffffff16815250905600a165627a7a72305820ec4ccb2f5af2583bfd1618978d0b1597e93de01fc59283d775b3e8e7758a6bdd0029",
  "source": "pragma solidity ^0.4.11;\n\nimport './Pausable.sol';\nimport './ClockAuctionBase.sol';\n\n/// @title Clock auction for non-fungible tokens.\n/// @notice We omit a fallback function to prevent accidental sends to this contract.\ncontract ClockAuction is Pausable, ClockAuctionBase {\n\n\t/// @dev The ERC-165 interface signature for ERC-721.\n\t///  Ref: https://github.com/ethereum/EIPs/issues/165\n\t///  Ref: https://github.com/ethereum/EIPs/issues/721\n\tbytes4 constant InterfaceSignature_ERC721 = bytes4(0x9a20483d);\n\n\t/// @dev Constructor creates a reference to the NFT ownership contract\n\t///  and verifies the owner cut is in the valid range.\n\t/// @param _nftAddress - address of a deployed contract implementing\n\t///  the Nonfungible Interface.\n\t/// @param _cut - percent cut the owner takes on each auction, must be\n\t///  between 0-10,000.\n\tfunction ClockAuction(address _nftAddress, uint256 _cut) public {\n\t\trequire(_cut <= 10000);\n\t\townerCut = _cut;\n\n\t\tERC721 candidateContract = ERC721(_nftAddress);\n\t\trequire(candidateContract.supportsInterface(InterfaceSignature_ERC721));\n\t\tnonFungibleContract = candidateContract;\n\t}\n\n\t/// @dev Remove all Ether from the contract, which is the owner's cuts\n\t///  as well as any Ether sent directly to the contract address.\n\t///  Always transfers to the NFT contract, but can be called either by\n\t///  the owner or the NFT contract.\n\tfunction withdrawBalance() external {\n\t\taddress nftAddress = address(nonFungibleContract);\n\n\t\trequire(\n\t\t\tmsg.sender == owner ||\n\t\t\tmsg.sender == nftAddress\n\t\t);\n\t\t// We are using this boolean method to make sure that even if one fails it will still work\n\t\tbool res = nftAddress.send(this.balance);\n\t}\n\n\t/// @dev Creates and begins a new auction.\n\t/// @param _tokenId - ID of token to auction, sender must be owner.\n\t/// @param _startingPrice - Price of item (in wei) at beginning of auction.\n\t/// @param _endingPrice - Price of item (in wei) at end of auction.\n\t/// @param _duration - Length of time to move between starting\n\t///  price and ending price (in seconds).\n\t/// @param _seller - Seller, if not the message sender\n\tfunction createAuction(\n\t\tuint256 _tokenId,\n\t\tuint256 _startingPrice,\n\t\tuint256 _endingPrice,\n\t\tuint256 _duration,\n\t\taddress _seller\n\t)\n\texternal\n\twhenNotPaused\n\t{\n\t\t// Sanity check that no inputs overflow how many bits we've allocated\n\t\t// to store them in the auction struct.\n\t\trequire(_startingPrice == uint256(uint128(_startingPrice)));\n\t\trequire(_endingPrice == uint256(uint128(_endingPrice)));\n\t\trequire(_duration == uint256(uint64(_duration)));\n\n\t\trequire(_owns(msg.sender, _tokenId));\n\t\t_escrow(msg.sender, _tokenId);\n\t\tAuction memory auction = Auction(\n\t\t\t_seller,\n\t\t\tuint128(_startingPrice),\n\t\t\tuint128(_endingPrice),\n\t\t\tuint64(_duration),\n\t\t\tuint64(now)\n\t\t);\n\t\t_addAuction(_tokenId, auction);\n\t}\n\n\t/// @dev Bids on an open auction, completing the auction and transferring\n\t///  ownership of the NFT if enough Ether is supplied.\n\t/// @param _tokenId - ID of token to bid on.\n\tfunction bid(uint256 _tokenId)\n\texternal\n\tpayable\n\twhenNotPaused\n\t{\n\t\t// _bid will throw if the bid or funds transfer fails\n\t\t_bid(_tokenId, msg.value);\n\t\t_transfer(msg.sender, _tokenId);\n\t}\n\n\t/// @dev Cancels an auction that hasn't been won yet.\n\t///  Returns the NFT to original owner.\n\t/// @notice This is a state-modifying function that can\n\t///  be called while the contract is paused.\n\t/// @param _tokenId - ID of token on auction\n\tfunction cancelAuction(uint256 _tokenId)\n\texternal\n\t{\n\t\tAuction storage auction = tokenIdToAuction[_tokenId];\n\t\trequire(_isOnAuction(auction));\n\t\taddress seller = auction.seller;\n\t\trequire(msg.sender == seller);\n\t\t_cancelAuction(_tokenId, seller);\n\t}\n\n\t/// @dev Cancels an auction when the contract is paused.\n\t///  Only the owner may do this, and NFTs are returned to\n\t///  the seller. This should only be used in emergencies.\n\t/// @param _tokenId - ID of the NFT on auction to cancel.\n\tfunction cancelAuctionWhenPaused(uint256 _tokenId)\n\twhenPaused\n\tonlyOwner\n\texternal\n\t{\n\t\tAuction storage auction = tokenIdToAuction[_tokenId];\n\t\trequire(_isOnAuction(auction));\n\t\t_cancelAuction(_tokenId, auction.seller);\n\t}\n\n\t/// @dev Returns auction info for an NFT on auction.\n\t/// @param _tokenId - ID of NFT on auction.\n\tfunction getAuction(uint256 _tokenId)\n\texternal\n\tview\n\treturns\n\t(\n\t\taddress seller,\n\t\tuint256 startingPrice,\n\t\tuint256 endingPrice,\n\t\tuint256 duration,\n\t\tuint256 startedAt\n\t) {\n\t\tAuction storage auction = tokenIdToAuction[_tokenId];\n\t\trequire(_isOnAuction(auction));\n\t\treturn (\n\t\t\tauction.seller,\n\t\t\tauction.startingPrice,\n\t\t\tauction.endingPrice,\n\t\t\tauction.duration,\n\t\t\tauction.startedAt\n\t\t);\n\t}\n\n\t/// @dev Returns the current price of an auction.\n\t/// @param _tokenId - ID of the token price we are checking.\n\tfunction getCurrentPrice(uint256 _tokenId)\n\texternal\n\tview\n\treturns (uint256)\n\t{\n\t\tAuction storage auction = tokenIdToAuction[_tokenId];\n\t\trequire(_isOnAuction(auction));\n\t\treturn _currentPrice(auction);\n\t}\n}\n",
  "sourcePath": "/Users/harrisonbeckerich/proj/vanimals/contracts/ClockAuction.sol",
  "compiler": {
    "name": "solc",
    "version": "0.4.24+commit.e67f0147.Emscripten.clang"
  },
  "schemaVersion": "2.0.0",
  "updatedAt": "2018-07-05T21:18:37.475Z"
}