{
  "contractName": "ClockAuctionBase",
  "abi": [
    {
      "constant": true,
      "inputs": [],
      "name": "ownerCut",
      "outputs": [
        {
          "name": "",
          "type": "uint256"
        }
      ],
      "payable": false,
      "stateMutability": "view",
      "type": "function"
    },
    {
      "constant": true,
      "inputs": [],
      "name": "nonFungibleContract",
      "outputs": [
        {
          "name": "",
          "type": "address"
        }
      ],
      "payable": false,
      "stateMutability": "view",
      "type": "function"
    },
    {
      "anonymous": false,
      "inputs": [
        {
          "indexed": false,
          "name": "tokenId",
          "type": "uint256"
        },
        {
          "indexed": false,
          "name": "startingPrice",
          "type": "uint256"
        },
        {
          "indexed": false,
          "name": "endingPrice",
          "type": "uint256"
        },
        {
          "indexed": false,
          "name": "duration",
          "type": "uint256"
        }
      ],
      "name": "AuctionCreated",
      "type": "event"
    },
    {
      "anonymous": false,
      "inputs": [
        {
          "indexed": false,
          "name": "tokenId",
          "type": "uint256"
        },
        {
          "indexed": false,
          "name": "totalPrice",
          "type": "uint256"
        },
        {
          "indexed": false,
          "name": "winner",
          "type": "address"
        }
      ],
      "name": "AuctionSuccessful",
      "type": "event"
    },
    {
      "anonymous": false,
      "inputs": [
        {
          "indexed": false,
          "name": "tokenId",
          "type": "uint256"
        }
      ],
      "name": "AuctionCancelled",
      "type": "event"
    }
  ],
  "bytecode": "0x608060405234801561001057600080fd5b50610121806100206000396000f3006080604052600436106049576000357c0100000000000000000000000000000000000000000000000000000000900463ffffffff16806383b5ff8b14604e578063dd1b7a0f146076575b600080fd5b348015605957600080fd5b50606060ca565b6040518082815260200191505060405180910390f35b348015608157600080fd5b50608860d0565b604051808273ffffffffffffffffffffffffffffffffffffffff1673ffffffffffffffffffffffffffffffffffffffff16815260200191505060405180910390f35b60015481565b6000809054906101000a900473ffffffffffffffffffffffffffffffffffffffff16815600a165627a7a723058204c0e8b07abd89da67dded29ee7ab92ab454f742ca66bea5db365bddc9bf2d2750029",
  "source": "pragma solidity ^0.4.11;\n\nimport './ERC721.sol';\n\n/// @title Auction Core\n/// @dev Contains models, variables, and internal methods for the auction.\n/// @notice We omit a fallback function to prevent accidental sends to this contract.\ncontract ClockAuctionBase {\n\n\t// Represents an auction on an NFT\n\tstruct Auction {\n\t\t// Current owner of NFT\n\t\taddress seller;\n\t\t// Price (in wei) at beginning of auction\n\t\tuint128 startingPrice;\n\t\t// Price (in wei) at end of auction\n\t\tuint128 endingPrice;\n\t\t// Duration (in seconds) of auction\n\t\tuint64 duration;\n\t\t// Time when auction started\n\t\t// NOTE: 0 if this auction has been concluded\n\t\tuint64 startedAt;\n\t}\n\n\t// Reference to contract tracking NFT ownership\n\tERC721 public nonFungibleContract;\n\n\t// Cut owner takes on each auction, measured in basis points (1/100 of a percent).\n\t// Values 0-10,000 map to 0%-100%\n\tuint256 public ownerCut;\n\n\t// Map from token ID to their corresponding auction.\n\tmapping (uint256 => Auction) tokenIdToAuction;\n\n\tevent AuctionCreated(uint256 tokenId, uint256 startingPrice, uint256 endingPrice, uint256 duration);\n\tevent AuctionSuccessful(uint256 tokenId, uint256 totalPrice, address winner);\n\tevent AuctionCancelled(uint256 tokenId);\n\n\t/// @dev Returns true if the claimant owns the token.\n\t/// @param _claimant - Address claiming to own the token.\n\t/// @param _tokenId - ID of token whose ownership to verify.\n\tfunction _owns(address _claimant, uint256 _tokenId) internal view returns (bool) {\n\t\treturn (nonFungibleContract.ownerOf(_tokenId) == _claimant);\n\t}\n\n\t/// @dev Escrows the NFT, assigning ownership to this contract.\n\t/// Throws if the escrow fails.\n\t/// @param _owner - Current owner address of token to escrow.\n\t/// @param _tokenId - ID of token whose approval to verify.\n\tfunction _escrow(address _owner, uint256 _tokenId) internal {\n\t\t// it will throw if transfer fails\n\t\tnonFungibleContract.transferFrom(_owner, this, _tokenId);\n\t}\n\n\t/// @dev Transfers an NFT owned by this contract to another address.\n\t/// Returns true if the transfer succeeds.\n\t/// @param _receiver - Address to transfer NFT to.\n\t/// @param _tokenId - ID of token to transfer.\n\tfunction _transfer(address _receiver, uint256 _tokenId) internal {\n\t\t// it will throw if transfer fails\n\t\tnonFungibleContract.transfer(_receiver, _tokenId);\n\t}\n\n\t/// @dev Adds an auction to the list of open auctions. Also fires the\n\t///  AuctionCreated event.\n\t/// @param _tokenId The ID of the token to be put on auction.\n\t/// @param _auction Auction to add.\n\tfunction _addAuction(uint256 _tokenId, Auction _auction) internal {\n\t\t// Require that all auctions have a duration of\n\t\t// at least one minute. (Keeps our math from getting hairy!)\n\t\trequire(_auction.duration >= 1 minutes);\n\n\t\ttokenIdToAuction[_tokenId] = _auction;\n\n\t\tAuctionCreated(\n\t\t\tuint256(_tokenId),\n\t\t\tuint256(_auction.startingPrice),\n\t\t\tuint256(_auction.endingPrice),\n\t\t\tuint256(_auction.duration)\n\t\t);\n\t}\n\n\t/// @dev Cancels an auction unconditionally.\n\tfunction _cancelAuction(uint256 _tokenId, address _seller) internal {\n\t\t_removeAuction(_tokenId);\n\t\t_transfer(_seller, _tokenId);\n\t\tAuctionCancelled(_tokenId);\n\t}\n\n\t/// @dev Computes the price and transfers winnings.\n\t/// Does NOT transfer ownership of token.\n\tfunction _bid(uint256 _tokenId, uint256 _bidAmount)\n\tinternal\n\treturns (uint256)\n\t{\n\t\t// Get a reference to the auction struct\n\t\tAuction storage auction = tokenIdToAuction[_tokenId];\n\n\t\t// Explicitly check that this auction is currently live.\n\t\t// (Because of how Ethereum mappings work, we can't just count\n\t\t// on the lookup above failing. An invalid _tokenId will just\n\t\t// return an auction object that is all zeros.)\n\t\trequire(_isOnAuction(auction));\n\n\t\t// Check that the bid is greater than or equal to the current price\n\t\tuint256 price = _currentPrice(auction);\n\t\trequire(_bidAmount >= price);\n\n\t\t// Grab a reference to the seller before the auction struct\n\t\t// gets deleted.\n\t\taddress seller = auction.seller;\n\n\t\t// The bid is good! Remove the auction before sending the fees\n\t\t// to the sender so we can't have a reentrancy attack.\n\t\t_removeAuction(_tokenId);\n\n\t\t// Transfer proceeds to seller (if there are any!)\n\t\tif (price > 0) {\n\t\t\t// Calculate the auctioneer's cut.\n\t\t\t// (NOTE: _computeCut() is guaranteed to return a\n\t\t\t// value <= price, so this subtraction can't go negative.)\n\t\t\tuint256 auctioneerCut = _computeCut(price);\n\t\t\tuint256 sellerProceeds = price - auctioneerCut;\n\n\t\t\t// NOTE: Doing a transfer() in the middle of a complex\n\t\t\t// method like this is generally discouraged because of\n\t\t\t// reentrancy attacks and DoS attacks if the seller is\n\t\t\t// a contract with an invalid fallback function. We explicitly\n\t\t\t// guard against reentrancy attacks by removing the auction\n\t\t\t// before calling transfer(), and the only thing the seller\n\t\t\t// can DoS is the sale of their own asset! (And if it's an\n\t\t\t// accident, they can call cancelAuction(). )\n\t\t\tseller.transfer(sellerProceeds);\n\t\t}\n\n\t\t// Calculate any excess funds included with the bid. If the excess\n\t\t// is anything worth worrying about, transfer it back to bidder.\n\t\t// NOTE: We checked above that the bid amount is greater than or\n\t\t// equal to the price so this cannot underflow.\n\t\tuint256 bidExcess = _bidAmount - price;\n\n\t\t// Return the funds. Similar to the previous transfer, this is\n\t\t// not susceptible to a re-entry attack because the auction is\n\t\t// removed before any transfers occur.\n\t\tmsg.sender.transfer(bidExcess);\n\n\t\t// Tell the world!\n\t\tAuctionSuccessful(_tokenId, price, msg.sender);\n\n\t\treturn price;\n\t}\n\n\t/// @dev Removes an auction from the list of open auctions.\n\t/// @param _tokenId - ID of NFT on auction.\n\tfunction _removeAuction(uint256 _tokenId) internal {\n\t\tdelete tokenIdToAuction[_tokenId];\n\t}\n\n\t/// @dev Returns true if the NFT is on auction.\n\t/// @param _auction - Auction to check.\n\tfunction _isOnAuction(Auction storage _auction) internal view returns (bool) {\n\t\treturn (_auction.startedAt > 0);\n\t}\n\n\t/// @dev Returns current price of an NFT on auction. Broken into two\n\t///  functions (this one, that computes the duration from the auction\n\t///  structure, and the other that does the price computation) so we\n\t///  can easily test that the price computation works correctly.\n\tfunction _currentPrice(Auction storage _auction)\n\tinternal\n\tview\n\treturns (uint256)\n\t{\n\t\tuint256 secondsPassed = 0;\n\n\t\t// A bit of insurance against negative values (or wraparound).\n\t\t// Probably not necessary (since Ethereum guarnatees that the\n\t\t// now variable doesn't ever go backwards).\n\t\tif (now > _auction.startedAt) {\n\t\t\tsecondsPassed = now - _auction.startedAt;\n\t\t}\n\n\t\treturn _computeCurrentPrice(\n\t\t\t_auction.startingPrice,\n\t\t\t_auction.endingPrice,\n\t\t\t_auction.duration,\n\t\t\tsecondsPassed\n\t\t);\n\t}\n\n\t/// @dev Computes the current price of an auction. Factored out\n\t///  from _currentPrice so we can run extensive unit tests.\n\t///  When testing, make this function public and turn on\n\t///  `Current price computation` test suite.\n\tfunction _computeCurrentPrice(\n\t\tuint256 _startingPrice,\n\t\tuint256 _endingPrice,\n\t\tuint256 _duration,\n\t\tuint256 _secondsPassed\n\t)\n\tinternal\n\tpure\n\treturns (uint256)\n\t{\n\t\t// NOTE: We don't use SafeMath (or similar) in this function because\n\t\t//  all of our public functions carefully cap the maximum values for\n\t\t//  time (at 64-bits) and currency (at 128-bits). _duration is\n\t\t//  also known to be non-zero (see the require() statement in\n\t\t//  _addAuction())\n\t\tif (_secondsPassed >= _duration) {\n\t\t\t// We've reached the end of the dynamic pricing portion\n\t\t\t// of the auction, just return the end price.\n\t\t\treturn _endingPrice;\n\t\t} else {\n\t\t\t// Starting price can be higher than ending price (and often is!), so\n\t\t\t// this delta can be negative.\n\t\t\tint256 totalPriceChange = int256(_endingPrice) - int256(_startingPrice);\n\n\t\t\t// This multiplication can't overflow, _secondsPassed will easily fit within\n\t\t\t// 64-bits, and totalPriceChange will easily fit within 128-bits, their product\n\t\t\t// will always fit within 256-bits.\n\t\t\tint256 currentPriceChange = totalPriceChange * int256(_secondsPassed) / int256(_duration);\n\n\t\t\t// currentPriceChange can be negative, but if so, will have a magnitude\n\t\t\t// less that _startingPrice. Thus, this result will always end up positive.\n\t\t\tint256 currentPrice = int256(_startingPrice) + currentPriceChange;\n\n\t\t\treturn uint256(currentPrice);\n\t\t}\n\t}\n\n\t/// @dev Computes owner's cut of a sale.\n\t/// @param _price - Sale price of NFT.\n\tfunction _computeCut(uint256 _price) internal view returns (uint256) {\n\t\t// NOTE: We don't use SafeMath (or similar) in this function because\n\t\t//  all of our entry functions carefully cap the maximum values for\n\t\t//  currency (at 128-bits), and ownerCut <= 10000 (see the require()\n\t\t//  statement in the ClockAuction constructor). The result of this\n\t\t//  function is always guaranteed to be <= _price.\n\t\treturn _price * ownerCut / 10000;\n\t}\n\n}\n",
  "sourcePath": "/Users/harrisonbeckerich/proj/vanimals/contracts/ClockAuctionBase.sol",
  "compiler": {
    "name": "solc",
    "version": "0.4.24+commit.e67f0147.Emscripten.clang"
  },
  "schemaVersion": "2.0.0",
  "updatedAt": "2018-07-05T21:18:37.481Z"
}