{
  "contractName": "ERC721Metadata",
  "abi": [
    {
      "constant": true,
      "inputs": [
        {
          "name": "_tokenId",
          "type": "uint256"
        },
        {
          "name": "",
          "type": "string"
        }
      ],
      "name": "getMetadata",
      "outputs": [
        {
          "name": "buffer",
          "type": "bytes32[4]"
        },
        {
          "name": "count",
          "type": "uint256"
        }
      ],
      "payable": false,
      "stateMutability": "view",
      "type": "function"
    }
  ],
  "bytecode": "0x608060405234801561001057600080fd5b50610365806100206000396000f300608060405260043610610041576000357c0100000000000000000000000000000000000000000000000000000000900463ffffffff168063cb4799f214610046575b600080fd5b34801561005257600080fd5b506100b760048036038101908080359060200190929190803590602001908201803590602001908080601f01602080910402602001604051908101604052809392919081815260200183838082843782019150505050505091929192905050506100fc565b6040518083600460200280838360005b838110156100e25780820151818401526020810190506100c7565b505050509050018281526020019250505060405180910390f35b610104610316565b6000600184141561015b577f48656c6c6f20576f726c6421203a44000000000000000000000000000000000082600060048110151561013f57fe5b60200201906000191690816000191681525050600f905061030f565b60028414156101f3577f4920776f756c6420646566696e6974656c792063686f6f73652061206d65646982600060048110151561019457fe5b602002019060001916908160001916815250507f756d206c656e67746820737472696e672e0000000000000000000000000000008260016004811015156101d757fe5b602002019060001916908160001916815250506031905061030e565b600384141561030d577f4c6f72656d20697073756d20646f6c6f722073697420616d65742c206d69206582600060048110151561022c57fe5b602002019060001916908160001916815250507f737420616363756d73616e2064617069627573206175677565206c6f72656d2c82600160048110151561026f57fe5b602002019060001916908160001916815250507f2074726973746971756520766573746962756c756d2069642c206c696265726f8260026004811015156102b257fe5b602002019060001916908160001916815250507f207375736369706974207661726975732073617069656e20616c697175616d2e8260036004811015156102f557fe5b60200201906000191690816000191681525050608090505b5b5b9250929050565b6080604051908101604052806004906020820280388339808201915050905050905600a165627a7a72305820bafdc1ab90e74617ecf1bb638199cb030aae46b807a92156da0f4e33780720620029",
  "source": "pragma solidity ^0.4.11;\n\n/// @title The external contract that is responsible for generating metadata for the kitties,\n///  it has one function that will return the data as bytes.\ncontract ERC721Metadata {\n\t/// @dev Given a token Id, returns a byte array that is supposed to be converted into string.\n\tfunction getMetadata(uint256 _tokenId, string) public view returns (bytes32[4] buffer, uint256 count) {\n\t\tif (_tokenId == 1) {\n\t\t\tbuffer[0] = \"Hello World! :D\";\n\t\t\tcount = 15;\n\t\t} else if (_tokenId == 2) {\n\t\t\tbuffer[0] = \"I would definitely choose a medi\";\n\t\t\tbuffer[1] = \"um length string.\";\n\t\t\tcount = 49;\n\t\t} else if (_tokenId == 3) {\n\t\t\tbuffer[0] = \"Lorem ipsum dolor sit amet, mi e\";\n\t\t\tbuffer[1] = \"st accumsan dapibus augue lorem,\";\n\t\t\tbuffer[2] = \" tristique vestibulum id, libero\";\n\t\t\tbuffer[3] = \" suscipit varius sapien aliquam.\";\n\t\t\tcount = 128;\n\t\t}\n\t}\n}\n",
  "sourcePath": "/Users/harrisonbeckerich/proj/vanimals/contracts/ERC721Metadata.sol",
  "compiler": {
    "name": "solc",
    "version": "0.4.24+commit.e67f0147.Emscripten.clang"
  },
  "schemaVersion": "2.0.0",
  "updatedAt": "2018-07-05T21:18:37.469Z"
}