{
  "contractName": "GeneScience",
  "abi": [
    {
      "constant": true,
      "inputs": [],
      "name": "isGeneScience",
      "outputs": [
        {
          "name": "",
          "type": "bool"
        }
      ],
      "payable": false,
      "stateMutability": "pure",
      "type": "function"
    },
    {
      "constant": false,
      "inputs": [
        {
          "name": "genes1",
          "type": "uint256"
        },
        {
          "name": "genes2",
          "type": "uint256"
        },
        {
          "name": "targetBlock",
          "type": "uint256"
        }
      ],
      "name": "mixGenes",
      "outputs": [
        {
          "name": "",
          "type": "uint256"
        }
      ],
      "payable": false,
      "stateMutability": "nonpayable",
      "type": "function"
    }
  ],
  "bytecode": "0x608060405234801561001057600080fd5b5061010f806100206000396000f3006080604052600436106049576000357c0100000000000000000000000000000000000000000000000000000000900463ffffffff1680630d9f5aed14604e57806354c15b821460a0575b600080fd5b348015605957600080fd5b50608a60048036038101908080359060200190929190803590602001909291908035906020019092919050505060cc565b6040518082815260200191505060405180910390f35b34801560ab57600080fd5b5060b260da565b604051808215151515815260200191505060405180910390f35b600082840190509392505050565b600060019050905600a165627a7a723058209e7caea8484128d379f20cd4a6e881463ffc0dce9628e9e43b9479b98c0d376e0029",
  "source": "pragma solidity ^0.4.11;\n\ncontract GeneScience {\n\tfunction isGeneScience() public pure returns (bool) {\n\t\treturn true;\n\t}\n\n\tfunction mixGenes(uint256 genes1, uint256 genes2, uint256 targetBlock) public returns (uint256) {\n\t\treturn genes1 + genes2;\n\t}\n}\n",
  "sourcePath": "/Users/harrisonbeckerich/proj/vanimals/contracts/GeneScience.sol",
  "compiler": {
    "name": "solc",
    "version": "0.4.24+commit.e67f0147.Emscripten.clang"
  },
  "schemaVersion": "2.0.0",
  "updatedAt": "2018-07-26T03:01:21.861Z"
}