{
  "contractName": "KittyOwnership",
  "abi": [
    {
      "constant": true,
      "inputs": [],
      "name": "cfoAddress",
      "outputs": [
        {
          "name": "",
          "type": "address"
        }
      ],
      "payable": false,
      "stateMutability": "view",
      "type": "function"
    },
    {
      "constant": true,
      "inputs": [],
      "name": "name",
      "outputs": [
        {
          "name": "",
          "type": "string"
        }
      ],
      "payable": false,
      "stateMutability": "view",
      "type": "function"
    },
    {
      "constant": true,
      "inputs": [],
      "name": "ceoAddress",
      "outputs": [
        {
          "name": "",
          "type": "address"
        }
      ],
      "payable": false,
      "stateMutability": "view",
      "type": "function"
    },
    {
      "constant": true,
      "inputs": [],
      "name": "siringAuction",
      "outputs": [
        {
          "name": "",
          "type": "address"
        }
      ],
      "payable": false,
      "stateMutability": "view",
      "type": "function"
    },
    {
      "constant": false,
      "inputs": [
        {
          "name": "_newCEO",
          "type": "address"
        }
      ],
      "name": "setCEO",
      "outputs": [],
      "payable": false,
      "stateMutability": "nonpayable",
      "type": "function"
    },
    {
      "constant": false,
      "inputs": [
        {
          "name": "_newCOO",
          "type": "address"
        }
      ],
      "name": "setCOO",
      "outputs": [],
      "payable": false,
      "stateMutability": "nonpayable",
      "type": "function"
    },
    {
      "constant": false,
      "inputs": [],
      "name": "unpause",
      "outputs": [],
      "payable": false,
      "stateMutability": "nonpayable",
      "type": "function"
    },
    {
      "constant": true,
      "inputs": [
        {
          "name": "",
          "type": "uint256"
        }
      ],
      "name": "sireAllowedToAddress",
      "outputs": [
        {
          "name": "",
          "type": "address"
        }
      ],
      "payable": false,
      "stateMutability": "view",
      "type": "function"
    },
    {
      "constant": true,
      "inputs": [
        {
          "name": "",
          "type": "uint256"
        }
      ],
      "name": "kittyIndexToApproved",
      "outputs": [
        {
          "name": "",
          "type": "address"
        }
      ],
      "payable": false,
      "stateMutability": "view",
      "type": "function"
    },
    {
      "constant": false,
      "inputs": [
        {
          "name": "_newCFO",
          "type": "address"
        }
      ],
      "name": "setCFO",
      "outputs": [],
      "payable": false,
      "stateMutability": "nonpayable",
      "type": "function"
    },
    {
      "constant": false,
      "inputs": [
        {
          "name": "secs",
          "type": "uint256"
        }
      ],
      "name": "setSecondsPerBlock",
      "outputs": [],
      "payable": false,
      "stateMutability": "nonpayable",
      "type": "function"
    },
    {
      "constant": true,
      "inputs": [],
      "name": "paused",
      "outputs": [
        {
          "name": "",
          "type": "bool"
        }
      ],
      "payable": false,
      "stateMutability": "view",
      "type": "function"
    },
    {
      "constant": true,
      "inputs": [],
      "name": "secondsPerBlock",
      "outputs": [
        {
          "name": "",
          "type": "uint256"
        }
      ],
      "payable": false,
      "stateMutability": "view",
      "type": "function"
    },
    {
      "constant": false,
      "inputs": [],
      "name": "pause",
      "outputs": [],
      "payable": false,
      "stateMutability": "nonpayable",
      "type": "function"
    },
    {
      "constant": true,
      "inputs": [],
      "name": "symbol",
      "outputs": [
        {
          "name": "",
          "type": "string"
        }
      ],
      "payable": false,
      "stateMutability": "view",
      "type": "function"
    },
    {
      "constant": true,
      "inputs": [
        {
          "name": "",
          "type": "uint256"
        }
      ],
      "name": "cooldowns",
      "outputs": [
        {
          "name": "",
          "type": "uint32"
        }
      ],
      "payable": false,
      "stateMutability": "view",
      "type": "function"
    },
    {
      "constant": true,
      "inputs": [
        {
          "name": "",
          "type": "uint256"
        }
      ],
      "name": "kittyIndexToOwner",
      "outputs": [
        {
          "name": "",
          "type": "address"
        }
      ],
      "payable": false,
      "stateMutability": "view",
      "type": "function"
    },
    {
      "constant": true,
      "inputs": [],
      "name": "cooAddress",
      "outputs": [
        {
          "name": "",
          "type": "address"
        }
      ],
      "payable": false,
      "stateMutability": "view",
      "type": "function"
    },
    {
      "constant": true,
      "inputs": [],
      "name": "erc721Metadata",
      "outputs": [
        {
          "name": "",
          "type": "address"
        }
      ],
      "payable": false,
      "stateMutability": "view",
      "type": "function"
    },
    {
      "constant": true,
      "inputs": [],
      "name": "saleAuction",
      "outputs": [
        {
          "name": "",
          "type": "address"
        }
      ],
      "payable": false,
      "stateMutability": "view",
      "type": "function"
    },
    {
      "anonymous": false,
      "inputs": [
        {
          "indexed": false,
          "name": "from",
          "type": "address"
        },
        {
          "indexed": false,
          "name": "to",
          "type": "address"
        },
        {
          "indexed": false,
          "name": "tokenId",
          "type": "uint256"
        }
      ],
      "name": "Transfer",
      "type": "event"
    },
    {
      "anonymous": false,
      "inputs": [
        {
          "indexed": false,
          "name": "owner",
          "type": "address"
        },
        {
          "indexed": false,
          "name": "approved",
          "type": "address"
        },
        {
          "indexed": false,
          "name": "tokenId",
          "type": "uint256"
        }
      ],
      "name": "Approval",
      "type": "event"
    },
    {
      "anonymous": false,
      "inputs": [
        {
          "indexed": false,
          "name": "owner",
          "type": "address"
        },
        {
          "indexed": false,
          "name": "kittyId",
          "type": "uint256"
        },
        {
          "indexed": false,
          "name": "matronId",
          "type": "uint256"
        },
        {
          "indexed": false,
          "name": "sireId",
          "type": "uint256"
        },
        {
          "indexed": false,
          "name": "genes",
          "type": "uint256"
        }
      ],
      "name": "Birth",
      "type": "event"
    },
    {
      "anonymous": false,
      "inputs": [
        {
          "indexed": false,
          "name": "newContract",
          "type": "address"
        }
      ],
      "name": "ContractUpgrade",
      "type": "event"
    },
    {
      "constant": true,
      "inputs": [
        {
          "name": "_interfaceID",
          "type": "bytes4"
        }
      ],
      "name": "supportsInterface",
      "outputs": [
        {
          "name": "",
          "type": "bool"
        }
      ],
      "payable": false,
      "stateMutability": "view",
      "type": "function"
    },
    {
      "constant": false,
      "inputs": [
        {
          "name": "_contractAddress",
          "type": "address"
        }
      ],
      "name": "setMetadataAddress",
      "outputs": [],
      "payable": false,
      "stateMutability": "nonpayable",
      "type": "function"
    },
    {
      "constant": true,
      "inputs": [
        {
          "name": "_owner",
          "type": "address"
        }
      ],
      "name": "balanceOf",
      "outputs": [
        {
          "name": "count",
          "type": "uint256"
        }
      ],
      "payable": false,
      "stateMutability": "view",
      "type": "function"
    },
    {
      "constant": false,
      "inputs": [
        {
          "name": "_to",
          "type": "address"
        },
        {
          "name": "_tokenId",
          "type": "uint256"
        }
      ],
      "name": "transfer",
      "outputs": [],
      "payable": false,
      "stateMutability": "nonpayable",
      "type": "function"
    },
    {
      "constant": false,
      "inputs": [
        {
          "name": "_to",
          "type": "address"
        },
        {
          "name": "_tokenId",
          "type": "uint256"
        }
      ],
      "name": "approve",
      "outputs": [],
      "payable": false,
      "stateMutability": "nonpayable",
      "type": "function"
    },
    {
      "constant": false,
      "inputs": [
        {
          "name": "_from",
          "type": "address"
        },
        {
          "name": "_to",
          "type": "address"
        },
        {
          "name": "_tokenId",
          "type": "uint256"
        }
      ],
      "name": "transferFrom",
      "outputs": [],
      "payable": false,
      "stateMutability": "nonpayable",
      "type": "function"
    },
    {
      "constant": true,
      "inputs": [],
      "name": "totalSupply",
      "outputs": [
        {
          "name": "",
          "type": "uint256"
        }
      ],
      "payable": false,
      "stateMutability": "view",
      "type": "function"
    },
    {
      "constant": true,
      "inputs": [
        {
          "name": "_tokenId",
          "type": "uint256"
        }
      ],
      "name": "ownerOf",
      "outputs": [
        {
          "name": "owner",
          "type": "address"
        }
      ],
      "payable": false,
      "stateMutability": "view",
      "type": "function"
    },
    {
      "constant": true,
      "inputs": [
        {
          "name": "_owner",
          "type": "address"
        }
      ],
      "name": "tokensOfOwner",
      "outputs": [
        {
          "name": "ownerTokens",
          "type": "uint256[]"
        }
      ],
      "payable": false,
      "stateMutability": "view",
      "type": "function"
    },
    {
      "constant": true,
      "inputs": [
        {
          "name": "_tokenId",
          "type": "uint256"
        },
        {
          "name": "_preferredTransport",
          "type": "string"
        }
      ],
      "name": "tokenMetadata",
      "outputs": [
        {
          "name": "infoUrl",
          "type": "string"
        }
      ],
      "payable": false,
      "stateMutability": "view",
      "type": "function"
    }
  ],
  "bytecode": "0x60806040526000600260146101000a81548160ff0219169083151502179055506101c060405190810160405280603c63ffffffff1663ffffffff168152602001607863ffffffff1663ffffffff16815260200161012c63ffffffff1663ffffffff16815260200161025863ffffffff1663ffffffff16815260200161070863ffffffff1663ffffffff168152602001610e1063ffffffff1663ffffffff168152602001611c2063ffffffff1663ffffffff16815260200161384063ffffffff1663ffffffff16815260200161708063ffffffff1663ffffffff16815260200161e10063ffffffff1663ffffffff1681526020016201518063ffffffff1663ffffffff1681526020016202a30063ffffffff1663ffffffff1681526020016205460063ffffffff1663ffffffff16815260200162093a8063ffffffff1663ffffffff16815250600390600e6200015692919062000170565b50600f6005553480156200016957600080fd5b5062000250565b82600e600701600890048101928215620002075791602002820160005b83821115620001d357835183826101000a81548163ffffffff021916908363ffffffff16021790555092602001926004016020816003010492830192600103026200018d565b8015620002055782816101000a81549063ffffffff0219169055600401602081600301049283019260010302620001d3565b505b5090506200021691906200021a565b5090565b6200024d91905b808211156200024957600081816101000a81549063ffffffff02191690555060010162000221565b5090565b90565b61227580620002606000396000f300608060405260043610610180576000357c0100000000000000000000000000000000000000000000000000000000900463ffffffff16806301ffc9a7146101855780630519ce79146101e95780630560ff441461024057806306fdde03146102fe578063095ea7b31461038e5780630a0f8168146103db57806318160ddd1461043257806321717ebf1461045d57806323b872dd146104b457806327d7874c146105215780632ba73c15146105645780633f4ba83a146105a757806346116e6f146105be578063481af3d31461062b5780634e0a3379146106985780635663896e146106db5780635c975abb146107085780636352211e1461073757806370a08231146107a45780637a7d4937146107fb5780638456cb59146108265780638462151c1461083d57806395d89b41146108d55780639d6fac6f14610965578063a45f4bfc146109b2578063a9059cbb14610a1f578063b047fb5014610a6c578063bc4006f514610ac3578063e17b25af14610b1a578063e6cbe35114610b5d575b600080fd5b34801561019157600080fd5b506101cf60048036038101908080357bffffffffffffffffffffffffffffffffffffffffffffffffffffffff19169060200190929190505050610bb4565b604051808215151515815260200191505060405180910390f35b3480156101f557600080fd5b506101fe610ec5565b604051808273ffffffffffffffffffffffffffffffffffffffff1673ffffffffffffffffffffffffffffffffffffffff16815260200191505060405180910390f35b34801561024c57600080fd5b5061028360048036038101908080359060200190929190803590602001908201803590602001919091929391929390505050610eeb565b6040518080602001828103825283818151815260200191508051906020019080838360005b838110156102c35780820151818401526020810190506102a8565b50505050905090810190601f1680156102f05780820380516001836020036101000a031916815260200191505b509250505060405180910390f35b34801561030a57600080fd5b50610313611074565b6040518080602001828103825283818151815260200191508051906020019080838360005b83811015610353578082015181840152602081019050610338565b50505050905090810190601f1680156103805780820380516001836020036101000a031916815260200191505b509250505060405180910390f35b34801561039a57600080fd5b506103d9600480360381019080803573ffffffffffffffffffffffffffffffffffffffff169060200190929190803590602001909291905050506110ad565b005b3480156103e757600080fd5b506103f061118b565b604051808273ffffffffffffffffffffffffffffffffffffffff1673ffffffffffffffffffffffffffffffffffffffff16815260200191505060405180910390f35b34801561043e57600080fd5b506104476111b0565b6040518082815260200191505060405180910390f35b34801561046957600080fd5b506104726111c0565b604051808273ffffffffffffffffffffffffffffffffffffffff1673ffffffffffffffffffffffffffffffffffffffff16815260200191505060405180910390f35b3480156104c057600080fd5b5061051f600480360381019080803573ffffffffffffffffffffffffffffffffffffffff169060200190929190803573ffffffffffffffffffffffffffffffffffffffff169060200190929190803590602001909291905050506111e6565b005b34801561052d57600080fd5b50610562600480360381019080803573ffffffffffffffffffffffffffffffffffffffff1690602001909291905050506112b3565b005b34801561057057600080fd5b506105a5600480360381019080803573ffffffffffffffffffffffffffffffffffffffff16906020019092919050505061138d565b005b3480156105b357600080fd5b506105bc611468565b005b3480156105ca57600080fd5b506105e9600480360381019080803590602001909291905050506114fb565b604051808273ffffffffffffffffffffffffffffffffffffffff1673ffffffffffffffffffffffffffffffffffffffff16815260200191505060405180910390f35b34801561063757600080fd5b506106566004803603810190808035906020019092919050505061152e565b604051808273ffffffffffffffffffffffffffffffffffffffff1673ffffffffffffffffffffffffffffffffffffffff16815260200191505060405180910390f35b3480156106a457600080fd5b506106d9600480360381019080803573ffffffffffffffffffffffffffffffffffffffff169060200190929190505050611561565b005b3480156106e757600080fd5b506107066004803603810190808035906020019092919050505061163c565b005b34801561071457600080fd5b5061071d611790565b604051808215151515815260200191505060405180910390f35b34801561074357600080fd5b50610762600480360381019080803590602001909291905050506117a3565b604051808273ffffffffffffffffffffffffffffffffffffffff1673ffffffffffffffffffffffffffffffffffffffff16815260200191505060405180910390f35b3480156107b057600080fd5b506107e5600480360381019080803573ffffffffffffffffffffffffffffffffffffffff16906020019092919050505061181c565b6040518082815260200191505060405180910390f35b34801561080757600080fd5b50610810611865565b6040518082815260200191505060405180910390f35b34801561083257600080fd5b5061083b61186b565b005b34801561084957600080fd5b5061087e600480360381019080803573ffffffffffffffffffffffffffffffffffffffff1690602001909291905050506119af565b6040518080602001828103825283818151815260200191508051906020019060200280838360005b838110156108c15780820151818401526020810190506108a6565b505050509050019250505060405180910390f35b3480156108e157600080fd5b506108ea611afc565b6040518080602001828103825283818151815260200191508051906020019080838360005b8381101561092a57808201518184015260208101905061090f565b50505050905090810190601f1680156109575780820380516001836020036101000a031916815260200191505b509250505060405180910390f35b34801561097157600080fd5b5061099060048036038101908080359060200190929190505050611b35565b604051808263ffffffff1663ffffffff16815260200191505060405180910390f35b3480156109be57600080fd5b506109dd60048036038101908080359060200190929190505050611b64565b604051808273ffffffffffffffffffffffffffffffffffffffff1673ffffffffffffffffffffffffffffffffffffffff16815260200191505060405180910390f35b348015610a2b57600080fd5b50610a6a600480360381019080803573ffffffffffffffffffffffffffffffffffffffff16906020019092919080359060200190929190505050611b97565b005b348015610a7857600080fd5b50610a81611d08565b604051808273ffffffffffffffffffffffffffffffffffffffff1673ffffffffffffffffffffffffffffffffffffffff16815260200191505060405180910390f35b348015610acf57600080fd5b50610ad8611d2e565b604051808273ffffffffffffffffffffffffffffffffffffffff1673ffffffffffffffffffffffffffffffffffffffff16815260200191505060405180910390f35b348015610b2657600080fd5b50610b5b600480360381019080803573ffffffffffffffffffffffffffffffffffffffff169060200190929190505050611d54565b005b348015610b6957600080fd5b50610b72611df3565b604051808273ffffffffffffffffffffffffffffffffffffffff1673ffffffffffffffffffffffffffffffffffffffff16815260200191505060405180910390f35b600060405180807f737570706f727473496e74657266616365286279746573342900000000000000815250601901905060405180910390207bffffffffffffffffffffffffffffffffffffffffffffffffffffffff1916827bffffffffffffffffffffffffffffffffffffffffffffffffffffffff19161480610ebe575060405180807f746f6b656e4d657461646174612875696e743235362c737472696e6729000000815250601d019050604051809103902060405180807f746f6b656e734f664f776e6572286164647265737329000000000000000000008152506016019050604051809103902060405180807f7472616e7366657246726f6d28616464726573732c616464726573732c75696e81526020017f74323536290000000000000000000000000000000000000000000000000000008152506025019050604051809103902060405180807f7472616e7366657228616464726573732c75696e7432353629000000000000008152506019019050604051809103902060405180807f617070726f766528616464726573732c75696e743235362900000000000000008152506018019050604051809103902060405180807f6f776e65724f662875696e7432353629000000000000000000000000000000008152506010019050604051809103902060405180807f62616c616e63654f6628616464726573732900000000000000000000000000008152506012019050604051809103902060405180807f746f74616c537570706c79282900000000000000000000000000000000000000815250600d019050604051809103902060405180807f73796d626f6c28290000000000000000000000000000000000000000000000008152506008019050604051809103902060405180807f6e616d6528290000000000000000000000000000000000000000000000000000815250600601905060405180910390201818181818181818187bffffffffffffffffffffffffffffffffffffffffffffffffffffffff1916827bffffffffffffffffffffffffffffffffffffffffffffffffffffffff1916145b9050919050565b600160009054906101000a900473ffffffffffffffffffffffffffffffffffffffff1681565b6060610ef5612226565b60008073ffffffffffffffffffffffffffffffffffffffff16600d60009054906101000a900473ffffffffffffffffffffffffffffffffffffffff1673ffffffffffffffffffffffffffffffffffffffff1614151515610f5457600080fd5b600d60009054906101000a900473ffffffffffffffffffffffffffffffffffffffff1673ffffffffffffffffffffffffffffffffffffffff1663cb4799f28787876040518463ffffffff167c010000000000000000000000000000000000000000000000000000000002815260040180848152602001806020018281038252848482818152602001925080828437820191505094505050505060a060405180830381600087803b15801561100757600080fd5b505af115801561101b573d6000803e3d6000fd5b505050506040513d601f19601f8201168201806040525060a081101561104057600080fd5b810190809190826080018051906020019092919050505080925081935050506110698282611e19565b925050509392505050565b6040805190810160405280600d81526020017f43727970746f4b6974746965730000000000000000000000000000000000000081525081565b600260149054906101000a900460ff161515156110c957600080fd5b6110d33382611e75565b15156110de57600080fd5b6110e88183611ee1565b7f8c5be1e5ebec7d5bd14f71427d1e84f3dd0314c0f7b2291e5b200ac8c7c3b925338383604051808473ffffffffffffffffffffffffffffffffffffffff1673ffffffffffffffffffffffffffffffffffffffff1681526020018373ffffffffffffffffffffffffffffffffffffffff1673ffffffffffffffffffffffffffffffffffffffff168152602001828152602001935050505060405180910390a15050565b6000809054906101000a900473ffffffffffffffffffffffffffffffffffffffff1681565b6000600160068054905003905090565b600c60009054906101000a900473ffffffffffffffffffffffffffffffffffffffff1681565b600260149054906101000a900460ff1615151561120257600080fd5b600073ffffffffffffffffffffffffffffffffffffffff168273ffffffffffffffffffffffffffffffffffffffff161415151561123e57600080fd5b3073ffffffffffffffffffffffffffffffffffffffff168273ffffffffffffffffffffffffffffffffffffffff161415151561127957600080fd5b6112833382611f37565b151561128e57600080fd5b6112988382611e75565b15156112a357600080fd5b6112ae838383611fa3565b505050565b6000809054906101000a900473ffffffffffffffffffffffffffffffffffffffff1673ffffffffffffffffffffffffffffffffffffffff163373ffffffffffffffffffffffffffffffffffffffff1614151561130e57600080fd5b600073ffffffffffffffffffffffffffffffffffffffff168173ffffffffffffffffffffffffffffffffffffffff161415151561134a57600080fd5b806000806101000a81548173ffffffffffffffffffffffffffffffffffffffff021916908373ffffffffffffffffffffffffffffffffffffffff16021790555050565b6000809054906101000a900473ffffffffffffffffffffffffffffffffffffffff1673ffffffffffffffffffffffffffffffffffffffff163373ffffffffffffffffffffffffffffffffffffffff161415156113e857600080fd5b600073ffffffffffffffffffffffffffffffffffffffff168173ffffffffffffffffffffffffffffffffffffffff161415151561142457600080fd5b80600260006101000a81548173ffffffffffffffffffffffffffffffffffffffff021916908373ffffffffffffffffffffffffffffffffffffffff16021790555050565b6000809054906101000a900473ffffffffffffffffffffffffffffffffffffffff1673ffffffffffffffffffffffffffffffffffffffff163373ffffffffffffffffffffffffffffffffffffffff161415156114c357600080fd5b600260149054906101000a900460ff1615156114de57600080fd5b6000600260146101000a81548160ff021916908315150217905550565b600a6020528060005260406000206000915054906101000a900473ffffffffffffffffffffffffffffffffffffffff1681565b60096020528060005260406000206000915054906101000a900473ffffffffffffffffffffffffffffffffffffffff1681565b6000809054906101000a900473ffffffffffffffffffffffffffffffffffffffff1673ffffffffffffffffffffffffffffffffffffffff163373ffffffffffffffffffffffffffffffffffffffff161415156115bc57600080fd5b600073ffffffffffffffffffffffffffffffffffffffff168173ffffffffffffffffffffffffffffffffffffffff16141515156115f857600080fd5b80600160006101000a81548173ffffffffffffffffffffffffffffffffffffffff021916908373ffffffffffffffffffffffffffffffffffffffff16021790555050565b600260009054906101000a900473ffffffffffffffffffffffffffffffffffffffff1673ffffffffffffffffffffffffffffffffffffffff163373ffffffffffffffffffffffffffffffffffffffff1614806116e457506000809054906101000a900473ffffffffffffffffffffffffffffffffffffffff1673ffffffffffffffffffffffffffffffffffffffff163373ffffffffffffffffffffffffffffffffffffffff16145b8061173c5750600160009054906101000a900473ffffffffffffffffffffffffffffffffffffffff1673ffffffffffffffffffffffffffffffffffffffff163373ffffffffffffffffffffffffffffffffffffffff16145b151561174757600080fd5b60036000600e8110151561175757fe5b600891828204019190066004029054906101000a900463ffffffff1663ffffffff168110151561178657600080fd5b8060058190555050565b600260149054906101000a900460ff1681565b60006007600083815260200190815260200160002060009054906101000a900473ffffffffffffffffffffffffffffffffffffffff169050600073ffffffffffffffffffffffffffffffffffffffff168173ffffffffffffffffffffffffffffffffffffffff161415151561181757600080fd5b919050565b6000600860008373ffffffffffffffffffffffffffffffffffffffff1673ffffffffffffffffffffffffffffffffffffffff168152602001908152602001600020549050919050565b60055481565b600260009054906101000a900473ffffffffffffffffffffffffffffffffffffffff1673ffffffffffffffffffffffffffffffffffffffff163373ffffffffffffffffffffffffffffffffffffffff16148061191357506000809054906101000a900473ffffffffffffffffffffffffffffffffffffffff1673ffffffffffffffffffffffffffffffffffffffff163373ffffffffffffffffffffffffffffffffffffffff16145b8061196b5750600160009054906101000a900473ffffffffffffffffffffffffffffffffffffffff1673ffffffffffffffffffffffffffffffffffffffff163373ffffffffffffffffffffffffffffffffffffffff16145b151561197657600080fd5b600260149054906101000a900460ff1615151561199257600080fd5b6001600260146101000a81548160ff021916908315150217905550565b60606000606060008060006119c38761181c565b94506000851415611a065760006040519080825280602002602001820160405280156119fe5781602001602082028038833980820191505090505b509550611af2565b84604051908082528060200260200182016040528015611a355781602001602082028038833980820191505090505b509350611a406111b0565b925060009150600190505b8281111515611aee578673ffffffffffffffffffffffffffffffffffffffff166007600083815260200190815260200160002060009054906101000a900473ffffffffffffffffffffffffffffffffffffffff1673ffffffffffffffffffffffffffffffffffffffff161415611ae157808483815181101515611aca57fe5b906020019060200201818152505081806001019250505b8080600101915050611a4b565b8395505b5050505050919050565b6040805190810160405280600281526020017f434b00000000000000000000000000000000000000000000000000000000000081525081565b600381600e81101515611b4457fe5b60089182820401919006600402915054906101000a900463ffffffff1681565b60076020528060005260406000206000915054906101000a900473ffffffffffffffffffffffffffffffffffffffff1681565b600260149054906101000a900460ff16151515611bb357600080fd5b600073ffffffffffffffffffffffffffffffffffffffff168273ffffffffffffffffffffffffffffffffffffffff1614151515611bef57600080fd5b3073ffffffffffffffffffffffffffffffffffffffff168273ffffffffffffffffffffffffffffffffffffffff1614151515611c2a57600080fd5b600b60009054906101000a900473ffffffffffffffffffffffffffffffffffffffff1673ffffffffffffffffffffffffffffffffffffffff168273ffffffffffffffffffffffffffffffffffffffff1614151515611c8757600080fd5b600c60009054906101000a900473ffffffffffffffffffffffffffffffffffffffff1673ffffffffffffffffffffffffffffffffffffffff168273ffffffffffffffffffffffffffffffffffffffff1614151515611ce457600080fd5b611cee3382611e75565b1515611cf957600080fd5b611d04338383611fa3565b5050565b600260009054906101000a900473ffffffffffffffffffffffffffffffffffffffff1681565b600d60009054906101000a900473ffffffffffffffffffffffffffffffffffffffff1681565b6000809054906101000a900473ffffffffffffffffffffffffffffffffffffffff1673ffffffffffffffffffffffffffffffffffffffff163373ffffffffffffffffffffffffffffffffffffffff16141515611daf57600080fd5b80600d60006101000a81548173ffffffffffffffffffffffffffffffffffffffff021916908373ffffffffffffffffffffffffffffffffffffffff16021790555050565b600b60009054906101000a900473ffffffffffffffffffffffffffffffffffffffff1681565b606080600080846040519080825280601f01601f191660200182016040528015611e525781602001602082028038833980820191505090505b509250602083019150859050611e698282876121db565b82935050505092915050565b60008273ffffffffffffffffffffffffffffffffffffffff166007600084815260200190815260200160002060009054906101000a900473ffffffffffffffffffffffffffffffffffffffff1673ffffffffffffffffffffffffffffffffffffffff1614905092915050565b806009600084815260200190815260200160002060006101000a81548173ffffffffffffffffffffffffffffffffffffffff021916908373ffffffffffffffffffffffffffffffffffffffff1602179055505050565b60008273ffffffffffffffffffffffffffffffffffffffff166009600084815260200190815260200160002060009054906101000a900473ffffffffffffffffffffffffffffffffffffffff1673ffffffffffffffffffffffffffffffffffffffff1614905092915050565b600860008373ffffffffffffffffffffffffffffffffffffffff1673ffffffffffffffffffffffffffffffffffffffff16815260200190815260200160002060008154809291906001019190505550816007600083815260200190815260200160002060006101000a81548173ffffffffffffffffffffffffffffffffffffffff021916908373ffffffffffffffffffffffffffffffffffffffff160217905550600073ffffffffffffffffffffffffffffffffffffffff168373ffffffffffffffffffffffffffffffffffffffff1614151561213757600860008473ffffffffffffffffffffffffffffffffffffffff1673ffffffffffffffffffffffffffffffffffffffff1681526020019081526020016000206000815480929190600190039190505550600a600082815260200190815260200160002060006101000a81549073ffffffffffffffffffffffffffffffffffffffff02191690556009600082815260200190815260200160002060006101000a81549073ffffffffffffffffffffffffffffffffffffffff02191690555b7fddf252ad1be2c89b69c2b068fc378daa952ba7f163c4a11628f55a4df523b3ef838383604051808473ffffffffffffffffffffffffffffffffffffffff1673ffffffffffffffffffffffffffffffffffffffff1681526020018373ffffffffffffffffffffffffffffffffffffffff1673ffffffffffffffffffffffffffffffffffffffff168152602001828152602001935050505060405180910390a1505050565b60005b60208210151561220357825184526020840193506020830192506020820391506121de565b6001826020036101000a0390508019835116818551168181178652505050505050565b6080604051908101604052806004906020820280388339808201915050905050905600a165627a7a7230582068732716f549d717dc7ddc27faba020f7cb1b50c553815c7070c071f9f1893c50029",
  "source": "pragma solidity ^0.4.11;\n\nimport './KittyBase.sol';\nimport './ERC721.sol';\nimport './ERC721Metadata.sol';\n\n/// @title The facet of the CryptoKitties core contract that manages ownership, ERC-721 (draft) compliant.\n/// @author Axiom Zen (https://www.axiomzen.co)\n/// @dev Ref: https://github.com/ethereum/EIPs/issues/721\n///  See the KittyCore contract documentation to understand how the various contract facets are arranged.\ncontract KittyOwnership is KittyBase, ERC721 {\n\n\t/// @notice Name and symbol of the non fungible token, as defined in ERC721.\n\tstring public constant name = \"CryptoKitties\";\n\tstring public constant symbol = \"CK\";\n\n\t// The contract that will return kitty metadata\n\tERC721Metadata public erc721Metadata;\n\n\tbytes4 constant InterfaceSignature_ERC165 =\n\t\tbytes4(keccak256('supportsInterface(bytes4)'));\n\n\tbytes4 constant InterfaceSignature_ERC721 =\n\t\tbytes4(keccak256('name()')) ^\n\tbytes4(keccak256('symbol()')) ^\n\tbytes4(keccak256('totalSupply()')) ^\n\tbytes4(keccak256('balanceOf(address)')) ^\n\tbytes4(keccak256('ownerOf(uint256)')) ^\n\tbytes4(keccak256('approve(address,uint256)')) ^\n\tbytes4(keccak256('transfer(address,uint256)')) ^\n\tbytes4(keccak256('transferFrom(address,address,uint256)')) ^\n\tbytes4(keccak256('tokensOfOwner(address)')) ^\n\tbytes4(keccak256('tokenMetadata(uint256,string)'));\n\n\t/// @notice Introspection interface as per ERC-165 (https://github.com/ethereum/EIPs/issues/165).\n\t///  Returns true for any standardized interfaces implemented by this contract. We implement\n\t///  ERC-165 (obviously!) and ERC-721.\n\tfunction supportsInterface(bytes4 _interfaceID) external view returns (bool)\n\t{\n\t\t// DEBUG ONLY\n\t\t//require((InterfaceSignature_ERC165 == 0x01ffc9a7) && (InterfaceSignature_ERC721 == 0x9a20483d));\n\n\t\treturn ((_interfaceID == InterfaceSignature_ERC165) || (_interfaceID == InterfaceSignature_ERC721));\n\t}\n\n\t/// @dev Set the address of the sibling contract that tracks metadata.\n\t///  CEO only.\n\tfunction setMetadataAddress(address _contractAddress) public onlyCEO {\n\t\terc721Metadata = ERC721Metadata(_contractAddress);\n\t}\n\n\t// Internal utility functions: These functions all assume that their input arguments\n\t// are valid. We leave it to public methods to sanitize their inputs and follow\n\t// the required logic.\n\n\t/// @dev Checks if a given address is the current owner of a particular Kitty.\n\t/// @param _claimant the address we are validating against.\n\t/// @param _tokenId kitten id, only valid when > 0\n\tfunction _owns(address _claimant, uint256 _tokenId) internal view returns (bool) {\n\t\treturn kittyIndexToOwner[_tokenId] == _claimant;\n\t}\n\n\t/// @dev Checks if a given address currently has transferApproval for a particular Kitty.\n\t/// @param _claimant the address we are confirming kitten is approved for.\n\t/// @param _tokenId kitten id, only valid when > 0\n\tfunction _approvedFor(address _claimant, uint256 _tokenId) internal view returns (bool) {\n\t\treturn kittyIndexToApproved[_tokenId] == _claimant;\n\t}\n\n\t/// @dev Marks an address as being approved for transferFrom(), overwriting any previous\n\t///  approval. Setting _approved to address(0) clears all transfer approval.\n\t///  NOTE: _approve() does NOT send the Approval event. This is intentional because\n\t///  _approve() and transferFrom() are used together for putting Kitties on auction, and\n\t///  there is no value in spamming the log with Approval events in that case.\n\tfunction _approve(uint256 _tokenId, address _approved) internal {\n\t\tkittyIndexToApproved[_tokenId] = _approved;\n\t}\n\n\t/// @notice Returns the number of Kitties owned by a specific address.\n\t/// @param _owner The owner address to check.\n\t/// @dev Required for ERC-721 compliance\n\tfunction balanceOf(address _owner) public view returns (uint256 count) {\n\t\treturn ownershipTokenCount[_owner];\n\t}\n\n\t/// @notice Transfers a Kitty to another address. If transferring to a smart\n\t///  contract be VERY CAREFUL to ensure that it is aware of ERC-721 (or\n\t///  CryptoKitties specifically) or your Kitty may be lost forever. Seriously.\n\t/// @param _to The address of the recipient, can be a user or contract.\n\t/// @param _tokenId The ID of the Kitty to transfer.\n\t/// @dev Required for ERC-721 compliance.\n\tfunction transfer(\n\t\taddress _to,\n\t\tuint256 _tokenId\n\t)\n\texternal\n\twhenNotPaused\n\t{\n\t\t// Safety check to prevent against an unexpected 0x0 default.\n\t\trequire(_to != address(0));\n\t\t// Disallow transfers to this contract to prevent accidental misuse.\n\t\t// The contract should never own any kitties (except very briefly\n\t\t// after a gen0 cat is created and before it goes on auction).\n\t\trequire(_to != address(this));\n\t\t// Disallow transfers to the auction contracts to prevent accidental\n\t\t// misuse. Auction contracts should only take ownership of kitties\n\t\t// through the allow + transferFrom flow.\n\t\trequire(_to != address(saleAuction));\n\t\trequire(_to != address(siringAuction));\n\n\t\t// You can only send your own cat.\n\t\trequire(_owns(msg.sender, _tokenId));\n\n\t\t// Reassign ownership, clear pending approvals, emit Transfer event.\n\t\t_transfer(msg.sender, _to, _tokenId);\n\t}\n\n\t/// @notice Grant another address the right to transfer a specific Kitty via\n\t///  transferFrom(). This is the preferred flow for transfering NFTs to contracts.\n\t/// @param _to The address to be granted transfer approval. Pass address(0) to\n\t///  clear all approvals.\n\t/// @param _tokenId The ID of the Kitty that can be transferred if this call succeeds.\n\t/// @dev Required for ERC-721 compliance.\n\tfunction approve(\n\t\taddress _to,\n\t\tuint256 _tokenId\n\t)\n\texternal\n\twhenNotPaused\n\t{\n\t\t// Only an owner can grant transfer approval.\n\t\trequire(_owns(msg.sender, _tokenId));\n\n\t\t// Register the approval (replacing any previous approval).\n\t\t_approve(_tokenId, _to);\n\n\t\t// Emit approval event.\n\t\tApproval(msg.sender, _to, _tokenId);\n\t}\n\n\t/// @notice Transfer a Kitty owned by another address, for which the calling address\n\t///  has previously been granted transfer approval by the owner.\n\t/// @param _from The address that owns the Kitty to be transfered.\n\t/// @param _to The address that should take ownership of the Kitty. Can be any address,\n\t///  including the caller.\n\t/// @param _tokenId The ID of the Kitty to be transferred.\n\t/// @dev Required for ERC-721 compliance.\n\tfunction transferFrom(\n\t\taddress _from,\n\t\taddress _to,\n\t\tuint256 _tokenId\n\t)\n\texternal\n\twhenNotPaused\n\t{\n\t\t// Safety check to prevent against an unexpected 0x0 default.\n\t\trequire(_to != address(0));\n\t\t// Disallow transfers to this contract to prevent accidental misuse.\n\t\t// The contract should never own any kitties (except very briefly\n\t\t// after a gen0 cat is created and before it goes on auction).\n\t\trequire(_to != address(this));\n\t\t// Check for approval and valid ownership\n\t\trequire(_approvedFor(msg.sender, _tokenId));\n\t\trequire(_owns(_from, _tokenId));\n\n\t\t// Reassign ownership (also clears pending approvals and emits Transfer event).\n\t\t_transfer(_from, _to, _tokenId);\n\t}\n\n\t/// @notice Returns the total number of Kitties currently in existence.\n\t/// @dev Required for ERC-721 compliance.\n\tfunction totalSupply() public view returns (uint) {\n\t\treturn kitties.length - 1;\n\t}\n\n\t/// @notice Returns the address currently assigned ownership of a given Kitty.\n\t/// @dev Required for ERC-721 compliance.\n\tfunction ownerOf(uint256 _tokenId)\n\texternal\n\tview\n\treturns (address owner)\n\t{\n\t\towner = kittyIndexToOwner[_tokenId];\n\n\t\trequire(owner != address(0));\n\t}\n\n\t/// @notice Returns a list of all Kitty IDs assigned to an address.\n\t/// @param _owner The owner whose Kitties we are interested in.\n\t/// @dev This method MUST NEVER be called by smart contract code. First, it's fairly\n\t///  expensive (it walks the entire Kitty array looking for cats belonging to owner),\n\t///  but it also returns a dynamic array, which is only supported for web3 calls, and\n\t///  not contract-to-contract calls.\n\tfunction tokensOfOwner(address _owner) external view returns(uint256[] ownerTokens) {\n\t\tuint256 tokenCount = balanceOf(_owner);\n\n\t\tif (tokenCount == 0) {\n\t\t\t// Return an empty array\n\t\t\treturn new uint256[](0);\n\t\t} else {\n\t\t\tuint256[] memory result = new uint256[](tokenCount);\n\t\t\tuint256 totalCats = totalSupply();\n\t\t\tuint256 resultIndex = 0;\n\n\t\t\t// We count on the fact that all cats have IDs starting at 1 and increasing\n\t\t\t// sequentially up to the totalCat count.\n\t\t\tuint256 catId;\n\n\t\t\tfor (catId = 1; catId <= totalCats; catId++) {\n\t\t\t\tif (kittyIndexToOwner[catId] == _owner) {\n\t\t\t\t\tresult[resultIndex] = catId;\n\t\t\t\t\tresultIndex++;\n\t\t\t\t}\n\t\t\t}\n\n\t\t\treturn result;\n\t\t}\n\t}\n\n\t/// @dev Adapted from memcpy() by @arachnid (Nick Johnson <arachnid@notdot.net>)\n\t///  This method is licenced under the Apache License.\n\t///  Ref: https://github.com/Arachnid/solidity-stringutils/blob/2f6ca9accb48ae14c66f1437ec50ed19a0616f78/strings.sol\n\tfunction _memcpy(uint _dest, uint _src, uint _len) private view {\n\t\t// Copy word-length chunks while possible\n\t\tfor(; _len >= 32; _len -= 32) {\n\t\t\tassembly {\n\t\t\t\tmstore(_dest, mload(_src))\n\t\t\t}\n\t\t\t_dest += 32;\n\t\t\t_src += 32;\n\t\t}\n\n\t\t// Copy remaining bytes\n\t\tuint256 mask = 256 ** (32 - _len) - 1;\n\t\tassembly {\n\t\t\tlet srcpart := and(mload(_src), not(mask))\n\t\t\tlet destpart := and(mload(_dest), mask)\n\t\t\tmstore(_dest, or(destpart, srcpart))\n\t\t}\n\t}\n\n\t/// @dev Adapted from toString(slice) by @arachnid (Nick Johnson <arachnid@notdot.net>)\n\t///  This method is licenced under the Apache License.\n\t///  Ref: https://github.com/Arachnid/solidity-stringutils/blob/2f6ca9accb48ae14c66f1437ec50ed19a0616f78/strings.sol\n\tfunction _toString(bytes32[4] _rawBytes, uint256 _stringLength) private view returns (string) {\n\t\tvar outputString = new string(_stringLength);\n\t\tuint256 outputPtr;\n\t\tuint256 bytesPtr;\n\n\t\tassembly {\n\t\t\toutputPtr := add(outputString, 32)\n\t\t\tbytesPtr := _rawBytes\n\t\t}\n\n\t\t_memcpy(outputPtr, bytesPtr, _stringLength);\n\n\t\treturn outputString;\n\t}\n\n\t/// @notice Returns a URI pointing to a metadata package for this token conforming to\n\t///  ERC-721 (https://github.com/ethereum/EIPs/issues/721)\n\t/// @param _tokenId The ID number of the Kitty whose metadata should be returned.\n\tfunction tokenMetadata(uint256 _tokenId, string _preferredTransport) external view returns (string infoUrl) {\n\t\trequire(erc721Metadata != address(0));\n\t\tbytes32[4] memory buffer;\n\t\tuint256 count;\n\t\t(buffer, count) = erc721Metadata.getMetadata(_tokenId, _preferredTransport);\n\n\t\treturn _toString(buffer, count);\n\t}\n}\n",
  "sourcePath": "/Users/harrisonbeckerich/proj/vanimals/contracts/KittyOwnership.sol",
  "compiler": {
    "name": "solc",
    "version": "0.4.24+commit.e67f0147.Emscripten.clang"
  },
  "schemaVersion": "2.0.0",
  "updatedAt": "2018-07-05T21:18:37.542Z"
}