{
  "contractName": "KittyCore",
  "abi": [
    {
      "constant": true,
      "inputs": [
        {
          "name": "_interfaceID",
          "type": "bytes4"
        }
      ],
      "name": "supportsInterface",
      "outputs": [
        {
          "name": "",
          "type": "bool"
        }
      ],
      "payable": false,
      "stateMutability": "view",
      "type": "function"
    },
    {
      "constant": true,
      "inputs": [],
      "name": "cfoAddress",
      "outputs": [
        {
          "name": "",
          "type": "address"
        }
      ],
      "payable": false,
      "stateMutability": "view",
      "type": "function"
    },
    {
      "constant": true,
      "inputs": [
        {
          "name": "_tokenId",
          "type": "uint256"
        },
        {
          "name": "_preferredTransport",
          "type": "string"
        }
      ],
      "name": "tokenMetadata",
      "outputs": [
        {
          "name": "infoUrl",
          "type": "string"
        }
      ],
      "payable": false,
      "stateMutability": "view",
      "type": "function"
    },
    {
      "constant": true,
      "inputs": [],
      "name": "promoCreatedCount",
      "outputs": [
        {
          "name": "",
          "type": "uint256"
        }
      ],
      "payable": false,
      "stateMutability": "view",
      "type": "function"
    },
    {
      "constant": true,
      "inputs": [],
      "name": "name",
      "outputs": [
        {
          "name": "",
          "type": "string"
        }
      ],
      "payable": false,
      "stateMutability": "view",
      "type": "function"
    },
    {
      "constant": false,
      "inputs": [
        {
          "name": "_to",
          "type": "address"
        },
        {
          "name": "_tokenId",
          "type": "uint256"
        }
      ],
      "name": "approve",
      "outputs": [],
      "payable": false,
      "stateMutability": "nonpayable",
      "type": "function"
    },
    {
      "constant": true,
      "inputs": [],
      "name": "ceoAddress",
      "outputs": [
        {
          "name": "",
          "type": "address"
        }
      ],
      "payable": false,
      "stateMutability": "view",
      "type": "function"
    },
    {
      "constant": true,
      "inputs": [],
      "name": "GEN0_STARTING_PRICE",
      "outputs": [
        {
          "name": "",
          "type": "uint256"
        }
      ],
      "payable": false,
      "stateMutability": "view",
      "type": "function"
    },
    {
      "constant": false,
      "inputs": [
        {
          "name": "_address",
          "type": "address"
        }
      ],
      "name": "setSiringAuctionAddress",
      "outputs": [],
      "payable": false,
      "stateMutability": "nonpayable",
      "type": "function"
    },
    {
      "constant": true,
      "inputs": [],
      "name": "totalSupply",
      "outputs": [
        {
          "name": "",
          "type": "uint256"
        }
      ],
      "payable": false,
      "stateMutability": "view",
      "type": "function"
    },
    {
      "constant": true,
      "inputs": [],
      "name": "pregnantKitties",
      "outputs": [
        {
          "name": "",
          "type": "uint256"
        }
      ],
      "payable": false,
      "stateMutability": "view",
      "type": "function"
    },
    {
      "constant": true,
      "inputs": [
        {
          "name": "_kittyId",
          "type": "uint256"
        }
      ],
      "name": "isPregnant",
      "outputs": [
        {
          "name": "",
          "type": "bool"
        }
      ],
      "payable": false,
      "stateMutability": "view",
      "type": "function"
    },
    {
      "constant": true,
      "inputs": [],
      "name": "GEN0_AUCTION_DURATION",
      "outputs": [
        {
          "name": "",
          "type": "uint256"
        }
      ],
      "payable": false,
      "stateMutability": "view",
      "type": "function"
    },
    {
      "constant": true,
      "inputs": [],
      "name": "siringAuction",
      "outputs": [
        {
          "name": "",
          "type": "address"
        }
      ],
      "payable": false,
      "stateMutability": "view",
      "type": "function"
    },
    {
      "constant": false,
      "inputs": [
        {
          "name": "_from",
          "type": "address"
        },
        {
          "name": "_to",
          "type": "address"
        },
        {
          "name": "_tokenId",
          "type": "uint256"
        }
      ],
      "name": "transferFrom",
      "outputs": [],
      "payable": false,
      "stateMutability": "nonpayable",
      "type": "function"
    },
    {
      "constant": false,
      "inputs": [
        {
          "name": "_address",
          "type": "address"
        }
      ],
      "name": "setGeneScienceAddress",
      "outputs": [],
      "payable": false,
      "stateMutability": "nonpayable",
      "type": "function"
    },
    {
      "constant": false,
      "inputs": [
        {
          "name": "_newCEO",
          "type": "address"
        }
      ],
      "name": "setCEO",
      "outputs": [],
      "payable": false,
      "stateMutability": "nonpayable",
      "type": "function"
    },
    {
      "constant": false,
      "inputs": [
        {
          "name": "_newCOO",
          "type": "address"
        }
      ],
      "name": "setCOO",
      "outputs": [],
      "payable": false,
      "stateMutability": "nonpayable",
      "type": "function"
    },
    {
      "constant": false,
      "inputs": [
        {
          "name": "_kittyId",
          "type": "uint256"
        },
        {
          "name": "_startingPrice",
          "type": "uint256"
        },
        {
          "name": "_endingPrice",
          "type": "uint256"
        },
        {
          "name": "_duration",
          "type": "uint256"
        }
      ],
      "name": "createSaleAuction",
      "outputs": [],
      "payable": false,
      "stateMutability": "nonpayable",
      "type": "function"
    },
    {
      "constant": true,
      "inputs": [
        {
          "name": "",
          "type": "uint256"
        }
      ],
      "name": "sireAllowedToAddress",
      "outputs": [
        {
          "name": "",
          "type": "address"
        }
      ],
      "payable": false,
      "stateMutability": "view",
      "type": "function"
    },
    {
      "constant": true,
      "inputs": [
        {
          "name": "_matronId",
          "type": "uint256"
        },
        {
          "name": "_sireId",
          "type": "uint256"
        }
      ],
      "name": "canBreedWith",
      "outputs": [
        {
          "name": "",
          "type": "bool"
        }
      ],
      "payable": false,
      "stateMutability": "view",
      "type": "function"
    },
    {
      "constant": true,
      "inputs": [
        {
          "name": "",
          "type": "uint256"
        }
      ],
      "name": "kittyIndexToApproved",
      "outputs": [
        {
          "name": "",
          "type": "address"
        }
      ],
      "payable": false,
      "stateMutability": "view",
      "type": "function"
    },
    {
      "constant": false,
      "inputs": [
        {
          "name": "_kittyId",
          "type": "uint256"
        },
        {
          "name": "_startingPrice",
          "type": "uint256"
        },
        {
          "name": "_endingPrice",
          "type": "uint256"
        },
        {
          "name": "_duration",
          "type": "uint256"
        }
      ],
      "name": "createSiringAuction",
      "outputs": [],
      "payable": false,
      "stateMutability": "nonpayable",
      "type": "function"
    },
    {
      "constant": false,
      "inputs": [
        {
          "name": "val",
          "type": "uint256"
        }
      ],
      "name": "setAutoBirthFee",
      "outputs": [],
      "payable": false,
      "stateMutability": "nonpayable",
      "type": "function"
    },
    {
      "constant": false,
      "inputs": [
        {
          "name": "_addr",
          "type": "address"
        },
        {
          "name": "_sireId",
          "type": "uint256"
        }
      ],
      "name": "approveSiring",
      "outputs": [],
      "payable": false,
      "stateMutability": "nonpayable",
      "type": "function"
    },
    {
      "constant": false,
      "inputs": [
        {
          "name": "_newCFO",
          "type": "address"
        }
      ],
      "name": "setCFO",
      "outputs": [],
      "payable": false,
      "stateMutability": "nonpayable",
      "type": "function"
    },
    {
      "constant": false,
      "inputs": [
        {
          "name": "_genes",
          "type": "uint256"
        },
        {
          "name": "_owner",
          "type": "address"
        }
      ],
      "name": "createPromoKitty",
      "outputs": [],
      "payable": false,
      "stateMutability": "nonpayable",
      "type": "function"
    },
    {
      "constant": false,
      "inputs": [
        {
          "name": "secs",
          "type": "uint256"
        }
      ],
      "name": "setSecondsPerBlock",
      "outputs": [],
      "payable": false,
      "stateMutability": "nonpayable",
      "type": "function"
    },
    {
      "constant": true,
      "inputs": [],
      "name": "paused",
      "outputs": [
        {
          "name": "",
          "type": "bool"
        }
      ],
      "payable": false,
      "stateMutability": "view",
      "type": "function"
    },
    {
      "constant": true,
      "inputs": [
        {
          "name": "_tokenId",
          "type": "uint256"
        }
      ],
      "name": "ownerOf",
      "outputs": [
        {
          "name": "owner",
          "type": "address"
        }
      ],
      "payable": false,
      "stateMutability": "view",
      "type": "function"
    },
    {
      "constant": true,
      "inputs": [],
      "name": "GEN0_CREATION_LIMIT",
      "outputs": [
        {
          "name": "",
          "type": "uint256"
        }
      ],
      "payable": false,
      "stateMutability": "view",
      "type": "function"
    },
    {
      "constant": true,
      "inputs": [],
      "name": "newContractAddress",
      "outputs": [
        {
          "name": "",
          "type": "address"
        }
      ],
      "payable": false,
      "stateMutability": "view",
      "type": "function"
    },
    {
      "constant": false,
      "inputs": [
        {
          "name": "_address",
          "type": "address"
        }
      ],
      "name": "setSaleAuctionAddress",
      "outputs": [],
      "payable": false,
      "stateMutability": "nonpayable",
      "type": "function"
    },
    {
      "constant": true,
      "inputs": [
        {
          "name": "_owner",
          "type": "address"
        }
      ],
      "name": "balanceOf",
      "outputs": [
        {
          "name": "count",
          "type": "uint256"
        }
      ],
      "payable": false,
      "stateMutability": "view",
      "type": "function"
    },
    {
      "constant": true,
      "inputs": [],
      "name": "secondsPerBlock",
      "outputs": [
        {
          "name": "",
          "type": "uint256"
        }
      ],
      "payable": false,
      "stateMutability": "view",
      "type": "function"
    },
    {
      "constant": false,
      "inputs": [],
      "name": "pause",
      "outputs": [],
      "payable": false,
      "stateMutability": "nonpayable",
      "type": "function"
    },
    {
      "constant": true,
      "inputs": [
        {
          "name": "_owner",
          "type": "address"
        }
      ],
      "name": "tokensOfOwner",
      "outputs": [
        {
          "name": "ownerTokens",
          "type": "uint256[]"
        }
      ],
      "payable": false,
      "stateMutability": "view",
      "type": "function"
    },
    {
      "constant": false,
      "inputs": [
        {
          "name": "_matronId",
          "type": "uint256"
        }
      ],
      "name": "giveBirth",
      "outputs": [
        {
          "name": "",
          "type": "uint256"
        }
      ],
      "payable": false,
      "stateMutability": "nonpayable",
      "type": "function"
    },
    {
      "constant": false,
      "inputs": [],
      "name": "withdrawAuctionBalances",
      "outputs": [],
      "payable": false,
      "stateMutability": "nonpayable",
      "type": "function"
    },
    {
      "constant": true,
      "inputs": [],
      "name": "symbol",
      "outputs": [
        {
          "name": "",
          "type": "string"
        }
      ],
      "payable": false,
      "stateMutability": "view",
      "type": "function"
    },
    {
      "constant": true,
      "inputs": [
        {
          "name": "",
          "type": "uint256"
        }
      ],
      "name": "cooldowns",
      "outputs": [
        {
          "name": "",
          "type": "uint32"
        }
      ],
      "payable": false,
      "stateMutability": "view",
      "type": "function"
    },
    {
      "constant": true,
      "inputs": [
        {
          "name": "",
          "type": "uint256"
        }
      ],
      "name": "kittyIndexToOwner",
      "outputs": [
        {
          "name": "",
          "type": "address"
        }
      ],
      "payable": false,
      "stateMutability": "view",
      "type": "function"
    },
    {
      "constant": false,
      "inputs": [
        {
          "name": "_to",
          "type": "address"
        },
        {
          "name": "_tokenId",
          "type": "uint256"
        }
      ],
      "name": "transfer",
      "outputs": [],
      "payable": false,
      "stateMutability": "nonpayable",
      "type": "function"
    },
    {
      "constant": true,
      "inputs": [],
      "name": "cooAddress",
      "outputs": [
        {
          "name": "",
          "type": "address"
        }
      ],
      "payable": false,
      "stateMutability": "view",
      "type": "function"
    },
    {
      "constant": true,
      "inputs": [],
      "name": "autoBirthFee",
      "outputs": [
        {
          "name": "",
          "type": "uint256"
        }
      ],
      "payable": false,
      "stateMutability": "view",
      "type": "function"
    },
    {
      "constant": true,
      "inputs": [],
      "name": "erc721Metadata",
      "outputs": [
        {
          "name": "",
          "type": "address"
        }
      ],
      "payable": false,
      "stateMutability": "view",
      "type": "function"
    },
    {
      "constant": false,
      "inputs": [
        {
          "name": "_genes",
          "type": "uint256"
        }
      ],
      "name": "createGen0Auction",
      "outputs": [],
      "payable": false,
      "stateMutability": "nonpayable",
      "type": "function"
    },
    {
      "constant": true,
      "inputs": [
        {
          "name": "_kittyId",
          "type": "uint256"
        }
      ],
      "name": "isReadyToBreed",
      "outputs": [
        {
          "name": "",
          "type": "bool"
        }
      ],
      "payable": false,
      "stateMutability": "view",
      "type": "function"
    },
    {
      "constant": true,
      "inputs": [],
      "name": "PROMO_CREATION_LIMIT",
      "outputs": [
        {
          "name": "",
          "type": "uint256"
        }
      ],
      "payable": false,
      "stateMutability": "view",
      "type": "function"
    },
    {
      "constant": false,
      "inputs": [
        {
          "name": "_contractAddress",
          "type": "address"
        }
      ],
      "name": "setMetadataAddress",
      "outputs": [],
      "payable": false,
      "stateMutability": "nonpayable",
      "type": "function"
    },
    {
      "constant": true,
      "inputs": [],
      "name": "saleAuction",
      "outputs": [
        {
          "name": "",
          "type": "address"
        }
      ],
      "payable": false,
      "stateMutability": "view",
      "type": "function"
    },
    {
      "constant": false,
      "inputs": [
        {
          "name": "_sireId",
          "type": "uint256"
        },
        {
          "name": "_matronId",
          "type": "uint256"
        }
      ],
      "name": "bidOnSiringAuction",
      "outputs": [],
      "payable": true,
      "stateMutability": "payable",
      "type": "function"
    },
    {
      "constant": true,
      "inputs": [],
      "name": "gen0CreatedCount",
      "outputs": [
        {
          "name": "",
          "type": "uint256"
        }
      ],
      "payable": false,
      "stateMutability": "view",
      "type": "function"
    },
    {
      "constant": true,
      "inputs": [],
      "name": "geneScience",
      "outputs": [
        {
          "name": "",
          "type": "address"
        }
      ],
      "payable": false,
      "stateMutability": "view",
      "type": "function"
    },
    {
      "constant": false,
      "inputs": [
        {
          "name": "_matronId",
          "type": "uint256"
        },
        {
          "name": "_sireId",
          "type": "uint256"
        }
      ],
      "name": "breedWithAuto",
      "outputs": [],
      "payable": true,
      "stateMutability": "payable",
      "type": "function"
    },
    {
      "inputs": [],
      "payable": false,
      "stateMutability": "nonpayable",
      "type": "constructor"
    },
    {
      "payable": true,
      "stateMutability": "payable",
      "type": "fallback"
    },
    {
      "anonymous": false,
      "inputs": [
        {
          "indexed": false,
          "name": "owner",
          "type": "address"
        },
        {
          "indexed": false,
          "name": "matronId",
          "type": "uint256"
        },
        {
          "indexed": false,
          "name": "sireId",
          "type": "uint256"
        },
        {
          "indexed": false,
          "name": "cooldownEndBlock",
          "type": "uint256"
        }
      ],
      "name": "Pregnant",
      "type": "event"
    },
    {
      "anonymous": false,
      "inputs": [
        {
          "indexed": false,
          "name": "from",
          "type": "address"
        },
        {
          "indexed": false,
          "name": "to",
          "type": "address"
        },
        {
          "indexed": false,
          "name": "tokenId",
          "type": "uint256"
        }
      ],
      "name": "Transfer",
      "type": "event"
    },
    {
      "anonymous": false,
      "inputs": [
        {
          "indexed": false,
          "name": "owner",
          "type": "address"
        },
        {
          "indexed": false,
          "name": "approved",
          "type": "address"
        },
        {
          "indexed": false,
          "name": "tokenId",
          "type": "uint256"
        }
      ],
      "name": "Approval",
      "type": "event"
    },
    {
      "anonymous": false,
      "inputs": [
        {
          "indexed": false,
          "name": "owner",
          "type": "address"
        },
        {
          "indexed": false,
          "name": "kittyId",
          "type": "uint256"
        },
        {
          "indexed": false,
          "name": "matronId",
          "type": "uint256"
        },
        {
          "indexed": false,
          "name": "sireId",
          "type": "uint256"
        },
        {
          "indexed": false,
          "name": "genes",
          "type": "uint256"
        }
      ],
      "name": "Birth",
      "type": "event"
    },
    {
      "anonymous": false,
      "inputs": [
        {
          "indexed": false,
          "name": "newContract",
          "type": "address"
        }
      ],
      "name": "ContractUpgrade",
      "type": "event"
    },
    {
      "constant": false,
      "inputs": [
        {
          "name": "_v2Address",
          "type": "address"
        }
      ],
      "name": "setNewAddress",
      "outputs": [],
      "payable": false,
      "stateMutability": "nonpayable",
      "type": "function"
    },
    {
      "constant": true,
      "inputs": [
        {
          "name": "_id",
          "type": "uint256"
        }
      ],
      "name": "getKitty",
      "outputs": [
        {
          "name": "isGestating",
          "type": "bool"
        },
        {
          "name": "isReady",
          "type": "bool"
        },
        {
          "name": "cooldownIndex",
          "type": "uint256"
        },
        {
          "name": "nextActionAt",
          "type": "uint256"
        },
        {
          "name": "siringWithId",
          "type": "uint256"
        },
        {
          "name": "birthTime",
          "type": "uint256"
        },
        {
          "name": "matronId",
          "type": "uint256"
        },
        {
          "name": "sireId",
          "type": "uint256"
        },
        {
          "name": "generation",
          "type": "uint256"
        },
        {
          "name": "genes",
          "type": "uint256"
        }
      ],
      "payable": false,
      "stateMutability": "view",
      "type": "function"
    },
    {
      "constant": false,
      "inputs": [],
      "name": "unpause",
      "outputs": [],
      "payable": false,
      "stateMutability": "nonpayable",
      "type": "function"
    },
    {
      "constant": false,
      "inputs": [],
      "name": "withdrawBalance",
      "outputs": [],
      "payable": false,
      "stateMutability": "nonpayable",
      "type": "function"
    }
  ],
  "bytecode": "0x60806040526000600260146101000a81548160ff0219169083151502179055506101c060405190810160405280603c63ffffffff1663ffffffff168152602001607863ffffffff1663ffffffff16815260200161012c63ffffffff1663ffffffff16815260200161025863ffffffff1663ffffffff16815260200161070863ffffffff1663ffffffff168152602001610e1063ffffffff1663ffffffff168152602001611c2063ffffffff1663ffffffff16815260200161384063ffffffff1663ffffffff16815260200161708063ffffffff1663ffffffff16815260200161e10063ffffffff1663ffffffff1681526020016201518063ffffffff1663ffffffff1681526020016202a30063ffffffff1663ffffffff1681526020016205460063ffffffff1663ffffffff16815260200162093a8063ffffffff1663ffffffff16815250600390600e62000156929190620007a2565b50600f60055566071afd498d0000600e553480156200017457600080fd5b506001600260146101000a81548160ff021916908315150217905550336000806101000a81548173ffffffffffffffffffffffffffffffffffffffff021916908373ffffffffffffffffffffffffffffffffffffffff16021790555033600260006101000a81548173ffffffffffffffffffffffffffffffffffffffff021916908373ffffffffffffffffffffffffffffffffffffffff1602179055506200025260008060007fffffffffffffffffffffffffffffffffffffffffffffffffffffffffffffffff600062000259640100000000026401000000009004565b50620008f6565b600080620002666200084c565b60008863ffffffff16891415156200027d57600080fd5b8763ffffffff16881415156200029257600080fd5b8661ffff1687141515620002a557600080fd5b600287811515620002b257fe5b049250600d8361ffff161115620002c857600d92505b610100604051908101604052808781526020014267ffffffffffffffff168152602001600067ffffffffffffffff1681526020018a63ffffffff1681526020018963ffffffff168152602001600063ffffffff1681526020018461ffff1681526020018861ffff1681525091506001600683908060018154018082558091505090600182039060005260206000209060020201600090919290919091506000820151816000015560208201518160010160006101000a81548167ffffffffffffffff021916908367ffffffffffffffff16021790555060408201518160010160086101000a81548167ffffffffffffffff021916908367ffffffffffffffff16021790555060608201518160010160106101000a81548163ffffffff021916908363ffffffff16021790555060808201518160010160146101000a81548163ffffffff021916908363ffffffff16021790555060a08201518160010160186101000a81548163ffffffff021916908363ffffffff16021790555060c082015181600101601c6101000a81548161ffff021916908361ffff16021790555060e082015181600101601e6101000a81548161ffff021916908361ffff16021790555050500390508063ffffffff1681141515620004a257600080fd5b7f0a5311bd2a6608f08a180df2ee7c5946819a649b204b554bb8e39825b2c50ad58582846060015163ffffffff16856080015163ffffffff168660000151604051808673ffffffffffffffffffffffffffffffffffffffff1673ffffffffffffffffffffffffffffffffffffffff1681526020018581526020018481526020018381526020018281526020019550505050505060405180910390a16200055a6000868362000569640100000000026401000000009004565b80935050505095945050505050565b600860008373ffffffffffffffffffffffffffffffffffffffff1673ffffffffffffffffffffffffffffffffffffffff16815260200190815260200160002060008154809291906001019190505550816007600083815260200190815260200160002060006101000a81548173ffffffffffffffffffffffffffffffffffffffff021916908373ffffffffffffffffffffffffffffffffffffffff160217905550600073ffffffffffffffffffffffffffffffffffffffff168373ffffffffffffffffffffffffffffffffffffffff16141515620006fe57600860008473ffffffffffffffffffffffffffffffffffffffff1673ffffffffffffffffffffffffffffffffffffffff1681526020019081526020016000206000815480929190600190039190505550600a600082815260200190815260200160002060006101000a81549073ffffffffffffffffffffffffffffffffffffffff02191690556009600082815260200190815260200160002060006101000a81549073ffffffffffffffffffffffffffffffffffffffff02191690555b7fddf252ad1be2c89b69c2b068fc378daa952ba7f163c4a11628f55a4df523b3ef838383604051808473ffffffffffffffffffffffffffffffffffffffff1673ffffffffffffffffffffffffffffffffffffffff1681526020018373ffffffffffffffffffffffffffffffffffffffff1673ffffffffffffffffffffffffffffffffffffffff168152602001828152602001935050505060405180910390a1505050565b82600e600701600890048101928215620008395791602002820160005b838211156200080557835183826101000a81548163ffffffff021916908363ffffffff1602179055509260200192600401602081600301049283019260010302620007bf565b8015620008375782816101000a81549063ffffffff021916905560040160208160030104928301926001030262000805565b505b509050620008489190620008c0565b5090565b6101006040519081016040528060008152602001600067ffffffffffffffff168152602001600067ffffffffffffffff168152602001600063ffffffff168152602001600063ffffffff168152602001600063ffffffff168152602001600061ffff168152602001600061ffff1681525090565b620008f391905b80821115620008ef57600081816101000a81549063ffffffff021916905550600101620008c7565b5090565b90565b6154b380620009066000396000f3006080604052600436106102bf576000357c0100000000000000000000000000000000000000000000000000000000900463ffffffff16806301ffc9a7146103755780630519ce79146103d95780630560ff441461043057806305e45546146104ee57806306fdde0314610519578063095ea7b3146105a95780630a0f8168146105f65780630e583df01461064d57806314001f4c1461067857806318160ddd146106bb578063183a7947146106e65780631940a9361461071157806319c2f2011461075657806321717ebf1461078157806323b872dd146107d857806324e7a38a1461084557806327d7874c146108885780632ba73c15146108cb5780633d7d3f5a1461090e5780633f4ba83a1461095957806346116e6f1461097057806346d22c70146109dd578063481af3d314610a2c5780634ad8c93814610a995780634b85fd5514610ae45780634dfff04f14610b115780634e0a337914610b5e5780635612913414610ba15780635663896e14610bee5780635c975abb14610c1b5780635fd8c71014610c4a5780636352211e14610c61578063680eba2714610cce5780636af04a5714610cf95780636fbde40d14610d5057806370a0823114610d935780637158798814610dea5780637a7d493714610e2d5780638456cb5914610e585780638462151c14610e6f57806388c2a0bf14610f0757806391876e5714610f4857806395d89b4114610f5f5780639d6fac6f14610fef578063a45f4bfc1461103c578063a9059cbb146110a9578063b047fb50146110f6578063b0c35c051461114d578063bc4006f514611178578063c3bea9af146111cf578063d3e6f49f146111fc578063defb958414611241578063e17b25af1461126c578063e6cbe351146112af578063e98b7f4d14611306578063ed60ade61461138e578063f1ca9410146113b8578063f2b47d52146113e3578063f7d8c8831461143a575b600b60009054906101000a900473ffffffffffffffffffffffffffffffffffffffff1673ffffffffffffffffffffffffffffffffffffffff163373ffffffffffffffffffffffffffffffffffffffff1614806103685750600c60009054906101000a900473ffffffffffffffffffffffffffffffffffffffff1673ffffffffffffffffffffffffffffffffffffffff163373ffffffffffffffffffffffffffffffffffffffff16145b151561037357600080fd5b005b34801561038157600080fd5b506103bf60048036038101908080357bffffffffffffffffffffffffffffffffffffffffffffffffffffffff19169060200190929190505050611464565b604051808215151515815260200191505060405180910390f35b3480156103e557600080fd5b506103ee611775565b604051808273ffffffffffffffffffffffffffffffffffffffff1673ffffffffffffffffffffffffffffffffffffffff16815260200191505060405180910390f35b34801561043c57600080fd5b506104736004803603810190808035906020019092919080359060200190820180359060200191909192939192939050505061179b565b6040518080602001828103825283818151815260200191508051906020019080838360005b838110156104b3578082015181840152602081019050610498565b50505050905090810190601f1680156104e05780820380516001836020036101000a031916815260200191505b509250505060405180910390f35b3480156104fa57600080fd5b50610503611924565b6040518082815260200191505060405180910390f35b34801561052557600080fd5b5061052e61192a565b6040518080602001828103825283818151815260200191508051906020019080838360005b8381101561056e578082015181840152602081019050610553565b50505050905090810190601f16801561059b5780820380516001836020036101000a031916815260200191505b509250505060405180910390f35b3480156105b557600080fd5b506105f4600480360381019080803573ffffffffffffffffffffffffffffffffffffffff16906020019092919080359060200190929190505050611963565b005b34801561060257600080fd5b5061060b611a41565b604051808273ffffffffffffffffffffffffffffffffffffffff1673ffffffffffffffffffffffffffffffffffffffff16815260200191505060405180910390f35b34801561065957600080fd5b50610662611a66565b6040518082815260200191505060405180910390f35b34801561068457600080fd5b506106b9600480360381019080803573ffffffffffffffffffffffffffffffffffffffff169060200190929190505050611a71565b005b3480156106c757600080fd5b506106d0611bc0565b6040518082815260200191505060405180910390f35b3480156106f257600080fd5b506106fb611bd0565b6040518082815260200191505060405180910390f35b34801561071d57600080fd5b5061073c60048036038101908080359060200190929190505050611bd6565b604051808215151515815260200191505060405180910390f35b34801561076257600080fd5b5061076b611c28565b6040518082815260200191505060405180910390f35b34801561078d57600080fd5b50610796611c2f565b604051808273ffffffffffffffffffffffffffffffffffffffff1673ffffffffffffffffffffffffffffffffffffffff16815260200191505060405180910390f35b3480156107e457600080fd5b50610843600480360381019080803573ffffffffffffffffffffffffffffffffffffffff169060200190929190803573ffffffffffffffffffffffffffffffffffffffff16906020019092919080359060200190929190505050611c55565b005b34801561085157600080fd5b50610886600480360381019080803573ffffffffffffffffffffffffffffffffffffffff169060200190929190505050611d22565b005b34801561089457600080fd5b506108c9600480360381019080803573ffffffffffffffffffffffffffffffffffffffff169060200190929190505050611e71565b005b3480156108d757600080fd5b5061090c600480360381019080803573ffffffffffffffffffffffffffffffffffffffff169060200190929190505050611f4b565b005b34801561091a57600080fd5b5061095760048036038101908080359060200190929190803590602001909291908035906020019092919080359060200190929190505050612026565b005b34801561096557600080fd5b5061096e612193565b005b34801561097c57600080fd5b5061099b6004803603810190808035906020019092919050505061238a565b604051808273ffffffffffffffffffffffffffffffffffffffff1673ffffffffffffffffffffffffffffffffffffffff16815260200191505060405180910390f35b3480156109e957600080fd5b50610a1260048036038101908080359060200190929190803590602001909291905050506123bd565b604051808215151515815260200191505060405180910390f35b348015610a3857600080fd5b50610a5760048036038101908080359060200190929190505050612445565b604051808273ffffffffffffffffffffffffffffffffffffffff1673ffffffffffffffffffffffffffffffffffffffff16815260200191505060405180910390f35b348015610aa557600080fd5b50610ae260048036038101908080359060200190929190803590602001909291908035906020019092919080359060200190929190505050612478565b005b348015610af057600080fd5b50610b0f600480360381019080803590602001909291905050506125e4565b005b348015610b1d57600080fd5b50610b5c600480360381019080803573ffffffffffffffffffffffffffffffffffffffff1690602001909291908035906020019092919050505061264a565b005b348015610b6a57600080fd5b50610b9f600480360381019080803573ffffffffffffffffffffffffffffffffffffffff1690602001909291905050506126d1565b005b348015610bad57600080fd5b50610bec60048036038101908080359060200190929190803573ffffffffffffffffffffffffffffffffffffffff1690602001909291905050506127ac565b005b348015610bfa57600080fd5b50610c19600480360381019080803590602001909291905050506128a6565b005b348015610c2757600080fd5b50610c306129fa565b604051808215151515815260200191505060405180910390f35b348015610c5657600080fd5b50610c5f612a0d565b005b348015610c6d57600080fd5b50610c8c60048036038101908080359060200190929190505050612af9565b604051808273ffffffffffffffffffffffffffffffffffffffff1673ffffffffffffffffffffffffffffffffffffffff16815260200191505060405180910390f35b348015610cda57600080fd5b50610ce3612b72565b6040518082815260200191505060405180910390f35b348015610d0557600080fd5b50610d0e612b7d565b604051808273ffffffffffffffffffffffffffffffffffffffff1673ffffffffffffffffffffffffffffffffffffffff16815260200191505060405180910390f35b348015610d5c57600080fd5b50610d91600480360381019080803573ffffffffffffffffffffffffffffffffffffffff169060200190929190505050612ba3565b005b348015610d9f57600080fd5b50610dd4600480360381019080803573ffffffffffffffffffffffffffffffffffffffff169060200190929190505050612cf2565b6040518082815260200191505060405180910390f35b348015610df657600080fd5b50610e2b600480360381019080803573ffffffffffffffffffffffffffffffffffffffff169060200190929190505050612d3b565b005b348015610e3957600080fd5b50610e42612e58565b6040518082815260200191505060405180910390f35b348015610e6457600080fd5b50610e6d612e5e565b005b348015610e7b57600080fd5b50610eb0600480360381019080803573ffffffffffffffffffffffffffffffffffffffff169060200190929190505050612fa2565b6040518080602001828103825283818151815260200191508051906020019060200280838360005b83811015610ef3578082015181840152602081019050610ed8565b505050509050019250505060405180910390f35b348015610f1357600080fd5b50610f32600480360381019080803590602001909291905050506130ef565b6040518082815260200191505060405180910390f35b348015610f5457600080fd5b50610f5d613526565b005b348015610f6b57600080fd5b50610f7461376f565b6040518080602001828103825283818151815260200191508051906020019080838360005b83811015610fb4578082015181840152602081019050610f99565b50505050905090810190601f168015610fe15780820380516001836020036101000a031916815260200191505b509250505060405180910390f35b348015610ffb57600080fd5b5061101a600480360381019080803590602001909291905050506137a8565b604051808263ffffffff1663ffffffff16815260200191505060405180910390f35b34801561104857600080fd5b50611067600480360381019080803590602001909291905050506137d7565b604051808273ffffffffffffffffffffffffffffffffffffffff1673ffffffffffffffffffffffffffffffffffffffff16815260200191505060405180910390f35b3480156110b557600080fd5b506110f4600480360381019080803573ffffffffffffffffffffffffffffffffffffffff1690602001909291908035906020019092919050505061380a565b005b34801561110257600080fd5b5061110b61397b565b604051808273ffffffffffffffffffffffffffffffffffffffff1673ffffffffffffffffffffffffffffffffffffffff16815260200191505060405180910390f35b34801561115957600080fd5b506111626139a1565b6040518082815260200191505060405180910390f35b34801561118457600080fd5b5061118d6139a7565b604051808273ffffffffffffffffffffffffffffffffffffffff1673ffffffffffffffffffffffffffffffffffffffff16815260200191505060405180910390f35b3480156111db57600080fd5b506111fa600480360381019080803590602001909291905050506139cd565b005b34801561120857600080fd5b5061122760048036038101908080359060200190929190505050613b95565b604051808215151515815260200191505060405180910390f35b34801561124d57600080fd5b50611256613d04565b6040518082815260200191505060405180910390f35b34801561127857600080fd5b506112ad600480360381019080803573ffffffffffffffffffffffffffffffffffffffff169060200190929190505050613d0f565b005b3480156112bb57600080fd5b506112c4613dae565b604051808273ffffffffffffffffffffffffffffffffffffffff1673ffffffffffffffffffffffffffffffffffffffff16815260200191505060405180910390f35b34801561131257600080fd5b5061133160048036038101908080359060200190929190505050613dd4565b604051808b1515151581526020018a1515151581526020018981526020018881526020018781526020018681526020018581526020018481526020018381526020018281526020019a505050505050505050505060405180910390f35b6113b66004803603810190808035906020019092919080359060200190929190505050613f35565b005b3480156113c457600080fd5b506113cd61413b565b6040518082815260200191505060405180910390f35b3480156113ef57600080fd5b506113f8614141565b604051808273ffffffffffffffffffffffffffffffffffffffff1673ffffffffffffffffffffffffffffffffffffffff16815260200191505060405180910390f35b6114626004803603810190808035906020019092919080359060200190929190505050614167565b005b600060405180807f737570706f727473496e74657266616365286279746573342900000000000000815250601901905060405180910390207bffffffffffffffffffffffffffffffffffffffffffffffffffffffff1916827bffffffffffffffffffffffffffffffffffffffffffffffffffffffff1916148061176e575060405180807f746f6b656e4d657461646174612875696e743235362c737472696e6729000000815250601d019050604051809103902060405180807f746f6b656e734f664f776e6572286164647265737329000000000000000000008152506016019050604051809103902060405180807f7472616e7366657246726f6d28616464726573732c616464726573732c75696e81526020017f74323536290000000000000000000000000000000000000000000000000000008152506025019050604051809103902060405180807f7472616e7366657228616464726573732c75696e7432353629000000000000008152506019019050604051809103902060405180807f617070726f766528616464726573732c75696e743235362900000000000000008152506018019050604051809103902060405180807f6f776e65724f662875696e7432353629000000000000000000000000000000008152506010019050604051809103902060405180807f62616c616e63654f6628616464726573732900000000000000000000000000008152506012019050604051809103902060405180807f746f74616c537570706c79282900000000000000000000000000000000000000815250600d019050604051809103902060405180807f73796d626f6c28290000000000000000000000000000000000000000000000008152506008019050604051809103902060405180807f6e616d6528290000000000000000000000000000000000000000000000000000815250600601905060405180910390201818181818181818187bffffffffffffffffffffffffffffffffffffffffffffffffffffffff1916827bffffffffffffffffffffffffffffffffffffffffffffffffffffffff1916145b9050919050565b600160009054906101000a900473ffffffffffffffffffffffffffffffffffffffff1681565b60606117a56153f0565b60008073ffffffffffffffffffffffffffffffffffffffff16600d60009054906101000a900473ffffffffffffffffffffffffffffffffffffffff1673ffffffffffffffffffffffffffffffffffffffff161415151561180457600080fd5b600d60009054906101000a900473ffffffffffffffffffffffffffffffffffffffff1673ffffffffffffffffffffffffffffffffffffffff1663cb4799f28787876040518463ffffffff167c010000000000000000000000000000000000000000000000000000000002815260040180848152602001806020018281038252848482818152602001925080828437820191505094505050505060a060405180830381600087803b1580156118b757600080fd5b505af11580156118cb573d6000803e3d6000fd5b505050506040513d601f19601f8201168201806040525060a08110156118f057600080fd5b8101908091908260800180519060200190929190505050809250819350505061191982826144a8565b925050509392505050565b60115481565b6040805190810160405280600d81526020017f43727970746f4b6974746965730000000000000000000000000000000000000081525081565b600260149054906101000a900460ff1615151561197f57600080fd5b6119893382614504565b151561199457600080fd5b61199e8183614570565b7f8c5be1e5ebec7d5bd14f71427d1e84f3dd0314c0f7b2291e5b200ac8c7c3b925338383604051808473ffffffffffffffffffffffffffffffffffffffff1673ffffffffffffffffffffffffffffffffffffffff1681526020018373ffffffffffffffffffffffffffffffffffffffff1673ffffffffffffffffffffffffffffffffffffffff168152602001828152602001935050505060405180910390a15050565b6000809054906101000a900473ffffffffffffffffffffffffffffffffffffffff1681565b662386f26fc1000081565b60008060009054906101000a900473ffffffffffffffffffffffffffffffffffffffff1673ffffffffffffffffffffffffffffffffffffffff163373ffffffffffffffffffffffffffffffffffffffff16141515611ace57600080fd5b8190508073ffffffffffffffffffffffffffffffffffffffff166376190f8f6040518163ffffffff167c0100000000000000000000000000000000000000000000000000000000028152600401602060405180830381600087803b158015611b3557600080fd5b505af1158015611b49573d6000803e3d6000fd5b505050506040513d6020811015611b5f57600080fd5b81019080805190602001909291905050501515611b7b57600080fd5b80600c60006101000a81548173ffffffffffffffffffffffffffffffffffffffff021916908373ffffffffffffffffffffffffffffffffffffffff1602179055505050565b6000600160068054905003905090565b600f5481565b60008082111515611be657600080fd5b6000600683815481101515611bf757fe5b906000526020600020906002020160010160189054906101000a900463ffffffff1663ffffffff1614159050919050565b6201518081565b600c60009054906101000a900473ffffffffffffffffffffffffffffffffffffffff1681565b600260149054906101000a900460ff16151515611c7157600080fd5b600073ffffffffffffffffffffffffffffffffffffffff168273ffffffffffffffffffffffffffffffffffffffff1614151515611cad57600080fd5b3073ffffffffffffffffffffffffffffffffffffffff168273ffffffffffffffffffffffffffffffffffffffff1614151515611ce857600080fd5b611cf233826145c6565b1515611cfd57600080fd5b611d078382614504565b1515611d1257600080fd5b611d1d838383614632565b505050565b60008060009054906101000a900473ffffffffffffffffffffffffffffffffffffffff1673ffffffffffffffffffffffffffffffffffffffff163373ffffffffffffffffffffffffffffffffffffffff16141515611d7f57600080fd5b8190508073ffffffffffffffffffffffffffffffffffffffff166354c15b826040518163ffffffff167c0100000000000000000000000000000000000000000000000000000000028152600401602060405180830381600087803b158015611de657600080fd5b505af1158015611dfa573d6000803e3d6000fd5b505050506040513d6020811015611e1057600080fd5b81019080805190602001909291905050501515611e2c57600080fd5b80601060006101000a81548173ffffffffffffffffffffffffffffffffffffffff021916908373ffffffffffffffffffffffffffffffffffffffff1602179055505050565b6000809054906101000a900473ffffffffffffffffffffffffffffffffffffffff1673ffffffffffffffffffffffffffffffffffffffff163373ffffffffffffffffffffffffffffffffffffffff16141515611ecc57600080fd5b600073ffffffffffffffffffffffffffffffffffffffff168173ffffffffffffffffffffffffffffffffffffffff1614151515611f0857600080fd5b806000806101000a81548173ffffffffffffffffffffffffffffffffffffffff021916908373ffffffffffffffffffffffffffffffffffffffff16021790555050565b6000809054906101000a900473ffffffffffffffffffffffffffffffffffffffff1673ffffffffffffffffffffffffffffffffffffffff163373ffffffffffffffffffffffffffffffffffffffff16141515611fa657600080fd5b600073ffffffffffffffffffffffffffffffffffffffff168173ffffffffffffffffffffffffffffffffffffffff1614151515611fe257600080fd5b80600260006101000a81548173ffffffffffffffffffffffffffffffffffffffff021916908373ffffffffffffffffffffffffffffffffffffffff16021790555050565b600260149054906101000a900460ff1615151561204257600080fd5b61204c3385614504565b151561205757600080fd5b61206084611bd6565b15151561206c57600080fd5b61209884600b60009054906101000a900473ffffffffffffffffffffffffffffffffffffffff16614570565b600b60009054906101000a900473ffffffffffffffffffffffffffffffffffffffff1673ffffffffffffffffffffffffffffffffffffffff166327ebe40a85858585336040518663ffffffff167c0100000000000000000000000000000000000000000000000000000000028152600401808681526020018581526020018481526020018381526020018273ffffffffffffffffffffffffffffffffffffffff1673ffffffffffffffffffffffffffffffffffffffff16815260200195505050505050600060405180830381600087803b15801561217557600080fd5b505af1158015612189573d6000803e3d6000fd5b5050505050505050565b6000809054906101000a900473ffffffffffffffffffffffffffffffffffffffff1673ffffffffffffffffffffffffffffffffffffffff163373ffffffffffffffffffffffffffffffffffffffff161415156121ee57600080fd5b600260149054906101000a900460ff16151561220957600080fd5b600073ffffffffffffffffffffffffffffffffffffffff16600b60009054906101000a900473ffffffffffffffffffffffffffffffffffffffff1673ffffffffffffffffffffffffffffffffffffffff161415151561226757600080fd5b600073ffffffffffffffffffffffffffffffffffffffff16600c60009054906101000a900473ffffffffffffffffffffffffffffffffffffffff1673ffffffffffffffffffffffffffffffffffffffff16141515156122c557600080fd5b600073ffffffffffffffffffffffffffffffffffffffff16601060009054906101000a900473ffffffffffffffffffffffffffffffffffffffff1673ffffffffffffffffffffffffffffffffffffffff161415151561232357600080fd5b600073ffffffffffffffffffffffffffffffffffffffff16601360009054906101000a900473ffffffffffffffffffffffffffffffffffffffff1673ffffffffffffffffffffffffffffffffffffffff1614151561238057600080fd5b61238861486a565b565b600a6020528060005260406000206000915054906101000a900473ffffffffffffffffffffffffffffffffffffffff1681565b600080600080851115156123d057600080fd5b6000841115156123df57600080fd5b6006858154811015156123ee57fe5b9060005260206000209060020201915060068481548110151561240d57fe5b90600052602060002090600202019050612429828683876148fd565b801561243b575061243a8486614b12565b5b9250505092915050565b60096020528060005260406000206000915054906101000a900473ffffffffffffffffffffffffffffffffffffffff1681565b600260149054906101000a900460ff1615151561249457600080fd5b61249e3385614504565b15156124a957600080fd5b6124b284613b95565b15156124bd57600080fd5b6124e984600c60009054906101000a900473ffffffffffffffffffffffffffffffffffffffff16614570565b600c60009054906101000a900473ffffffffffffffffffffffffffffffffffffffff1673ffffffffffffffffffffffffffffffffffffffff166327ebe40a85858585336040518663ffffffff167c0100000000000000000000000000000000000000000000000000000000028152600401808681526020018581526020018481526020018381526020018273ffffffffffffffffffffffffffffffffffffffff1673ffffffffffffffffffffffffffffffffffffffff16815260200195505050505050600060405180830381600087803b1580156125c657600080fd5b505af11580156125da573d6000803e3d6000fd5b5050505050505050565b600260009054906101000a900473ffffffffffffffffffffffffffffffffffffffff1673ffffffffffffffffffffffffffffffffffffffff163373ffffffffffffffffffffffffffffffffffffffff1614151561264057600080fd5b80600e8190555050565b600260149054906101000a900460ff1615151561266657600080fd5b6126703382614504565b151561267b57600080fd5b81600a600083815260200190815260200160002060006101000a81548173ffffffffffffffffffffffffffffffffffffffff021916908373ffffffffffffffffffffffffffffffffffffffff1602179055505050565b6000809054906101000a900473ffffffffffffffffffffffffffffffffffffffff1673ffffffffffffffffffffffffffffffffffffffff163373ffffffffffffffffffffffffffffffffffffffff1614151561272c57600080fd5b600073ffffffffffffffffffffffffffffffffffffffff168173ffffffffffffffffffffffffffffffffffffffff161415151561276857600080fd5b80600160006101000a81548173ffffffffffffffffffffffffffffffffffffffff021916908373ffffffffffffffffffffffffffffffffffffffff16021790555050565b6000600260009054906101000a900473ffffffffffffffffffffffffffffffffffffffff1673ffffffffffffffffffffffffffffffffffffffff163373ffffffffffffffffffffffffffffffffffffffff1614151561280a57600080fd5b819050600073ffffffffffffffffffffffffffffffffffffffff168173ffffffffffffffffffffffffffffffffffffffff16141561286857600260009054906101000a900473ffffffffffffffffffffffffffffffffffffffff1690505b66038d7ea4c6800060115410151561287f57600080fd5b6011600081548092919060010191905055506128a060008060008685614c25565b50505050565b600260009054906101000a900473ffffffffffffffffffffffffffffffffffffffff1673ffffffffffffffffffffffffffffffffffffffff163373ffffffffffffffffffffffffffffffffffffffff16148061294e57506000809054906101000a900473ffffffffffffffffffffffffffffffffffffffff1673ffffffffffffffffffffffffffffffffffffffff163373ffffffffffffffffffffffffffffffffffffffff16145b806129a65750600160009054906101000a900473ffffffffffffffffffffffffffffffffffffffff1673ffffffffffffffffffffffffffffffffffffffff163373ffffffffffffffffffffffffffffffffffffffff16145b15156129b157600080fd5b60036000600e811015156129c157fe5b600891828204019190066004029054906101000a900463ffffffff1663ffffffff16811015156129f057600080fd5b8060058190555050565b600260149054906101000a900460ff1681565b600080600160009054906101000a900473ffffffffffffffffffffffffffffffffffffffff1673ffffffffffffffffffffffffffffffffffffffff163373ffffffffffffffffffffffffffffffffffffffff16141515612a6c57600080fd5b3073ffffffffffffffffffffffffffffffffffffffff16319150600e546001600f540102905080821115612af557600160009054906101000a900473ffffffffffffffffffffffffffffffffffffffff1673ffffffffffffffffffffffffffffffffffffffff166108fc8284039081150290604051600060405180830381858888f19350505050505b5050565b60006007600083815260200190815260200160002060009054906101000a900473ffffffffffffffffffffffffffffffffffffffff169050600073ffffffffffffffffffffffffffffffffffffffff168173ffffffffffffffffffffffffffffffffffffffff1614151515612b6d57600080fd5b919050565b66038d7ea4c6800081565b601360009054906101000a900473ffffffffffffffffffffffffffffffffffffffff1681565b60008060009054906101000a900473ffffffffffffffffffffffffffffffffffffffff1673ffffffffffffffffffffffffffffffffffffffff163373ffffffffffffffffffffffffffffffffffffffff16141515612c0057600080fd5b8190508073ffffffffffffffffffffffffffffffffffffffff166385b861886040518163ffffffff167c0100000000000000000000000000000000000000000000000000000000028152600401602060405180830381600087803b158015612c6757600080fd5b505af1158015612c7b573d6000803e3d6000fd5b505050506040513d6020811015612c9157600080fd5b81019080805190602001909291905050501515612cad57600080fd5b80600b60006101000a81548173ffffffffffffffffffffffffffffffffffffffff021916908373ffffffffffffffffffffffffffffffffffffffff1602179055505050565b6000600860008373ffffffffffffffffffffffffffffffffffffffff1673ffffffffffffffffffffffffffffffffffffffff168152602001908152602001600020549050919050565b6000809054906101000a900473ffffffffffffffffffffffffffffffffffffffff1673ffffffffffffffffffffffffffffffffffffffff163373ffffffffffffffffffffffffffffffffffffffff16141515612d9657600080fd5b600260149054906101000a900460ff161515612db157600080fd5b80601360006101000a81548173ffffffffffffffffffffffffffffffffffffffff021916908373ffffffffffffffffffffffffffffffffffffffff1602179055507f450db8da6efbe9c22f2347f7c2021231df1fc58d3ae9a2fa75d39fa44619930581604051808273ffffffffffffffffffffffffffffffffffffffff1673ffffffffffffffffffffffffffffffffffffffff16815260200191505060405180910390a150565b60055481565b600260009054906101000a900473ffffffffffffffffffffffffffffffffffffffff1673ffffffffffffffffffffffffffffffffffffffff163373ffffffffffffffffffffffffffffffffffffffff161480612f0657506000809054906101000a900473ffffffffffffffffffffffffffffffffffffffff1673ffffffffffffffffffffffffffffffffffffffff163373ffffffffffffffffffffffffffffffffffffffff16145b80612f5e5750600160009054906101000a900473ffffffffffffffffffffffffffffffffffffffff1673ffffffffffffffffffffffffffffffffffffffff163373ffffffffffffffffffffffffffffffffffffffff16145b1515612f6957600080fd5b600260149054906101000a900460ff16151515612f8557600080fd5b6001600260146101000a81548160ff021916908315150217905550565b6060600060606000806000612fb687612cf2565b94506000851415612ff9576000604051908082528060200260200182016040528015612ff15781602001602082028038833980820191505090505b5095506130e5565b846040519080825280602002602001820160405280156130285781602001602082028038833980820191505090505b509350613033611bc0565b925060009150600190505b82811115156130e1578673ffffffffffffffffffffffffffffffffffffffff166007600083815260200190815260200160002060009054906101000a900473ffffffffffffffffffffffffffffffffffffffff1673ffffffffffffffffffffffffffffffffffffffff1614156130d4578084838151811015156130bd57fe5b906020019060200201818152505081806001019250505b808060010191505061303e565b8395505b5050505050919050565b600080600080600080600080600260149054906101000a900460ff1615151561311757600080fd5b60068981548110151561312657fe5b9060005260206000209060020201965060008760010160009054906101000a900467ffffffffffffffff1667ffffffffffffffff161415151561316857600080fd5b61329e876101006040519081016040529081600082015481526020016001820160009054906101000a900467ffffffffffffffff1667ffffffffffffffff1667ffffffffffffffff1681526020016001820160089054906101000a900467ffffffffffffffff1667ffffffffffffffff1667ffffffffffffffff1681526020016001820160109054906101000a900463ffffffff1663ffffffff1663ffffffff1681526020016001820160149054906101000a900463ffffffff1663ffffffff1663ffffffff1681526020016001820160189054906101000a900463ffffffff1663ffffffff1663ffffffff16815260200160018201601c9054906101000a900461ffff1661ffff1661ffff16815260200160018201601e9054906101000a900461ffff1661ffff1661ffff1681525050614f1c565b15156132a957600080fd5b8660010160189054906101000a900463ffffffff1663ffffffff1695506006868154811015156132d557fe5b9060005260206000209060020201945086600101601e9054906101000a900461ffff16935086600101601e9054906101000a900461ffff1661ffff1685600101601e9054906101000a900461ffff1661ffff1611156133445784600101601e9054906101000a900461ffff1693505b601060009054906101000a900473ffffffffffffffffffffffffffffffffffffffff1673ffffffffffffffffffffffffffffffffffffffff16630d9f5aed8860000154876000015460018b60010160089054906101000a900467ffffffffffffffff16036040518463ffffffff167c0100000000000000000000000000000000000000000000000000000000028152600401808481526020018381526020018267ffffffffffffffff1681526020019350505050602060405180830381600087803b15801561341257600080fd5b505af1158015613426573d6000803e3d6000fd5b505050506040513d602081101561343c57600080fd5b81019080805190602001909291905050509250600760008a815260200190815260200160002060009054906101000a900473ffffffffffffffffffffffffffffffffffffffff1691506134b3898860010160189054906101000a900463ffffffff1663ffffffff166001870161ffff168686614c25565b90508660010160186101000a81549063ffffffff0219169055600f60008154809291906001900391905055503373ffffffffffffffffffffffffffffffffffffffff166108fc600e549081150290604051600060405180830381858888f193505050505080975050505050505050919050565b600260009054906101000a900473ffffffffffffffffffffffffffffffffffffffff1673ffffffffffffffffffffffffffffffffffffffff163373ffffffffffffffffffffffffffffffffffffffff1614806135ce57506000809054906101000a900473ffffffffffffffffffffffffffffffffffffffff1673ffffffffffffffffffffffffffffffffffffffff163373ffffffffffffffffffffffffffffffffffffffff16145b806136265750600160009054906101000a900473ffffffffffffffffffffffffffffffffffffffff1673ffffffffffffffffffffffffffffffffffffffff163373ffffffffffffffffffffffffffffffffffffffff16145b151561363157600080fd5b600b60009054906101000a900473ffffffffffffffffffffffffffffffffffffffff1673ffffffffffffffffffffffffffffffffffffffff16635fd8c7106040518163ffffffff167c0100000000000000000000000000000000000000000000000000000000028152600401600060405180830381600087803b1580156136b757600080fd5b505af11580156136cb573d6000803e3d6000fd5b50505050600c60009054906101000a900473ffffffffffffffffffffffffffffffffffffffff1673ffffffffffffffffffffffffffffffffffffffff16635fd8c7106040518163ffffffff167c0100000000000000000000000000000000000000000000000000000000028152600401600060405180830381600087803b15801561375557600080fd5b505af1158015613769573d6000803e3d6000fd5b50505050565b6040805190810160405280600281526020017f434b00000000000000000000000000000000000000000000000000000000000081525081565b600381600e811015156137b757fe5b60089182820401919006600402915054906101000a900463ffffffff1681565b60076020528060005260406000206000915054906101000a900473ffffffffffffffffffffffffffffffffffffffff1681565b600260149054906101000a900460ff1615151561382657600080fd5b600073ffffffffffffffffffffffffffffffffffffffff168273ffffffffffffffffffffffffffffffffffffffff161415151561386257600080fd5b3073ffffffffffffffffffffffffffffffffffffffff168273ffffffffffffffffffffffffffffffffffffffff161415151561389d57600080fd5b600b60009054906101000a900473ffffffffffffffffffffffffffffffffffffffff1673ffffffffffffffffffffffffffffffffffffffff168273ffffffffffffffffffffffffffffffffffffffff16141515156138fa57600080fd5b600c60009054906101000a900473ffffffffffffffffffffffffffffffffffffffff1673ffffffffffffffffffffffffffffffffffffffff168273ffffffffffffffffffffffffffffffffffffffff161415151561395757600080fd5b6139613382614504565b151561396c57600080fd5b613977338383614632565b5050565b600260009054906101000a900473ffffffffffffffffffffffffffffffffffffffff1681565b600e5481565b600d60009054906101000a900473ffffffffffffffffffffffffffffffffffffffff1681565b6000600260009054906101000a900473ffffffffffffffffffffffffffffffffffffffff1673ffffffffffffffffffffffffffffffffffffffff163373ffffffffffffffffffffffffffffffffffffffff16141515613a2b57600080fd5b66038d7ea4c68000601254101515613a4257600080fd5b613a5160008060008530614c25565b9050613a7f81600b60009054906101000a900473ffffffffffffffffffffffffffffffffffffffff16614570565b600b60009054906101000a900473ffffffffffffffffffffffffffffffffffffffff1673ffffffffffffffffffffffffffffffffffffffff166327ebe40a82613ac6614f57565b600062015180306040518663ffffffff167c0100000000000000000000000000000000000000000000000000000000028152600401808681526020018581526020018481526020018381526020018273ffffffffffffffffffffffffffffffffffffffff1673ffffffffffffffffffffffffffffffffffffffff16815260200195505050505050600060405180830381600087803b158015613b6757600080fd5b505af1158015613b7b573d6000803e3d6000fd5b505050506012600081548092919060010191905055505050565b600080600083111515613ba757600080fd5b600683815481101515613bb657fe5b90600052602060002090600202019050613cfc816101006040519081016040529081600082015481526020016001820160009054906101000a900467ffffffffffffffff1667ffffffffffffffff1667ffffffffffffffff1681526020016001820160089054906101000a900467ffffffffffffffff1667ffffffffffffffff1667ffffffffffffffff1681526020016001820160109054906101000a900463ffffffff1663ffffffff1663ffffffff1681526020016001820160149054906101000a900463ffffffff1663ffffffff1663ffffffff1681526020016001820160189054906101000a900463ffffffff1663ffffffff1663ffffffff16815260200160018201601c9054906101000a900461ffff1661ffff1661ffff16815260200160018201601e9054906101000a900461ffff1661ffff1661ffff1681525050615072565b915050919050565b66038d7ea4c6800081565b6000809054906101000a900473ffffffffffffffffffffffffffffffffffffffff1673ffffffffffffffffffffffffffffffffffffffff163373ffffffffffffffffffffffffffffffffffffffff16141515613d6a57600080fd5b80600d60006101000a81548173ffffffffffffffffffffffffffffffffffffffff021916908373ffffffffffffffffffffffffffffffffffffffff16021790555050565b600b60009054906101000a900473ffffffffffffffffffffffffffffffffffffffff1681565b600080600080600080600080600080600060068c815481101515613df457fe5b9060005260206000209060020201905060008160010160189054906101000a900463ffffffff1663ffffffff1614159a50438160010160089054906101000a900467ffffffffffffffff1667ffffffffffffffff161115995080600101601c9054906101000a900461ffff1661ffff1698508060010160089054906101000a900467ffffffffffffffff1667ffffffffffffffff1697508060010160189054906101000a900463ffffffff1663ffffffff1696508060010160009054906101000a900467ffffffffffffffff1667ffffffffffffffff1695508060010160109054906101000a900463ffffffff1663ffffffff1694508060010160149054906101000a900463ffffffff1663ffffffff16935080600101601e9054906101000a900461ffff1661ffff16925080600001549150509193959799509193959799565b6000600260149054906101000a900460ff16151515613f5357600080fd5b613f5d3383614504565b1515613f6857600080fd5b613f7182613b95565b1515613f7c57600080fd5b613f8682846150ac565b1515613f9157600080fd5b600c60009054906101000a900473ffffffffffffffffffffffffffffffffffffffff1673ffffffffffffffffffffffffffffffffffffffff1663c55d0f56846040518263ffffffff167c010000000000000000000000000000000000000000000000000000000002815260040180828152602001915050602060405180830381600087803b15801561402257600080fd5b505af1158015614036573d6000803e3d6000fd5b505050506040513d602081101561404c57600080fd5b81019080805190602001909291905050509050600e548101341015151561407257600080fd5b600c60009054906101000a900473ffffffffffffffffffffffffffffffffffffffff1673ffffffffffffffffffffffffffffffffffffffff1663454a2ab3600e543403856040518363ffffffff167c0100000000000000000000000000000000000000000000000000000000028152600401808281526020019150506000604051808303818588803b15801561410757600080fd5b505af115801561411b573d6000803e3d6000fd5b50505050506141368263ffffffff168463ffffffff16615105565b505050565b60125481565b601060009054906101000a900473ffffffffffffffffffffffffffffffffffffffff1681565b600080600260149054906101000a900460ff1615151561418657600080fd5b600e54341015151561419757600080fd5b6141a13385614504565b15156141ac57600080fd5b6141b68385614b12565b15156141c157600080fd5b6006848154811015156141d057fe5b90600052602060002090600202019150614316826101006040519081016040529081600082015481526020016001820160009054906101000a900467ffffffffffffffff1667ffffffffffffffff1667ffffffffffffffff1681526020016001820160089054906101000a900467ffffffffffffffff1667ffffffffffffffff1667ffffffffffffffff1681526020016001820160109054906101000a900463ffffffff1663ffffffff1663ffffffff1681526020016001820160149054906101000a900463ffffffff1663ffffffff1663ffffffff1681526020016001820160189054906101000a900463ffffffff1663ffffffff1663ffffffff16815260200160018201601c9054906101000a900461ffff1661ffff1661ffff16815260200160018201601e9054906101000a900461ffff1661ffff1661ffff1681525050615072565b151561432157600080fd5b60068381548110151561433057fe5b90600052602060002090600202019050614476816101006040519081016040529081600082015481526020016001820160009054906101000a900467ffffffffffffffff1667ffffffffffffffff1667ffffffffffffffff1681526020016001820160089054906101000a900467ffffffffffffffff1667ffffffffffffffff1667ffffffffffffffff1681526020016001820160109054906101000a900463ffffffff1663ffffffff1663ffffffff1681526020016001820160149054906101000a900463ffffffff1663ffffffff1663ffffffff1681526020016001820160189054906101000a900463ffffffff1663ffffffff1663ffffffff16815260200160018201601c9054906101000a900461ffff1661ffff1661ffff16815260200160018201601e9054906101000a900461ffff1661ffff1661ffff1681525050615072565b151561448157600080fd5b61448d828583866148fd565b151561449857600080fd5b6144a28484615105565b50505050565b606080600080846040519080825280601f01601f1916602001820160405280156144e15781602001602082028038833980820191505090505b5092506020830191508590506144f88282876152cf565b82935050505092915050565b60008273ffffffffffffffffffffffffffffffffffffffff166007600084815260200190815260200160002060009054906101000a900473ffffffffffffffffffffffffffffffffffffffff1673ffffffffffffffffffffffffffffffffffffffff1614905092915050565b806009600084815260200190815260200160002060006101000a81548173ffffffffffffffffffffffffffffffffffffffff021916908373ffffffffffffffffffffffffffffffffffffffff1602179055505050565b60008273ffffffffffffffffffffffffffffffffffffffff166009600084815260200190815260200160002060009054906101000a900473ffffffffffffffffffffffffffffffffffffffff1673ffffffffffffffffffffffffffffffffffffffff1614905092915050565b600860008373ffffffffffffffffffffffffffffffffffffffff1673ffffffffffffffffffffffffffffffffffffffff16815260200190815260200160002060008154809291906001019190505550816007600083815260200190815260200160002060006101000a81548173ffffffffffffffffffffffffffffffffffffffff021916908373ffffffffffffffffffffffffffffffffffffffff160217905550600073ffffffffffffffffffffffffffffffffffffffff168373ffffffffffffffffffffffffffffffffffffffff161415156147c657600860008473ffffffffffffffffffffffffffffffffffffffff1673ffffffffffffffffffffffffffffffffffffffff1681526020019081526020016000206000815480929190600190039190505550600a600082815260200190815260200160002060006101000a81549073ffffffffffffffffffffffffffffffffffffffff02191690556009600082815260200190815260200160002060006101000a81549073ffffffffffffffffffffffffffffffffffffffff02191690555b7fddf252ad1be2c89b69c2b068fc378daa952ba7f163c4a11628f55a4df523b3ef838383604051808473ffffffffffffffffffffffffffffffffffffffff1673ffffffffffffffffffffffffffffffffffffffff1681526020018373ffffffffffffffffffffffffffffffffffffffff1673ffffffffffffffffffffffffffffffffffffffff168152602001828152602001935050505060405180910390a1505050565b6000809054906101000a900473ffffffffffffffffffffffffffffffffffffffff1673ffffffffffffffffffffffffffffffffffffffff163373ffffffffffffffffffffffffffffffffffffffff161415156148c557600080fd5b600260149054906101000a900460ff1615156148e057600080fd5b6000600260146101000a81548160ff021916908315150217905550565b6000818414156149105760009050614b0a565b818560010160109054906101000a900463ffffffff1663ffffffff1614806149515750818560010160149054906101000a900463ffffffff1663ffffffff16145b1561495f5760009050614b0a565b838360010160109054906101000a900463ffffffff1663ffffffff1614806149a05750838360010160149054906101000a900463ffffffff1663ffffffff16145b156149ae5760009050614b0a565b60008360010160109054906101000a900463ffffffff1663ffffffff1614806149f1575060008560010160109054906101000a900463ffffffff1663ffffffff16145b156149ff5760019050614b0a565b8460010160109054906101000a900463ffffffff1663ffffffff168360010160109054906101000a900463ffffffff1663ffffffff161480614a7457508460010160149054906101000a900463ffffffff1663ffffffff168360010160109054906101000a900463ffffffff1663ffffffff16145b15614a825760009050614b0a565b8460010160109054906101000a900463ffffffff1663ffffffff168360010160149054906101000a900463ffffffff1663ffffffff161480614af757508460010160149054906101000a900463ffffffff1663ffffffff168360010160149054906101000a900463ffffffff1663ffffffff16145b15614b055760009050614b0a565b600190505b949350505050565b60008060006007600085815260200190815260200160002060009054906101000a900473ffffffffffffffffffffffffffffffffffffffff1691506007600086815260200190815260200160002060009054906101000a900473ffffffffffffffffffffffffffffffffffffffff1690508073ffffffffffffffffffffffffffffffffffffffff168273ffffffffffffffffffffffffffffffffffffffff161480614c1b57508173ffffffffffffffffffffffffffffffffffffffff16600a600087815260200190815260200160002060009054906101000a900473ffffffffffffffffffffffffffffffffffffffff1673ffffffffffffffffffffffffffffffffffffffff16145b9250505092915050565b600080614c30615413565b60008863ffffffff1689141515614c4657600080fd5b8763ffffffff1688141515614c5a57600080fd5b8661ffff1687141515614c6c57600080fd5b600287811515614c7857fe5b049250600d8361ffff161115614c8d57600d92505b610100604051908101604052808781526020014267ffffffffffffffff168152602001600067ffffffffffffffff1681526020018a63ffffffff1681526020018963ffffffff168152602001600063ffffffff1681526020018461ffff1681526020018861ffff1681525091506001600683908060018154018082558091505090600182039060005260206000209060020201600090919290919091506000820151816000015560208201518160010160006101000a81548167ffffffffffffffff021916908367ffffffffffffffff16021790555060408201518160010160086101000a81548167ffffffffffffffff021916908367ffffffffffffffff16021790555060608201518160010160106101000a81548163ffffffff021916908363ffffffff16021790555060808201518160010160146101000a81548163ffffffff021916908363ffffffff16021790555060a08201518160010160186101000a81548163ffffffff021916908363ffffffff16021790555060c082015181600101601c6101000a81548161ffff021916908361ffff16021790555060e082015181600101601e6101000a81548161ffff021916908361ffff16021790555050500390508063ffffffff1681141515614e6657600080fd5b7f0a5311bd2a6608f08a180df2ee7c5946819a649b204b554bb8e39825b2c50ad58582846060015163ffffffff16856080015163ffffffff168660000151604051808673ffffffffffffffffffffffffffffffffffffffff1673ffffffffffffffffffffffffffffffffffffffff1681526020018581526020018481526020018381526020018281526020019550505050505060405180910390a1614f0d60008683614632565b80935050505095945050505050565b6000808260a0015163ffffffff1614158015614f5057504367ffffffffffffffff16826040015167ffffffffffffffff1611155b9050919050565b6000806000600b60009054906101000a900473ffffffffffffffffffffffffffffffffffffffff1673ffffffffffffffffffffffffffffffffffffffff1663eac9d94c6040518163ffffffff167c0100000000000000000000000000000000000000000000000000000000028152600401602060405180830381600087803b158015614fe257600080fd5b505af1158015614ff6573d6000803e3d6000fd5b505050506040513d602081101561500c57600080fd5b81019080805190602001909291905050509150816fffffffffffffffffffffffffffffffff168214151561503f57600080fd5b60028281151561504b57fe5b0482019050662386f26fc1000081101561506a57662386f26fc1000090505b809250505090565b6000808260a0015163ffffffff161480156150a557504367ffffffffffffffff16826040015167ffffffffffffffff1611155b9050919050565b60008060006006858154811015156150c057fe5b906000526020600020906002020191506006848154811015156150df57fe5b906000526020600020906002020190506150fb828683876148fd565b9250505092915050565b60008060068381548110151561511757fe5b9060005260206000209060020201915060068481548110151561513657fe5b90600052602060002090600202019050828160010160186101000a81548163ffffffff021916908363ffffffff1602179055506151728261531a565b61517b8161531a565b600a600085815260200190815260200160002060006101000a81549073ffffffffffffffffffffffffffffffffffffffff0219169055600a600084815260200190815260200160002060006101000a81549073ffffffffffffffffffffffffffffffffffffffff0219169055600f600081548092919060010191905055507f241ea03ca20251805084d27d4440371c34a0b85ff108f6bb5611248f73818b806007600086815260200190815260200160002060009054906101000a900473ffffffffffffffffffffffffffffffffffffffff1685858460010160089054906101000a900467ffffffffffffffff16604051808573ffffffffffffffffffffffffffffffffffffffff1673ffffffffffffffffffffffffffffffffffffffff1681526020018481526020018381526020018267ffffffffffffffff16815260200194505050505060405180910390a150505050565b60005b6020821015156152f757825184526020840193506020830192506020820391506152d2565b6001826020036101000a0390508019835116818551168181178652505050505050565b43600554600383600101601c9054906101000a900461ffff1661ffff16600e8110151561534357fe5b600891828204019190066004029054906101000a900463ffffffff1663ffffffff1681151561536e57fe5b04018160010160086101000a81548167ffffffffffffffff021916908367ffffffffffffffff160217905550600d81600101601c9054906101000a900461ffff1661ffff1610156153ed57600181600101601c8282829054906101000a900461ffff160192506101000a81548161ffff021916908361ffff1602179055505b50565b608060405190810160405280600490602082028038833980820191505090505090565b6101006040519081016040528060008152602001600067ffffffffffffffff168152602001600067ffffffffffffffff168152602001600063ffffffff168152602001600063ffffffff168152602001600063ffffffff168152602001600061ffff168152602001600061ffff16815250905600a165627a7a7230582074101fdee3a27f09dc27b0956e0fad85f91cd03386f09c823d5ec3f89131455e0029",
  "source": "pragma solidity ^0.4.11;\n\nimport './KittyMinting.sol';\n\n/// @title CryptoKitties: Collectible, breedable, and oh-so-adorable cats on the Ethereum blockchain.\n/// @author Axiom Zen (https://www.axiomzen.co)\n/// @dev The main CryptoKitties contract, keeps track of kittens so they don't wander around and get lost.\ncontract KittyCore is KittyMinting {\n\n\t// This is the main CryptoKitties contract. In order to keep our code seperated into logical sections,\n\t// we've broken it up in two ways. First, we have several seperately-instantiated sibling contracts\n\t// that handle auctions and our super-top-secret genetic combination algorithm. The auctions are\n\t// seperate since their logic is somewhat complex and there's always a risk of subtle bugs. By keeping\n\t// them in their own contracts, we can upgrade them without disrupting the main contract that tracks\n\t// kitty ownership. The genetic combination algorithm is kept seperate so we can open-source all of\n\t// the rest of our code without making it _too_ easy for folks to figure out how the genetics work.\n\t// Don't worry, I'm sure someone will reverse engineer it soon enough!\n\t//\n\t// Secondly, we break the core contract into multiple files using inheritence, one for each major\n\t// facet of functionality of CK. This allows us to keep related code bundled together while still\n\t// avoiding a single giant file with everything in it. The breakdown is as follows:\n\t//\n\t//      - KittyBase: This is where we define the most fundamental code shared throughout the core\n\t//             functionality. This includes our main data storage, constants and data types, plus\n\t//             internal functions for managing these items.\n\t//\n\t//      - KittyAccessControl: This contract manages the various addresses and constraints for operations\n\t//             that can be executed only by specific roles. Namely CEO, CFO and COO.\n\t//\n\t//      - KittyOwnership: This provides the methods required for basic non-fungible token\n\t//             transactions, following the draft ERC-721 spec (https://github.com/ethereum/EIPs/issues/721).\n\t//\n\t//      - KittyBreeding: This file contains the methods necessary to breed cats together, including\n\t//             keeping track of siring offers, and relies on an external genetic combination contract.\n\t//\n\t//      - KittyAuctions: Here we have the public methods for auctioning or bidding on cats or siring\n\t//             services. The actual auction functionality is handled in two sibling contracts (one\n\t//             for sales and one for siring), while auction creation and bidding is mostly mediated\n\t//             through this facet of the core contract.\n\t//\n\t//      - KittyMinting: This final facet contains the functionality we use for creating new gen0 cats.\n\t//             We can make up to 5000 \"promo\" cats that can be given away (especially important when\n\t//             the community is new), and all others can only be created and then immediately put up\n\t//             for auction via an algorithmically determined starting price. Regardless of how they\n\t//             are created, there is a hard limit of 50k gen0 cats. After that, it's all up to the\n\t//             community to breed, breed, breed!\n\n\t// Set in case the core contract is broken and an upgrade is required\n\taddress public newContractAddress;\n\n\t/// @notice Creates the main CryptoKitties smart contract instance.\n\tfunction KittyCore() public {\n\t\t// Starts paused.\n\t\tpaused = true;\n\n\t\t// the creator of the contract is the initial CEO\n\t\tceoAddress = msg.sender;\n\n\t\t// the creator of the contract is also the initial COO\n\t\tcooAddress = msg.sender;\n\n\t\t// start with the mythical kitten 0 - so we don't have generation-0 parent issues\n\t\t_createKitty(0, 0, 0, uint256(-1), address(0));\n\t}\n\n\t/// @dev Used to mark the smart contract as upgraded, in case there is a serious\n\t///  breaking bug. This method does nothing but keep track of the new contract and\n\t///  emit a message indicating that the new address is set. It's up to clients of this\n\t///  contract to update to the new contract address in that case. (This contract will\n\t///  be paused indefinitely if such an upgrade takes place.)\n\t/// @param _v2Address new address\n\tfunction setNewAddress(address _v2Address) external onlyCEO whenPaused {\n\t\t// See README.md for updgrade plan\n\t\tnewContractAddress = _v2Address;\n\t\tContractUpgrade(_v2Address);\n\t}\n\n\t/// @notice No tipping!\n\t/// @dev Reject all Ether from being sent here, unless it's from one of the\n\t///  two auction contracts. (Hopefully, we can prevent user accidents.)\n\tfunction() external payable {\n\t\trequire(\n\t\t\tmsg.sender == address(saleAuction) ||\n\t\t\tmsg.sender == address(siringAuction)\n\t\t);\n\t}\n\n\t/// @notice Returns all the relevant information about a specific kitty.\n\t/// @param _id The ID of the kitty of interest.\n\tfunction getKitty(uint256 _id)\n\texternal\n\tview\n\treturns (\n\t\tbool isGestating,\n\t\tbool isReady,\n\t\tuint256 cooldownIndex,\n\t\tuint256 nextActionAt,\n\t\tuint256 siringWithId,\n\t\tuint256 birthTime,\n\t\tuint256 matronId,\n\t\tuint256 sireId,\n\t\tuint256 generation,\n\t\tuint256 genes\n\t) {\n\t\tKitty storage kit = kitties[_id];\n\n\t\t// if this variable is 0 then it's not gestating\n\t\tisGestating = (kit.siringWithId != 0);\n\t\tisReady = (kit.cooldownEndBlock <= block.number);\n\t\tcooldownIndex = uint256(kit.cooldownIndex);\n\t\tnextActionAt = uint256(kit.cooldownEndBlock);\n\t\tsiringWithId = uint256(kit.siringWithId);\n\t\tbirthTime = uint256(kit.birthTime);\n\t\tmatronId = uint256(kit.matronId);\n\t\tsireId = uint256(kit.sireId);\n\t\tgeneration = uint256(kit.generation);\n\t\tgenes = kit.genes;\n\t}\n\n\t/// @dev Override unpause so it requires all external contract addresses\n\t///  to be set before contract can be unpaused. Also, we can't have\n\t///  newContractAddress set either, because then the contract was upgraded.\n\t/// @notice This is public rather than external so we can call super.unpause\n\t///  without using an expensive CALL.\n\tfunction unpause() public onlyCEO whenPaused {\n\t\trequire(saleAuction != address(0));\n\t\trequire(siringAuction != address(0));\n\t\trequire(geneScience != address(0));\n\t\trequire(newContractAddress == address(0));\n\n\t\t// Actually unpause the contract.\n\t\tsuper.unpause();\n\t}\n\n\t// @dev Allows the CFO to capture the balance available to the contract.\n\tfunction withdrawBalance() external onlyCFO {\n\t\tuint256 balance = this.balance;\n\t\t// Subtract all the currently pregnant kittens we have, plus 1 of margin.\n\t\tuint256 subtractFees = (pregnantKitties + 1) * autoBirthFee;\n\n\t\tif (balance > subtractFees) {\n\t\t\tcfoAddress.send(balance - subtractFees);\n\t\t}\n\t}\n}\n",
  "sourcePath": "/Users/harrisonbeckerich/proj/vanimals/contracts/KittyCore.sol",
  "compiler": {
    "name": "solc",
    "version": "0.4.24+commit.e67f0147.Emscripten.clang"
  },
  "schemaVersion": "2.0.0",
  "updatedAt": "2018-07-05T21:18:37.487Z"
}