{
  "contractName": "KittyBase",
  "abi": [
    {
      "constant": true,
      "inputs": [],
      "name": "cfoAddress",
      "outputs": [
        {
          "name": "",
          "type": "address"
        }
      ],
      "payable": false,
      "stateMutability": "view",
      "type": "function"
    },
    {
      "constant": true,
      "inputs": [],
      "name": "ceoAddress",
      "outputs": [
        {
          "name": "",
          "type": "address"
        }
      ],
      "payable": false,
      "stateMutability": "view",
      "type": "function"
    },
    {
      "constant": true,
      "inputs": [],
      "name": "siringAuction",
      "outputs": [
        {
          "name": "",
          "type": "address"
        }
      ],
      "payable": false,
      "stateMutability": "view",
      "type": "function"
    },
    {
      "constant": false,
      "inputs": [
        {
          "name": "_newCEO",
          "type": "address"
        }
      ],
      "name": "setCEO",
      "outputs": [],
      "payable": false,
      "stateMutability": "nonpayable",
      "type": "function"
    },
    {
      "constant": false,
      "inputs": [
        {
          "name": "_newCOO",
          "type": "address"
        }
      ],
      "name": "setCOO",
      "outputs": [],
      "payable": false,
      "stateMutability": "nonpayable",
      "type": "function"
    },
    {
      "constant": false,
      "inputs": [],
      "name": "unpause",
      "outputs": [],
      "payable": false,
      "stateMutability": "nonpayable",
      "type": "function"
    },
    {
      "constant": true,
      "inputs": [
        {
          "name": "",
          "type": "uint256"
        }
      ],
      "name": "sireAllowedToAddress",
      "outputs": [
        {
          "name": "",
          "type": "address"
        }
      ],
      "payable": false,
      "stateMutability": "view",
      "type": "function"
    },
    {
      "constant": true,
      "inputs": [
        {
          "name": "",
          "type": "uint256"
        }
      ],
      "name": "kittyIndexToApproved",
      "outputs": [
        {
          "name": "",
          "type": "address"
        }
      ],
      "payable": false,
      "stateMutability": "view",
      "type": "function"
    },
    {
      "constant": false,
      "inputs": [
        {
          "name": "_newCFO",
          "type": "address"
        }
      ],
      "name": "setCFO",
      "outputs": [],
      "payable": false,
      "stateMutability": "nonpayable",
      "type": "function"
    },
    {
      "constant": true,
      "inputs": [],
      "name": "paused",
      "outputs": [
        {
          "name": "",
          "type": "bool"
        }
      ],
      "payable": false,
      "stateMutability": "view",
      "type": "function"
    },
    {
      "constant": true,
      "inputs": [],
      "name": "secondsPerBlock",
      "outputs": [
        {
          "name": "",
          "type": "uint256"
        }
      ],
      "payable": false,
      "stateMutability": "view",
      "type": "function"
    },
    {
      "constant": false,
      "inputs": [],
      "name": "pause",
      "outputs": [],
      "payable": false,
      "stateMutability": "nonpayable",
      "type": "function"
    },
    {
      "constant": true,
      "inputs": [
        {
          "name": "",
          "type": "uint256"
        }
      ],
      "name": "cooldowns",
      "outputs": [
        {
          "name": "",
          "type": "uint32"
        }
      ],
      "payable": false,
      "stateMutability": "view",
      "type": "function"
    },
    {
      "constant": true,
      "inputs": [
        {
          "name": "",
          "type": "uint256"
        }
      ],
      "name": "kittyIndexToOwner",
      "outputs": [
        {
          "name": "",
          "type": "address"
        }
      ],
      "payable": false,
      "stateMutability": "view",
      "type": "function"
    },
    {
      "constant": true,
      "inputs": [],
      "name": "cooAddress",
      "outputs": [
        {
          "name": "",
          "type": "address"
        }
      ],
      "payable": false,
      "stateMutability": "view",
      "type": "function"
    },
    {
      "constant": true,
      "inputs": [],
      "name": "saleAuction",
      "outputs": [
        {
          "name": "",
          "type": "address"
        }
      ],
      "payable": false,
      "stateMutability": "view",
      "type": "function"
    },
    {
      "anonymous": false,
      "inputs": [
        {
          "indexed": false,
          "name": "owner",
          "type": "address"
        },
        {
          "indexed": false,
          "name": "kittyId",
          "type": "uint256"
        },
        {
          "indexed": false,
          "name": "matronId",
          "type": "uint256"
        },
        {
          "indexed": false,
          "name": "sireId",
          "type": "uint256"
        },
        {
          "indexed": false,
          "name": "genes",
          "type": "uint256"
        }
      ],
      "name": "Birth",
      "type": "event"
    },
    {
      "anonymous": false,
      "inputs": [
        {
          "indexed": false,
          "name": "from",
          "type": "address"
        },
        {
          "indexed": false,
          "name": "to",
          "type": "address"
        },
        {
          "indexed": false,
          "name": "tokenId",
          "type": "uint256"
        }
      ],
      "name": "Transfer",
      "type": "event"
    },
    {
      "anonymous": false,
      "inputs": [
        {
          "indexed": false,
          "name": "newContract",
          "type": "address"
        }
      ],
      "name": "ContractUpgrade",
      "type": "event"
    },
    {
      "constant": false,
      "inputs": [
        {
          "name": "secs",
          "type": "uint256"
        }
      ],
      "name": "setSecondsPerBlock",
      "outputs": [],
      "payable": false,
      "stateMutability": "nonpayable",
      "type": "function"
    }
  ],
  "bytecode": "0x60806040526000600260146101000a81548160ff0219169083151502179055506101c060405190810160405280603c63ffffffff1663ffffffff168152602001607863ffffffff1663ffffffff16815260200161012c63ffffffff1663ffffffff16815260200161025863ffffffff1663ffffffff16815260200161070863ffffffff1663ffffffff168152602001610e1063ffffffff1663ffffffff168152602001611c2063ffffffff1663ffffffff16815260200161384063ffffffff1663ffffffff16815260200161708063ffffffff1663ffffffff16815260200161e10063ffffffff1663ffffffff1681526020016201518063ffffffff1663ffffffff1681526020016202a30063ffffffff1663ffffffff1681526020016205460063ffffffff1663ffffffff16815260200162093a8063ffffffff1663ffffffff16815250600390600e61015492919061016c565b50600f60055534801561016657600080fd5b50610242565b82600e6007016008900481019282156101fe5791602002820160005b838211156101cc57835183826101000a81548163ffffffff021916908363ffffffff1602179055509260200192600401602081600301049283019260010302610188565b80156101fc5782816101000a81549063ffffffff02191690556004016020816003010492830192600103026101cc565b505b50905061020b919061020f565b5090565b61023f91905b8082111561023b57600081816101000a81549063ffffffff021916905550600101610215565b5090565b90565b610d40806102516000396000f3006080604052600436106100f1576000357c0100000000000000000000000000000000000000000000000000000000900463ffffffff1680630519ce79146100f65780630a0f81681461014d57806321717ebf146101a457806327d7874c146101fb5780632ba73c151461023e5780633f4ba83a1461028157806346116e6f14610298578063481af3d3146103055780634e0a3379146103725780635663896e146103b55780635c975abb146103e25780637a7d4937146104115780638456cb591461043c5780639d6fac6f14610453578063a45f4bfc146104a0578063b047fb501461050d578063e6cbe35114610564575b600080fd5b34801561010257600080fd5b5061010b6105bb565b604051808273ffffffffffffffffffffffffffffffffffffffff1673ffffffffffffffffffffffffffffffffffffffff16815260200191505060405180910390f35b34801561015957600080fd5b506101626105e1565b604051808273ffffffffffffffffffffffffffffffffffffffff1673ffffffffffffffffffffffffffffffffffffffff16815260200191505060405180910390f35b3480156101b057600080fd5b506101b9610606565b604051808273ffffffffffffffffffffffffffffffffffffffff1673ffffffffffffffffffffffffffffffffffffffff16815260200191505060405180910390f35b34801561020757600080fd5b5061023c600480360381019080803573ffffffffffffffffffffffffffffffffffffffff16906020019092919050505061062c565b005b34801561024a57600080fd5b5061027f600480360381019080803573ffffffffffffffffffffffffffffffffffffffff169060200190929190505050610706565b005b34801561028d57600080fd5b506102966107e1565b005b3480156102a457600080fd5b506102c360048036038101908080359060200190929190505050610874565b604051808273ffffffffffffffffffffffffffffffffffffffff1673ffffffffffffffffffffffffffffffffffffffff16815260200191505060405180910390f35b34801561031157600080fd5b50610330600480360381019080803590602001909291905050506108a7565b604051808273ffffffffffffffffffffffffffffffffffffffff1673ffffffffffffffffffffffffffffffffffffffff16815260200191505060405180910390f35b34801561037e57600080fd5b506103b3600480360381019080803573ffffffffffffffffffffffffffffffffffffffff1690602001909291905050506108da565b005b3480156103c157600080fd5b506103e0600480360381019080803590602001909291905050506109b5565b005b3480156103ee57600080fd5b506103f7610b09565b604051808215151515815260200191505060405180910390f35b34801561041d57600080fd5b50610426610b1c565b6040518082815260200191505060405180910390f35b34801561044857600080fd5b50610451610b22565b005b34801561045f57600080fd5b5061047e60048036038101908080359060200190929190505050610c66565b604051808263ffffffff1663ffffffff16815260200191505060405180910390f35b3480156104ac57600080fd5b506104cb60048036038101908080359060200190929190505050610c95565b604051808273ffffffffffffffffffffffffffffffffffffffff1673ffffffffffffffffffffffffffffffffffffffff16815260200191505060405180910390f35b34801561051957600080fd5b50610522610cc8565b604051808273ffffffffffffffffffffffffffffffffffffffff1673ffffffffffffffffffffffffffffffffffffffff16815260200191505060405180910390f35b34801561057057600080fd5b50610579610cee565b604051808273ffffffffffffffffffffffffffffffffffffffff1673ffffffffffffffffffffffffffffffffffffffff16815260200191505060405180910390f35b600160009054906101000a900473ffffffffffffffffffffffffffffffffffffffff1681565b6000809054906101000a900473ffffffffffffffffffffffffffffffffffffffff1681565b600c60009054906101000a900473ffffffffffffffffffffffffffffffffffffffff1681565b6000809054906101000a900473ffffffffffffffffffffffffffffffffffffffff1673ffffffffffffffffffffffffffffffffffffffff163373ffffffffffffffffffffffffffffffffffffffff1614151561068757600080fd5b600073ffffffffffffffffffffffffffffffffffffffff168173ffffffffffffffffffffffffffffffffffffffff16141515156106c357600080fd5b806000806101000a81548173ffffffffffffffffffffffffffffffffffffffff021916908373ffffffffffffffffffffffffffffffffffffffff16021790555050565b6000809054906101000a900473ffffffffffffffffffffffffffffffffffffffff1673ffffffffffffffffffffffffffffffffffffffff163373ffffffffffffffffffffffffffffffffffffffff1614151561076157600080fd5b600073ffffffffffffffffffffffffffffffffffffffff168173ffffffffffffffffffffffffffffffffffffffff161415151561079d57600080fd5b80600260006101000a81548173ffffffffffffffffffffffffffffffffffffffff021916908373ffffffffffffffffffffffffffffffffffffffff16021790555050565b6000809054906101000a900473ffffffffffffffffffffffffffffffffffffffff1673ffffffffffffffffffffffffffffffffffffffff163373ffffffffffffffffffffffffffffffffffffffff1614151561083c57600080fd5b600260149054906101000a900460ff16151561085757600080fd5b6000600260146101000a81548160ff021916908315150217905550565b600a6020528060005260406000206000915054906101000a900473ffffffffffffffffffffffffffffffffffffffff1681565b60096020528060005260406000206000915054906101000a900473ffffffffffffffffffffffffffffffffffffffff1681565b6000809054906101000a900473ffffffffffffffffffffffffffffffffffffffff1673ffffffffffffffffffffffffffffffffffffffff163373ffffffffffffffffffffffffffffffffffffffff1614151561093557600080fd5b600073ffffffffffffffffffffffffffffffffffffffff168173ffffffffffffffffffffffffffffffffffffffff161415151561097157600080fd5b80600160006101000a81548173ffffffffffffffffffffffffffffffffffffffff021916908373ffffffffffffffffffffffffffffffffffffffff16021790555050565b600260009054906101000a900473ffffffffffffffffffffffffffffffffffffffff1673ffffffffffffffffffffffffffffffffffffffff163373ffffffffffffffffffffffffffffffffffffffff161480610a5d57506000809054906101000a900473ffffffffffffffffffffffffffffffffffffffff1673ffffffffffffffffffffffffffffffffffffffff163373ffffffffffffffffffffffffffffffffffffffff16145b80610ab55750600160009054906101000a900473ffffffffffffffffffffffffffffffffffffffff1673ffffffffffffffffffffffffffffffffffffffff163373ffffffffffffffffffffffffffffffffffffffff16145b1515610ac057600080fd5b60036000600e81101515610ad057fe5b600891828204019190066004029054906101000a900463ffffffff1663ffffffff1681101515610aff57600080fd5b8060058190555050565b600260149054906101000a900460ff1681565b60055481565b600260009054906101000a900473ffffffffffffffffffffffffffffffffffffffff1673ffffffffffffffffffffffffffffffffffffffff163373ffffffffffffffffffffffffffffffffffffffff161480610bca57506000809054906101000a900473ffffffffffffffffffffffffffffffffffffffff1673ffffffffffffffffffffffffffffffffffffffff163373ffffffffffffffffffffffffffffffffffffffff16145b80610c225750600160009054906101000a900473ffffffffffffffffffffffffffffffffffffffff1673ffffffffffffffffffffffffffffffffffffffff163373ffffffffffffffffffffffffffffffffffffffff16145b1515610c2d57600080fd5b600260149054906101000a900460ff16151515610c4957600080fd5b6001600260146101000a81548160ff021916908315150217905550565b600381600e81101515610c7557fe5b60089182820401919006600402915054906101000a900463ffffffff1681565b60076020528060005260406000206000915054906101000a900473ffffffffffffffffffffffffffffffffffffffff1681565b600260009054906101000a900473ffffffffffffffffffffffffffffffffffffffff1681565b600b60009054906101000a900473ffffffffffffffffffffffffffffffffffffffff16815600a165627a7a723058203b166ef6128dc02989fc66c816d07f42b879599bab041151d736e9fed10a7ede0029",
  "source": "pragma solidity ^0.4.11;\n\nimport './KittyAccessControl.sol';\nimport './SaleClockAuction.sol';\nimport './SiringClockAuction.sol';\n\n\n/// @title Base contract for CryptoKitties. Holds all common structs, events and base variables.\n/// @author Axiom Zen (https://www.axiomzen.co)\n/// @dev See the KittyCore contract documentation to understand how the various contract facets are arranged.\ncontract KittyBase is KittyAccessControl {\n\t/*** EVENTS ***/\n\n\t/// @dev The Birth event is fired whenever a new kitten comes into existence. This obviously\n\t///  includes any time a cat is created through the giveBirth method, but it is also called\n\t///  when a new gen0 cat is created.\n\tevent Birth(address owner, uint256 kittyId, uint256 matronId, uint256 sireId, uint256 genes);\n\n\t/// @dev Transfer event as defined in current draft of ERC721. Emitted every time a kitten\n\t///  ownership is assigned, including births.\n\tevent Transfer(address from, address to, uint256 tokenId);\n\n\t/*** DATA TYPES ***/\n\n\t/// @dev The main Kitty struct. Every cat in CryptoKitties is represented by a copy\n\t///  of this structure, so great care was taken to ensure that it fits neatly into\n\t///  exactly two 256-bit words. Note that the order of the members in this structure\n\t///  is important because of the byte-packing rules used by Ethereum.\n\t///  Ref: http://solidity.readthedocs.io/en/develop/miscellaneous.html\n\tstruct Kitty {\n\t\t// The Kitty's genetic code is packed into these 256-bits, the format is\n\t\t// sooper-sekret! A cat's genes never change.\n\t\tuint256 genes;\n\n\t\t// The timestamp from the block when this cat came into existence.\n\t\tuint64 birthTime;\n\n\t\t// The minimum timestamp after which this cat can engage in breeding\n\t\t// activities again. This same timestamp is used for the pregnancy\n\t\t// timer (for matrons) as well as the siring cooldown.\n\t\tuint64 cooldownEndBlock;\n\n\t\t// The ID of the parents of this kitty, set to 0 for gen0 cats.\n\t\t// Note that using 32-bit unsigned integers limits us to a \"mere\"\n\t\t// 4 billion cats. This number might seem small until you realize\n\t\t// that Ethereum currently has a limit of about 500 million\n\t\t// transactions per year! So, this definitely won't be a problem\n\t\t// for several years (even as Ethereum learns to scale).\n\t\tuint32 matronId;\n\t\tuint32 sireId;\n\n\t\t// Set to the ID of the sire cat for matrons that are pregnant,\n\t\t// zero otherwise. A non-zero value here is how we know a cat\n\t\t// is pregnant. Used to retrieve the genetic material for the new\n\t\t// kitten when the birth transpires.\n\t\tuint32 siringWithId;\n\n\t\t// Set to the index in the cooldown array (see below) that represents\n\t\t// the current cooldown duration for this Kitty. This starts at zero\n\t\t// for gen0 cats, and is initialized to floor(generation/2) for others.\n\t\t// Incremented by one for each successful breeding action, regardless\n\t\t// of whether this cat is acting as matron or sire.\n\t\tuint16 cooldownIndex;\n\n\t\t// The \"generation number\" of this cat. Cats minted by the CK contract\n\t\t// for sale are called \"gen0\" and have a generation number of 0. The\n\t\t// generation number of all other cats is the larger of the two generation\n\t\t// numbers of their parents, plus one.\n\t\t// (i.e. max(matron.generation, sire.generation) + 1)\n\t\tuint16 generation;\n\t}\n\n\t/*** CONSTANTS ***/\n\n\t/// @dev A lookup table indicating the cooldown duration after any successful\n\t///  breeding action, called \"pregnancy time\" for matrons and \"siring cooldown\"\n\t///  for sires. Designed such that the cooldown roughly doubles each time a cat\n\t///  is bred, encouraging owners not to just keep breeding the same cat over\n\t///  and over again. Caps out at one week (a cat can breed an unbounded number\n\t///  of times, and the maximum cooldown is always seven days).\n\tuint32[14] public cooldowns = [\n\t\tuint32(1 minutes),\n\t\tuint32(2 minutes),\n\t\tuint32(5 minutes),\n\t\tuint32(10 minutes),\n\t\tuint32(30 minutes),\n\t\tuint32(1 hours),\n\t\tuint32(2 hours),\n\t\tuint32(4 hours),\n\t\tuint32(8 hours),\n\t\tuint32(16 hours),\n\t\tuint32(1 days),\n\t\tuint32(2 days),\n\t\tuint32(4 days),\n\t\tuint32(7 days)\n\t];\n\n\t// An approximation of currently how many seconds are in between blocks.\n\tuint256 public secondsPerBlock = 15;\n\n\t/*** STORAGE ***/\n\n\t/// @dev An array containing the Kitty struct for all Kitties in existence. The ID\n\t///  of each cat is actually an index into this array. Note that ID 0 is a negacat,\n\t///  the unKitty, the mythical beast that is the parent of all gen0 cats. A bizarre\n\t///  creature that is both matron and sire... to itself! Has an invalid genetic code.\n\t///  In other words, cat ID 0 is invalid... ;-)\n\tKitty[] kitties;\n\n\t/// @dev A mapping from cat IDs to the address that owns them. All cats have\n\t///  some valid owner address, even gen0 cats are created with a non-zero owner.\n\tmapping (uint256 => address) public kittyIndexToOwner;\n\n\t// @dev A mapping from owner address to count of tokens that address owns.\n\t//  Used internally inside balanceOf() to resolve ownership count.\n\tmapping (address => uint256) ownershipTokenCount;\n\n\t/// @dev A mapping from KittyIDs to an address that has been approved to call\n\t///  transferFrom(). Each Kitty can only have one approved address for transfer\n\t///  at any time. A zero value means no approval is outstanding.\n\tmapping (uint256 => address) public kittyIndexToApproved;\n\n\t/// @dev A mapping from KittyIDs to an address that has been approved to use\n\t///  this Kitty for siring via breedWith(). Each Kitty can only have one approved\n\t///  address for siring at any time. A zero value means no approval is outstanding.\n\tmapping (uint256 => address) public sireAllowedToAddress;\n\n\t/// @dev The address of the ClockAuction contract that handles sales of Kitties. This\n\t///  same contract handles both peer-to-peer sales as well as the gen0 sales which are\n\t///  initiated every 15 minutes.\n\tSaleClockAuction public saleAuction;\n\n\t/// @dev The address of a custom ClockAuction subclassed contract that handles siring\n\t///  auctions. Needs to be separate from saleAuction because the actions taken on success\n\t///  after a sales and siring auction are quite different.\n\tSiringClockAuction public siringAuction;\n\n\t/// @dev Assigns ownership of a specific Kitty to an address.\n\tfunction _transfer(address _from, address _to, uint256 _tokenId) internal {\n\t\t// Since the number of kittens is capped to 2^32 we can't overflow this\n\t\townershipTokenCount[_to]++;\n\t\t// transfer ownership\n\t\tkittyIndexToOwner[_tokenId] = _to;\n\t\t// When creating new kittens _from is 0x0, but we can't account that address.\n\t\tif (_from != address(0)) {\n\t\t\townershipTokenCount[_from]--;\n\t\t\t// once the kitten is transferred also clear sire allowances\n\t\t\tdelete sireAllowedToAddress[_tokenId];\n\t\t\t// clear any previously approved ownership exchange\n\t\t\tdelete kittyIndexToApproved[_tokenId];\n\t\t}\n\t\t// Emit the transfer event.\n\t\tTransfer(_from, _to, _tokenId);\n\t}\n\n\t/// @dev An internal method that creates a new kitty and stores it. This\n\t///  method doesn't do any checking and should only be called when the\n\t///  input data is known to be valid. Will generate both a Birth event\n\t///  and a Transfer event.\n\t/// @param _matronId The kitty ID of the matron of this cat (zero for gen0)\n\t/// @param _sireId The kitty ID of the sire of this cat (zero for gen0)\n\t/// @param _generation The generation number of this cat, must be computed by caller.\n\t/// @param _genes The kitty's genetic code.\n\t/// @param _owner The inital owner of this cat, must be non-zero (except for the unKitty, ID 0)\n\tfunction _createKitty(\n\t\tuint256 _matronId,\n\t\tuint256 _sireId,\n\t\tuint256 _generation,\n\t\tuint256 _genes,\n\t\taddress _owner\n\t)\n\tinternal\n\treturns (uint)\n\t{\n\t\t// These requires are not strictly necessary, our calling code should make\n\t\t// sure that these conditions are never broken. However! _createKitty() is already\n\t\t// an expensive call (for storage), and it doesn't hurt to be especially careful\n\t\t// to ensure our data structures are always valid.\n\t\trequire(_matronId == uint256(uint32(_matronId)));\n\t\trequire(_sireId == uint256(uint32(_sireId)));\n\t\trequire(_generation == uint256(uint16(_generation)));\n\n\t\t// New kitty starts with the same cooldown as parent gen/2\n\t\tuint16 cooldownIndex = uint16(_generation / 2);\n\t\tif (cooldownIndex > 13) {\n\t\t\tcooldownIndex = 13;\n\t\t}\n\n\t\tKitty memory _kitty = Kitty({\n\t\t\tgenes: _genes,\n\t\t\tbirthTime: uint64(now),\n\t\t\tcooldownEndBlock: 0,\n\t\t\tmatronId: uint32(_matronId),\n\t\t\tsireId: uint32(_sireId),\n\t\t\tsiringWithId: 0,\n\t\t\tcooldownIndex: cooldownIndex,\n\t\t\tgeneration: uint16(_generation)\n\t\t});\n\t\tuint256 newKittenId = kitties.push(_kitty) - 1;\n\n\t\t// It's probably never going to happen, 4 billion cats is A LOT, but\n\t\t// let's just be 100% sure we never let this happen.\n\t\trequire(newKittenId == uint256(uint32(newKittenId)));\n\n\t\t// emit the birth event\n\t\tBirth(\n\t\t\t_owner,\n\t\t\tnewKittenId,\n\t\t\tuint256(_kitty.matronId),\n\t\t\tuint256(_kitty.sireId),\n\t\t\t_kitty.genes\n\t\t);\n\n\t\t// This will assign ownership, and also emit the Transfer event as\n\t\t// per ERC721 draft\n\t\t_transfer(0, _owner, newKittenId);\n\n\t\treturn newKittenId;\n\t}\n\n\t// Any C-level can fix how many seconds per blocks are currently observed.\n\tfunction setSecondsPerBlock(uint256 secs) external onlyCLevel {\n\t\trequire(secs < cooldowns[0]);\n\t\tsecondsPerBlock = secs;\n\t}\n}\n",
  "sourcePath": "/Users/harrisonbeckerich/proj/vanimals/contracts/KittyBase.sol",
  "compiler": {
    "name": "solc",
    "version": "0.4.24+commit.e67f0147.Emscripten.clang"
  },
  "schemaVersion": "2.0.0",
  "updatedAt": "2018-07-05T21:18:37.491Z"
}