{
  "contractName": "KittyBreeding",
  "abi": [
    {
      "constant": true,
      "inputs": [
        {
          "name": "_interfaceID",
          "type": "bytes4"
        }
      ],
      "name": "supportsInterface",
      "outputs": [
        {
          "name": "",
          "type": "bool"
        }
      ],
      "payable": false,
      "stateMutability": "view",
      "type": "function"
    },
    {
      "constant": true,
      "inputs": [],
      "name": "cfoAddress",
      "outputs": [
        {
          "name": "",
          "type": "address"
        }
      ],
      "payable": false,
      "stateMutability": "view",
      "type": "function"
    },
    {
      "constant": true,
      "inputs": [
        {
          "name": "_tokenId",
          "type": "uint256"
        },
        {
          "name": "_preferredTransport",
          "type": "string"
        }
      ],
      "name": "tokenMetadata",
      "outputs": [
        {
          "name": "infoUrl",
          "type": "string"
        }
      ],
      "payable": false,
      "stateMutability": "view",
      "type": "function"
    },
    {
      "constant": true,
      "inputs": [],
      "name": "name",
      "outputs": [
        {
          "name": "",
          "type": "string"
        }
      ],
      "payable": false,
      "stateMutability": "view",
      "type": "function"
    },
    {
      "constant": false,
      "inputs": [
        {
          "name": "_to",
          "type": "address"
        },
        {
          "name": "_tokenId",
          "type": "uint256"
        }
      ],
      "name": "approve",
      "outputs": [],
      "payable": false,
      "stateMutability": "nonpayable",
      "type": "function"
    },
    {
      "constant": true,
      "inputs": [],
      "name": "ceoAddress",
      "outputs": [
        {
          "name": "",
          "type": "address"
        }
      ],
      "payable": false,
      "stateMutability": "view",
      "type": "function"
    },
    {
      "constant": true,
      "inputs": [],
      "name": "totalSupply",
      "outputs": [
        {
          "name": "",
          "type": "uint256"
        }
      ],
      "payable": false,
      "stateMutability": "view",
      "type": "function"
    },
    {
      "constant": true,
      "inputs": [],
      "name": "pregnantKitties",
      "outputs": [
        {
          "name": "",
          "type": "uint256"
        }
      ],
      "payable": false,
      "stateMutability": "view",
      "type": "function"
    },
    {
      "constant": true,
      "inputs": [],
      "name": "siringAuction",
      "outputs": [
        {
          "name": "",
          "type": "address"
        }
      ],
      "payable": false,
      "stateMutability": "view",
      "type": "function"
    },
    {
      "constant": false,
      "inputs": [
        {
          "name": "_from",
          "type": "address"
        },
        {
          "name": "_to",
          "type": "address"
        },
        {
          "name": "_tokenId",
          "type": "uint256"
        }
      ],
      "name": "transferFrom",
      "outputs": [],
      "payable": false,
      "stateMutability": "nonpayable",
      "type": "function"
    },
    {
      "constant": false,
      "inputs": [
        {
          "name": "_newCEO",
          "type": "address"
        }
      ],
      "name": "setCEO",
      "outputs": [],
      "payable": false,
      "stateMutability": "nonpayable",
      "type": "function"
    },
    {
      "constant": false,
      "inputs": [
        {
          "name": "_newCOO",
          "type": "address"
        }
      ],
      "name": "setCOO",
      "outputs": [],
      "payable": false,
      "stateMutability": "nonpayable",
      "type": "function"
    },
    {
      "constant": false,
      "inputs": [],
      "name": "unpause",
      "outputs": [],
      "payable": false,
      "stateMutability": "nonpayable",
      "type": "function"
    },
    {
      "constant": true,
      "inputs": [
        {
          "name": "",
          "type": "uint256"
        }
      ],
      "name": "sireAllowedToAddress",
      "outputs": [
        {
          "name": "",
          "type": "address"
        }
      ],
      "payable": false,
      "stateMutability": "view",
      "type": "function"
    },
    {
      "constant": true,
      "inputs": [
        {
          "name": "",
          "type": "uint256"
        }
      ],
      "name": "kittyIndexToApproved",
      "outputs": [
        {
          "name": "",
          "type": "address"
        }
      ],
      "payable": false,
      "stateMutability": "view",
      "type": "function"
    },
    {
      "constant": false,
      "inputs": [
        {
          "name": "_newCFO",
          "type": "address"
        }
      ],
      "name": "setCFO",
      "outputs": [],
      "payable": false,
      "stateMutability": "nonpayable",
      "type": "function"
    },
    {
      "constant": false,
      "inputs": [
        {
          "name": "secs",
          "type": "uint256"
        }
      ],
      "name": "setSecondsPerBlock",
      "outputs": [],
      "payable": false,
      "stateMutability": "nonpayable",
      "type": "function"
    },
    {
      "constant": true,
      "inputs": [],
      "name": "paused",
      "outputs": [
        {
          "name": "",
          "type": "bool"
        }
      ],
      "payable": false,
      "stateMutability": "view",
      "type": "function"
    },
    {
      "constant": true,
      "inputs": [
        {
          "name": "_tokenId",
          "type": "uint256"
        }
      ],
      "name": "ownerOf",
      "outputs": [
        {
          "name": "owner",
          "type": "address"
        }
      ],
      "payable": false,
      "stateMutability": "view",
      "type": "function"
    },
    {
      "constant": true,
      "inputs": [
        {
          "name": "_owner",
          "type": "address"
        }
      ],
      "name": "balanceOf",
      "outputs": [
        {
          "name": "count",
          "type": "uint256"
        }
      ],
      "payable": false,
      "stateMutability": "view",
      "type": "function"
    },
    {
      "constant": true,
      "inputs": [],
      "name": "secondsPerBlock",
      "outputs": [
        {
          "name": "",
          "type": "uint256"
        }
      ],
      "payable": false,
      "stateMutability": "view",
      "type": "function"
    },
    {
      "constant": false,
      "inputs": [],
      "name": "pause",
      "outputs": [],
      "payable": false,
      "stateMutability": "nonpayable",
      "type": "function"
    },
    {
      "constant": true,
      "inputs": [
        {
          "name": "_owner",
          "type": "address"
        }
      ],
      "name": "tokensOfOwner",
      "outputs": [
        {
          "name": "ownerTokens",
          "type": "uint256[]"
        }
      ],
      "payable": false,
      "stateMutability": "view",
      "type": "function"
    },
    {
      "constant": true,
      "inputs": [],
      "name": "symbol",
      "outputs": [
        {
          "name": "",
          "type": "string"
        }
      ],
      "payable": false,
      "stateMutability": "view",
      "type": "function"
    },
    {
      "constant": true,
      "inputs": [
        {
          "name": "",
          "type": "uint256"
        }
      ],
      "name": "cooldowns",
      "outputs": [
        {
          "name": "",
          "type": "uint32"
        }
      ],
      "payable": false,
      "stateMutability": "view",
      "type": "function"
    },
    {
      "constant": true,
      "inputs": [
        {
          "name": "",
          "type": "uint256"
        }
      ],
      "name": "kittyIndexToOwner",
      "outputs": [
        {
          "name": "",
          "type": "address"
        }
      ],
      "payable": false,
      "stateMutability": "view",
      "type": "function"
    },
    {
      "constant": false,
      "inputs": [
        {
          "name": "_to",
          "type": "address"
        },
        {
          "name": "_tokenId",
          "type": "uint256"
        }
      ],
      "name": "transfer",
      "outputs": [],
      "payable": false,
      "stateMutability": "nonpayable",
      "type": "function"
    },
    {
      "constant": true,
      "inputs": [],
      "name": "cooAddress",
      "outputs": [
        {
          "name": "",
          "type": "address"
        }
      ],
      "payable": false,
      "stateMutability": "view",
      "type": "function"
    },
    {
      "constant": true,
      "inputs": [],
      "name": "autoBirthFee",
      "outputs": [
        {
          "name": "",
          "type": "uint256"
        }
      ],
      "payable": false,
      "stateMutability": "view",
      "type": "function"
    },
    {
      "constant": true,
      "inputs": [],
      "name": "erc721Metadata",
      "outputs": [
        {
          "name": "",
          "type": "address"
        }
      ],
      "payable": false,
      "stateMutability": "view",
      "type": "function"
    },
    {
      "constant": false,
      "inputs": [
        {
          "name": "_contractAddress",
          "type": "address"
        }
      ],
      "name": "setMetadataAddress",
      "outputs": [],
      "payable": false,
      "stateMutability": "nonpayable",
      "type": "function"
    },
    {
      "constant": true,
      "inputs": [],
      "name": "saleAuction",
      "outputs": [
        {
          "name": "",
          "type": "address"
        }
      ],
      "payable": false,
      "stateMutability": "view",
      "type": "function"
    },
    {
      "constant": true,
      "inputs": [],
      "name": "geneScience",
      "outputs": [
        {
          "name": "",
          "type": "address"
        }
      ],
      "payable": false,
      "stateMutability": "view",
      "type": "function"
    },
    {
      "anonymous": false,
      "inputs": [
        {
          "indexed": false,
          "name": "owner",
          "type": "address"
        },
        {
          "indexed": false,
          "name": "matronId",
          "type": "uint256"
        },
        {
          "indexed": false,
          "name": "sireId",
          "type": "uint256"
        },
        {
          "indexed": false,
          "name": "cooldownEndBlock",
          "type": "uint256"
        }
      ],
      "name": "Pregnant",
      "type": "event"
    },
    {
      "anonymous": false,
      "inputs": [
        {
          "indexed": false,
          "name": "from",
          "type": "address"
        },
        {
          "indexed": false,
          "name": "to",
          "type": "address"
        },
        {
          "indexed": false,
          "name": "tokenId",
          "type": "uint256"
        }
      ],
      "name": "Transfer",
      "type": "event"
    },
    {
      "anonymous": false,
      "inputs": [
        {
          "indexed": false,
          "name": "owner",
          "type": "address"
        },
        {
          "indexed": false,
          "name": "approved",
          "type": "address"
        },
        {
          "indexed": false,
          "name": "tokenId",
          "type": "uint256"
        }
      ],
      "name": "Approval",
      "type": "event"
    },
    {
      "anonymous": false,
      "inputs": [
        {
          "indexed": false,
          "name": "owner",
          "type": "address"
        },
        {
          "indexed": false,
          "name": "kittyId",
          "type": "uint256"
        },
        {
          "indexed": false,
          "name": "matronId",
          "type": "uint256"
        },
        {
          "indexed": false,
          "name": "sireId",
          "type": "uint256"
        },
        {
          "indexed": false,
          "name": "genes",
          "type": "uint256"
        }
      ],
      "name": "Birth",
      "type": "event"
    },
    {
      "anonymous": false,
      "inputs": [
        {
          "indexed": false,
          "name": "newContract",
          "type": "address"
        }
      ],
      "name": "ContractUpgrade",
      "type": "event"
    },
    {
      "constant": false,
      "inputs": [
        {
          "name": "_address",
          "type": "address"
        }
      ],
      "name": "setGeneScienceAddress",
      "outputs": [],
      "payable": false,
      "stateMutability": "nonpayable",
      "type": "function"
    },
    {
      "constant": false,
      "inputs": [
        {
          "name": "_addr",
          "type": "address"
        },
        {
          "name": "_sireId",
          "type": "uint256"
        }
      ],
      "name": "approveSiring",
      "outputs": [],
      "payable": false,
      "stateMutability": "nonpayable",
      "type": "function"
    },
    {
      "constant": false,
      "inputs": [
        {
          "name": "val",
          "type": "uint256"
        }
      ],
      "name": "setAutoBirthFee",
      "outputs": [],
      "payable": false,
      "stateMutability": "nonpayable",
      "type": "function"
    },
    {
      "constant": true,
      "inputs": [
        {
          "name": "_kittyId",
          "type": "uint256"
        }
      ],
      "name": "isReadyToBreed",
      "outputs": [
        {
          "name": "",
          "type": "bool"
        }
      ],
      "payable": false,
      "stateMutability": "view",
      "type": "function"
    },
    {
      "constant": true,
      "inputs": [
        {
          "name": "_kittyId",
          "type": "uint256"
        }
      ],
      "name": "isPregnant",
      "outputs": [
        {
          "name": "",
          "type": "bool"
        }
      ],
      "payable": false,
      "stateMutability": "view",
      "type": "function"
    },
    {
      "constant": true,
      "inputs": [
        {
          "name": "_matronId",
          "type": "uint256"
        },
        {
          "name": "_sireId",
          "type": "uint256"
        }
      ],
      "name": "canBreedWith",
      "outputs": [
        {
          "name": "",
          "type": "bool"
        }
      ],
      "payable": false,
      "stateMutability": "view",
      "type": "function"
    },
    {
      "constant": false,
      "inputs": [
        {
          "name": "_matronId",
          "type": "uint256"
        },
        {
          "name": "_sireId",
          "type": "uint256"
        }
      ],
      "name": "breedWithAuto",
      "outputs": [],
      "payable": true,
      "stateMutability": "payable",
      "type": "function"
    },
    {
      "constant": false,
      "inputs": [
        {
          "name": "_matronId",
          "type": "uint256"
        }
      ],
      "name": "giveBirth",
      "outputs": [
        {
          "name": "",
          "type": "uint256"
        }
      ],
      "payable": false,
      "stateMutability": "nonpayable",
      "type": "function"
    }
  ],
  "bytecode": "0x60806040526000600260146101000a81548160ff0219169083151502179055506101c060405190810160405280603c63ffffffff1663ffffffff168152602001607863ffffffff1663ffffffff16815260200161012c63ffffffff1663ffffffff16815260200161025863ffffffff1663ffffffff16815260200161070863ffffffff1663ffffffff168152602001610e1063ffffffff1663ffffffff168152602001611c2063ffffffff1663ffffffff16815260200161384063ffffffff1663ffffffff16815260200161708063ffffffff1663ffffffff16815260200161e10063ffffffff1663ffffffff1681526020016201518063ffffffff1663ffffffff1681526020016202a30063ffffffff1663ffffffff1681526020016205460063ffffffff1663ffffffff16815260200162093a8063ffffffff1663ffffffff16815250600390600e620001569291906200017b565b50600f60055566071afd498d0000600e553480156200017457600080fd5b506200025b565b82600e600701600890048101928215620002125791602002820160005b83821115620001de57835183826101000a81548163ffffffff021916908363ffffffff160217905550926020019260040160208160030104928301926001030262000198565b8015620002105782816101000a81549063ffffffff0219169055600401602081600301049283019260010302620001de565b505b50905062000221919062000225565b5090565b6200025891905b808211156200025457600081816101000a81549063ffffffff0219169055506001016200022c565b5090565b90565b613b73806200026b6000396000f3006080604052600436106101f9576000357c0100000000000000000000000000000000000000000000000000000000900463ffffffff16806301ffc9a7146101fe5780630519ce79146102625780630560ff44146102b957806306fdde0314610377578063095ea7b3146104075780630a0f81681461045457806318160ddd146104ab578063183a7947146104d65780631940a9361461050157806321717ebf1461054657806323b872dd1461059d57806324e7a38a1461060a57806327d7874c1461064d5780632ba73c15146106905780633f4ba83a146106d357806346116e6f146106ea57806346d22c7014610757578063481af3d3146107a65780634b85fd55146108135780634dfff04f146108405780634e0a33791461088d5780635663896e146108d05780635c975abb146108fd5780636352211e1461092c57806370a08231146109995780637a7d4937146109f05780638456cb5914610a1b5780638462151c14610a3257806388c2a0bf14610aca57806395d89b4114610b0b5780639d6fac6f14610b9b578063a45f4bfc14610be8578063a9059cbb14610c55578063b047fb5014610ca2578063b0c35c0514610cf9578063bc4006f514610d24578063d3e6f49f14610d7b578063e17b25af14610dc0578063e6cbe35114610e03578063f2b47d5214610e5a578063f7d8c88314610eb1575b600080fd5b34801561020a57600080fd5b5061024860048036038101908080357bffffffffffffffffffffffffffffffffffffffffffffffffffffffff19169060200190929190505050610edb565b604051808215151515815260200191505060405180910390f35b34801561026e57600080fd5b506102776111ec565b604051808273ffffffffffffffffffffffffffffffffffffffff1673ffffffffffffffffffffffffffffffffffffffff16815260200191505060405180910390f35b3480156102c557600080fd5b506102fc60048036038101908080359060200190929190803590602001908201803590602001919091929391929390505050611212565b6040518080602001828103825283818151815260200191508051906020019080838360005b8381101561033c578082015181840152602081019050610321565b50505050905090810190601f1680156103695780820380516001836020036101000a031916815260200191505b509250505060405180910390f35b34801561038357600080fd5b5061038c61139b565b6040518080602001828103825283818151815260200191508051906020019080838360005b838110156103cc5780820151818401526020810190506103b1565b50505050905090810190601f1680156103f95780820380516001836020036101000a031916815260200191505b509250505060405180910390f35b34801561041357600080fd5b50610452600480360381019080803573ffffffffffffffffffffffffffffffffffffffff169060200190929190803590602001909291905050506113d4565b005b34801561046057600080fd5b506104696114b2565b604051808273ffffffffffffffffffffffffffffffffffffffff1673ffffffffffffffffffffffffffffffffffffffff16815260200191505060405180910390f35b3480156104b757600080fd5b506104c06114d7565b6040518082815260200191505060405180910390f35b3480156104e257600080fd5b506104eb6114e7565b6040518082815260200191505060405180910390f35b34801561050d57600080fd5b5061052c600480360381019080803590602001909291905050506114ed565b604051808215151515815260200191505060405180910390f35b34801561055257600080fd5b5061055b61153f565b604051808273ffffffffffffffffffffffffffffffffffffffff1673ffffffffffffffffffffffffffffffffffffffff16815260200191505060405180910390f35b3480156105a957600080fd5b50610608600480360381019080803573ffffffffffffffffffffffffffffffffffffffff169060200190929190803573ffffffffffffffffffffffffffffffffffffffff16906020019092919080359060200190929190505050611565565b005b34801561061657600080fd5b5061064b600480360381019080803573ffffffffffffffffffffffffffffffffffffffff169060200190929190505050611632565b005b34801561065957600080fd5b5061068e600480360381019080803573ffffffffffffffffffffffffffffffffffffffff169060200190929190505050611781565b005b34801561069c57600080fd5b506106d1600480360381019080803573ffffffffffffffffffffffffffffffffffffffff16906020019092919050505061185b565b005b3480156106df57600080fd5b506106e8611936565b005b3480156106f657600080fd5b50610715600480360381019080803590602001909291905050506119c9565b604051808273ffffffffffffffffffffffffffffffffffffffff1673ffffffffffffffffffffffffffffffffffffffff16815260200191505060405180910390f35b34801561076357600080fd5b5061078c60048036038101908080359060200190929190803590602001909291905050506119fc565b604051808215151515815260200191505060405180910390f35b3480156107b257600080fd5b506107d160048036038101908080359060200190929190505050611a84565b604051808273ffffffffffffffffffffffffffffffffffffffff1673ffffffffffffffffffffffffffffffffffffffff16815260200191505060405180910390f35b34801561081f57600080fd5b5061083e60048036038101908080359060200190929190505050611ab7565b005b34801561084c57600080fd5b5061088b600480360381019080803573ffffffffffffffffffffffffffffffffffffffff16906020019092919080359060200190929190505050611b1d565b005b34801561089957600080fd5b506108ce600480360381019080803573ffffffffffffffffffffffffffffffffffffffff169060200190929190505050611ba4565b005b3480156108dc57600080fd5b506108fb60048036038101908080359060200190929190505050611c7f565b005b34801561090957600080fd5b50610912611dd3565b604051808215151515815260200191505060405180910390f35b34801561093857600080fd5b5061095760048036038101908080359060200190929190505050611de6565b604051808273ffffffffffffffffffffffffffffffffffffffff1673ffffffffffffffffffffffffffffffffffffffff16815260200191505060405180910390f35b3480156109a557600080fd5b506109da600480360381019080803573ffffffffffffffffffffffffffffffffffffffff169060200190929190505050611e5f565b6040518082815260200191505060405180910390f35b3480156109fc57600080fd5b50610a05611ea8565b6040518082815260200191505060405180910390f35b348015610a2757600080fd5b50610a30611eae565b005b348015610a3e57600080fd5b50610a73600480360381019080803573ffffffffffffffffffffffffffffffffffffffff169060200190929190505050611ff2565b6040518080602001828103825283818151815260200191508051906020019060200280838360005b83811015610ab6578082015181840152602081019050610a9b565b505050509050019250505060405180910390f35b348015610ad657600080fd5b50610af56004803603810190808035906020019092919050505061213f565b6040518082815260200191505060405180910390f35b348015610b1757600080fd5b50610b20612576565b6040518080602001828103825283818151815260200191508051906020019080838360005b83811015610b60578082015181840152602081019050610b45565b50505050905090810190601f168015610b8d5780820380516001836020036101000a031916815260200191505b509250505060405180910390f35b348015610ba757600080fd5b50610bc6600480360381019080803590602001909291905050506125af565b604051808263ffffffff1663ffffffff16815260200191505060405180910390f35b348015610bf457600080fd5b50610c13600480360381019080803590602001909291905050506125de565b604051808273ffffffffffffffffffffffffffffffffffffffff1673ffffffffffffffffffffffffffffffffffffffff16815260200191505060405180910390f35b348015610c6157600080fd5b50610ca0600480360381019080803573ffffffffffffffffffffffffffffffffffffffff16906020019092919080359060200190929190505050612611565b005b348015610cae57600080fd5b50610cb7612782565b604051808273ffffffffffffffffffffffffffffffffffffffff1673ffffffffffffffffffffffffffffffffffffffff16815260200191505060405180910390f35b348015610d0557600080fd5b50610d0e6127a8565b6040518082815260200191505060405180910390f35b348015610d3057600080fd5b50610d396127ae565b604051808273ffffffffffffffffffffffffffffffffffffffff1673ffffffffffffffffffffffffffffffffffffffff16815260200191505060405180910390f35b348015610d8757600080fd5b50610da6600480360381019080803590602001909291905050506127d4565b604051808215151515815260200191505060405180910390f35b348015610dcc57600080fd5b50610e01600480360381019080803573ffffffffffffffffffffffffffffffffffffffff169060200190929190505050612943565b005b348015610e0f57600080fd5b50610e186129e2565b604051808273ffffffffffffffffffffffffffffffffffffffff1673ffffffffffffffffffffffffffffffffffffffff16815260200191505060405180910390f35b348015610e6657600080fd5b50610e6f612a08565b604051808273ffffffffffffffffffffffffffffffffffffffff1673ffffffffffffffffffffffffffffffffffffffff16815260200191505060405180910390f35b610ed96004803603810190808035906020019092919080359060200190929190505050612a2e565b005b600060405180807f737570706f727473496e74657266616365286279746573342900000000000000815250601901905060405180910390207bffffffffffffffffffffffffffffffffffffffffffffffffffffffff1916827bffffffffffffffffffffffffffffffffffffffffffffffffffffffff191614806111e5575060405180807f746f6b656e4d657461646174612875696e743235362c737472696e6729000000815250601d019050604051809103902060405180807f746f6b656e734f664f776e6572286164647265737329000000000000000000008152506016019050604051809103902060405180807f7472616e7366657246726f6d28616464726573732c616464726573732c75696e81526020017f74323536290000000000000000000000000000000000000000000000000000008152506025019050604051809103902060405180807f7472616e7366657228616464726573732c75696e7432353629000000000000008152506019019050604051809103902060405180807f617070726f766528616464726573732c75696e743235362900000000000000008152506018019050604051809103902060405180807f6f776e65724f662875696e7432353629000000000000000000000000000000008152506010019050604051809103902060405180807f62616c616e63654f6628616464726573732900000000000000000000000000008152506012019050604051809103902060405180807f746f74616c537570706c79282900000000000000000000000000000000000000815250600d019050604051809103902060405180807f73796d626f6c28290000000000000000000000000000000000000000000000008152506008019050604051809103902060405180807f6e616d6528290000000000000000000000000000000000000000000000000000815250600601905060405180910390201818181818181818187bffffffffffffffffffffffffffffffffffffffffffffffffffffffff1916827bffffffffffffffffffffffffffffffffffffffffffffffffffffffff1916145b9050919050565b600160009054906101000a900473ffffffffffffffffffffffffffffffffffffffff1681565b606061121c613ab0565b60008073ffffffffffffffffffffffffffffffffffffffff16600d60009054906101000a900473ffffffffffffffffffffffffffffffffffffffff1673ffffffffffffffffffffffffffffffffffffffff161415151561127b57600080fd5b600d60009054906101000a900473ffffffffffffffffffffffffffffffffffffffff1673ffffffffffffffffffffffffffffffffffffffff1663cb4799f28787876040518463ffffffff167c010000000000000000000000000000000000000000000000000000000002815260040180848152602001806020018281038252848482818152602001925080828437820191505094505050505060a060405180830381600087803b15801561132e57600080fd5b505af1158015611342573d6000803e3d6000fd5b505050506040513d601f19601f8201168201806040525060a081101561136757600080fd5b810190809190826080018051906020019092919050505080925081935050506113908282612d6f565b925050509392505050565b6040805190810160405280600d81526020017f43727970746f4b6974746965730000000000000000000000000000000000000081525081565b600260149054906101000a900460ff161515156113f057600080fd5b6113fa3382612dcb565b151561140557600080fd5b61140f8183612e37565b7f8c5be1e5ebec7d5bd14f71427d1e84f3dd0314c0f7b2291e5b200ac8c7c3b925338383604051808473ffffffffffffffffffffffffffffffffffffffff1673ffffffffffffffffffffffffffffffffffffffff1681526020018373ffffffffffffffffffffffffffffffffffffffff1673ffffffffffffffffffffffffffffffffffffffff168152602001828152602001935050505060405180910390a15050565b6000809054906101000a900473ffffffffffffffffffffffffffffffffffffffff1681565b6000600160068054905003905090565b600f5481565b600080821115156114fd57600080fd5b600060068381548110151561150e57fe5b906000526020600020906002020160010160189054906101000a900463ffffffff1663ffffffff1614159050919050565b600c60009054906101000a900473ffffffffffffffffffffffffffffffffffffffff1681565b600260149054906101000a900460ff1615151561158157600080fd5b600073ffffffffffffffffffffffffffffffffffffffff168273ffffffffffffffffffffffffffffffffffffffff16141515156115bd57600080fd5b3073ffffffffffffffffffffffffffffffffffffffff168273ffffffffffffffffffffffffffffffffffffffff16141515156115f857600080fd5b6116023382612e8d565b151561160d57600080fd5b6116178382612dcb565b151561162257600080fd5b61162d838383612ef9565b505050565b60008060009054906101000a900473ffffffffffffffffffffffffffffffffffffffff1673ffffffffffffffffffffffffffffffffffffffff163373ffffffffffffffffffffffffffffffffffffffff1614151561168f57600080fd5b8190508073ffffffffffffffffffffffffffffffffffffffff166354c15b826040518163ffffffff167c0100000000000000000000000000000000000000000000000000000000028152600401602060405180830381600087803b1580156116f657600080fd5b505af115801561170a573d6000803e3d6000fd5b505050506040513d602081101561172057600080fd5b8101908080519060200190929190505050151561173c57600080fd5b80601060006101000a81548173ffffffffffffffffffffffffffffffffffffffff021916908373ffffffffffffffffffffffffffffffffffffffff1602179055505050565b6000809054906101000a900473ffffffffffffffffffffffffffffffffffffffff1673ffffffffffffffffffffffffffffffffffffffff163373ffffffffffffffffffffffffffffffffffffffff161415156117dc57600080fd5b600073ffffffffffffffffffffffffffffffffffffffff168173ffffffffffffffffffffffffffffffffffffffff161415151561181857600080fd5b806000806101000a81548173ffffffffffffffffffffffffffffffffffffffff021916908373ffffffffffffffffffffffffffffffffffffffff16021790555050565b6000809054906101000a900473ffffffffffffffffffffffffffffffffffffffff1673ffffffffffffffffffffffffffffffffffffffff163373ffffffffffffffffffffffffffffffffffffffff161415156118b657600080fd5b600073ffffffffffffffffffffffffffffffffffffffff168173ffffffffffffffffffffffffffffffffffffffff16141515156118f257600080fd5b80600260006101000a81548173ffffffffffffffffffffffffffffffffffffffff021916908373ffffffffffffffffffffffffffffffffffffffff16021790555050565b6000809054906101000a900473ffffffffffffffffffffffffffffffffffffffff1673ffffffffffffffffffffffffffffffffffffffff163373ffffffffffffffffffffffffffffffffffffffff1614151561199157600080fd5b600260149054906101000a900460ff1615156119ac57600080fd5b6000600260146101000a81548160ff021916908315150217905550565b600a6020528060005260406000206000915054906101000a900473ffffffffffffffffffffffffffffffffffffffff1681565b60008060008085111515611a0f57600080fd5b600084111515611a1e57600080fd5b600685815481101515611a2d57fe5b90600052602060002090600202019150600684815481101515611a4c57fe5b90600052602060002090600202019050611a6882868387613131565b8015611a7a5750611a798486613346565b5b9250505092915050565b60096020528060005260406000206000915054906101000a900473ffffffffffffffffffffffffffffffffffffffff1681565b600260009054906101000a900473ffffffffffffffffffffffffffffffffffffffff1673ffffffffffffffffffffffffffffffffffffffff163373ffffffffffffffffffffffffffffffffffffffff16141515611b1357600080fd5b80600e8190555050565b600260149054906101000a900460ff16151515611b3957600080fd5b611b433382612dcb565b1515611b4e57600080fd5b81600a600083815260200190815260200160002060006101000a81548173ffffffffffffffffffffffffffffffffffffffff021916908373ffffffffffffffffffffffffffffffffffffffff1602179055505050565b6000809054906101000a900473ffffffffffffffffffffffffffffffffffffffff1673ffffffffffffffffffffffffffffffffffffffff163373ffffffffffffffffffffffffffffffffffffffff16141515611bff57600080fd5b600073ffffffffffffffffffffffffffffffffffffffff168173ffffffffffffffffffffffffffffffffffffffff1614151515611c3b57600080fd5b80600160006101000a81548173ffffffffffffffffffffffffffffffffffffffff021916908373ffffffffffffffffffffffffffffffffffffffff16021790555050565b600260009054906101000a900473ffffffffffffffffffffffffffffffffffffffff1673ffffffffffffffffffffffffffffffffffffffff163373ffffffffffffffffffffffffffffffffffffffff161480611d2757506000809054906101000a900473ffffffffffffffffffffffffffffffffffffffff1673ffffffffffffffffffffffffffffffffffffffff163373ffffffffffffffffffffffffffffffffffffffff16145b80611d7f5750600160009054906101000a900473ffffffffffffffffffffffffffffffffffffffff1673ffffffffffffffffffffffffffffffffffffffff163373ffffffffffffffffffffffffffffffffffffffff16145b1515611d8a57600080fd5b60036000600e81101515611d9a57fe5b600891828204019190066004029054906101000a900463ffffffff1663ffffffff1681101515611dc957600080fd5b8060058190555050565b600260149054906101000a900460ff1681565b60006007600083815260200190815260200160002060009054906101000a900473ffffffffffffffffffffffffffffffffffffffff169050600073ffffffffffffffffffffffffffffffffffffffff168173ffffffffffffffffffffffffffffffffffffffff1614151515611e5a57600080fd5b919050565b6000600860008373ffffffffffffffffffffffffffffffffffffffff1673ffffffffffffffffffffffffffffffffffffffff168152602001908152602001600020549050919050565b60055481565b600260009054906101000a900473ffffffffffffffffffffffffffffffffffffffff1673ffffffffffffffffffffffffffffffffffffffff163373ffffffffffffffffffffffffffffffffffffffff161480611f5657506000809054906101000a900473ffffffffffffffffffffffffffffffffffffffff1673ffffffffffffffffffffffffffffffffffffffff163373ffffffffffffffffffffffffffffffffffffffff16145b80611fae5750600160009054906101000a900473ffffffffffffffffffffffffffffffffffffffff1673ffffffffffffffffffffffffffffffffffffffff163373ffffffffffffffffffffffffffffffffffffffff16145b1515611fb957600080fd5b600260149054906101000a900460ff16151515611fd557600080fd5b6001600260146101000a81548160ff021916908315150217905550565b606060006060600080600061200687611e5f565b945060008514156120495760006040519080825280602002602001820160405280156120415781602001602082028038833980820191505090505b509550612135565b846040519080825280602002602001820160405280156120785781602001602082028038833980820191505090505b5093506120836114d7565b925060009150600190505b8281111515612131578673ffffffffffffffffffffffffffffffffffffffff166007600083815260200190815260200160002060009054906101000a900473ffffffffffffffffffffffffffffffffffffffff1673ffffffffffffffffffffffffffffffffffffffff1614156121245780848381518110151561210d57fe5b906020019060200201818152505081806001019250505b808060010191505061208e565b8395505b5050505050919050565b600080600080600080600080600260149054906101000a900460ff1615151561216757600080fd5b60068981548110151561217657fe5b9060005260206000209060020201965060008760010160009054906101000a900467ffffffffffffffff1667ffffffffffffffff16141515156121b857600080fd5b6122ee876101006040519081016040529081600082015481526020016001820160009054906101000a900467ffffffffffffffff1667ffffffffffffffff1667ffffffffffffffff1681526020016001820160089054906101000a900467ffffffffffffffff1667ffffffffffffffff1667ffffffffffffffff1681526020016001820160109054906101000a900463ffffffff1663ffffffff1663ffffffff1681526020016001820160149054906101000a900463ffffffff1663ffffffff1663ffffffff1681526020016001820160189054906101000a900463ffffffff1663ffffffff1663ffffffff16815260200160018201601c9054906101000a900461ffff1661ffff1661ffff16815260200160018201601e9054906101000a900461ffff1661ffff1661ffff1681525050613459565b15156122f957600080fd5b8660010160189054906101000a900463ffffffff1663ffffffff16955060068681548110151561232557fe5b9060005260206000209060020201945086600101601e9054906101000a900461ffff16935086600101601e9054906101000a900461ffff1661ffff1685600101601e9054906101000a900461ffff1661ffff1611156123945784600101601e9054906101000a900461ffff1693505b601060009054906101000a900473ffffffffffffffffffffffffffffffffffffffff1673ffffffffffffffffffffffffffffffffffffffff16630d9f5aed8860000154876000015460018b60010160089054906101000a900467ffffffffffffffff16036040518463ffffffff167c0100000000000000000000000000000000000000000000000000000000028152600401808481526020018381526020018267ffffffffffffffff1681526020019350505050602060405180830381600087803b15801561246257600080fd5b505af1158015612476573d6000803e3d6000fd5b505050506040513d602081101561248c57600080fd5b81019080805190602001909291905050509250600760008a815260200190815260200160002060009054906101000a900473ffffffffffffffffffffffffffffffffffffffff169150612503898860010160189054906101000a900463ffffffff1663ffffffff166001870161ffff168686613494565b90508660010160186101000a81549063ffffffff0219169055600f60008154809291906001900391905055503373ffffffffffffffffffffffffffffffffffffffff166108fc600e549081150290604051600060405180830381858888f193505050505080975050505050505050919050565b6040805190810160405280600281526020017f434b00000000000000000000000000000000000000000000000000000000000081525081565b600381600e811015156125be57fe5b60089182820401919006600402915054906101000a900463ffffffff1681565b60076020528060005260406000206000915054906101000a900473ffffffffffffffffffffffffffffffffffffffff1681565b600260149054906101000a900460ff1615151561262d57600080fd5b600073ffffffffffffffffffffffffffffffffffffffff168273ffffffffffffffffffffffffffffffffffffffff161415151561266957600080fd5b3073ffffffffffffffffffffffffffffffffffffffff168273ffffffffffffffffffffffffffffffffffffffff16141515156126a457600080fd5b600b60009054906101000a900473ffffffffffffffffffffffffffffffffffffffff1673ffffffffffffffffffffffffffffffffffffffff168273ffffffffffffffffffffffffffffffffffffffff161415151561270157600080fd5b600c60009054906101000a900473ffffffffffffffffffffffffffffffffffffffff1673ffffffffffffffffffffffffffffffffffffffff168273ffffffffffffffffffffffffffffffffffffffff161415151561275e57600080fd5b6127683382612dcb565b151561277357600080fd5b61277e338383612ef9565b5050565b600260009054906101000a900473ffffffffffffffffffffffffffffffffffffffff1681565b600e5481565b600d60009054906101000a900473ffffffffffffffffffffffffffffffffffffffff1681565b6000806000831115156127e657600080fd5b6006838154811015156127f557fe5b9060005260206000209060020201905061293b816101006040519081016040529081600082015481526020016001820160009054906101000a900467ffffffffffffffff1667ffffffffffffffff1667ffffffffffffffff1681526020016001820160089054906101000a900467ffffffffffffffff1667ffffffffffffffff1667ffffffffffffffff1681526020016001820160109054906101000a900463ffffffff1663ffffffff1663ffffffff1681526020016001820160149054906101000a900463ffffffff1663ffffffff1663ffffffff1681526020016001820160189054906101000a900463ffffffff1663ffffffff1663ffffffff16815260200160018201601c9054906101000a900461ffff1661ffff1661ffff16815260200160018201601e9054906101000a900461ffff1661ffff1661ffff168152505061378b565b915050919050565b6000809054906101000a900473ffffffffffffffffffffffffffffffffffffffff1673ffffffffffffffffffffffffffffffffffffffff163373ffffffffffffffffffffffffffffffffffffffff1614151561299e57600080fd5b80600d60006101000a81548173ffffffffffffffffffffffffffffffffffffffff021916908373ffffffffffffffffffffffffffffffffffffffff16021790555050565b600b60009054906101000a900473ffffffffffffffffffffffffffffffffffffffff1681565b601060009054906101000a900473ffffffffffffffffffffffffffffffffffffffff1681565b600080600260149054906101000a900460ff16151515612a4d57600080fd5b600e543410151515612a5e57600080fd5b612a683385612dcb565b1515612a7357600080fd5b612a7d8385613346565b1515612a8857600080fd5b600684815481101515612a9757fe5b90600052602060002090600202019150612bdd826101006040519081016040529081600082015481526020016001820160009054906101000a900467ffffffffffffffff1667ffffffffffffffff1667ffffffffffffffff1681526020016001820160089054906101000a900467ffffffffffffffff1667ffffffffffffffff1667ffffffffffffffff1681526020016001820160109054906101000a900463ffffffff1663ffffffff1663ffffffff1681526020016001820160149054906101000a900463ffffffff1663ffffffff1663ffffffff1681526020016001820160189054906101000a900463ffffffff1663ffffffff1663ffffffff16815260200160018201601c9054906101000a900461ffff1661ffff1661ffff16815260200160018201601e9054906101000a900461ffff1661ffff1661ffff168152505061378b565b1515612be857600080fd5b600683815481101515612bf757fe5b90600052602060002090600202019050612d3d816101006040519081016040529081600082015481526020016001820160009054906101000a900467ffffffffffffffff1667ffffffffffffffff1667ffffffffffffffff1681526020016001820160089054906101000a900467ffffffffffffffff1667ffffffffffffffff1667ffffffffffffffff1681526020016001820160109054906101000a900463ffffffff1663ffffffff1663ffffffff1681526020016001820160149054906101000a900463ffffffff1663ffffffff1663ffffffff1681526020016001820160189054906101000a900463ffffffff1663ffffffff1663ffffffff16815260200160018201601c9054906101000a900461ffff1661ffff1661ffff16815260200160018201601e9054906101000a900461ffff1661ffff1661ffff168152505061378b565b1515612d4857600080fd5b612d5482858386613131565b1515612d5f57600080fd5b612d6984846137c5565b50505050565b606080600080846040519080825280601f01601f191660200182016040528015612da85781602001602082028038833980820191505090505b509250602083019150859050612dbf82828761398f565b82935050505092915050565b60008273ffffffffffffffffffffffffffffffffffffffff166007600084815260200190815260200160002060009054906101000a900473ffffffffffffffffffffffffffffffffffffffff1673ffffffffffffffffffffffffffffffffffffffff1614905092915050565b806009600084815260200190815260200160002060006101000a81548173ffffffffffffffffffffffffffffffffffffffff021916908373ffffffffffffffffffffffffffffffffffffffff1602179055505050565b60008273ffffffffffffffffffffffffffffffffffffffff166009600084815260200190815260200160002060009054906101000a900473ffffffffffffffffffffffffffffffffffffffff1673ffffffffffffffffffffffffffffffffffffffff1614905092915050565b600860008373ffffffffffffffffffffffffffffffffffffffff1673ffffffffffffffffffffffffffffffffffffffff16815260200190815260200160002060008154809291906001019190505550816007600083815260200190815260200160002060006101000a81548173ffffffffffffffffffffffffffffffffffffffff021916908373ffffffffffffffffffffffffffffffffffffffff160217905550600073ffffffffffffffffffffffffffffffffffffffff168373ffffffffffffffffffffffffffffffffffffffff1614151561308d57600860008473ffffffffffffffffffffffffffffffffffffffff1673ffffffffffffffffffffffffffffffffffffffff1681526020019081526020016000206000815480929190600190039190505550600a600082815260200190815260200160002060006101000a81549073ffffffffffffffffffffffffffffffffffffffff02191690556009600082815260200190815260200160002060006101000a81549073ffffffffffffffffffffffffffffffffffffffff02191690555b7fddf252ad1be2c89b69c2b068fc378daa952ba7f163c4a11628f55a4df523b3ef838383604051808473ffffffffffffffffffffffffffffffffffffffff1673ffffffffffffffffffffffffffffffffffffffff1681526020018373ffffffffffffffffffffffffffffffffffffffff1673ffffffffffffffffffffffffffffffffffffffff168152602001828152602001935050505060405180910390a1505050565b600081841415613144576000905061333e565b818560010160109054906101000a900463ffffffff1663ffffffff1614806131855750818560010160149054906101000a900463ffffffff1663ffffffff16145b15613193576000905061333e565b838360010160109054906101000a900463ffffffff1663ffffffff1614806131d45750838360010160149054906101000a900463ffffffff1663ffffffff16145b156131e2576000905061333e565b60008360010160109054906101000a900463ffffffff1663ffffffff161480613225575060008560010160109054906101000a900463ffffffff1663ffffffff16145b15613233576001905061333e565b8460010160109054906101000a900463ffffffff1663ffffffff168360010160109054906101000a900463ffffffff1663ffffffff1614806132a857508460010160149054906101000a900463ffffffff1663ffffffff168360010160109054906101000a900463ffffffff1663ffffffff16145b156132b6576000905061333e565b8460010160109054906101000a900463ffffffff1663ffffffff168360010160149054906101000a900463ffffffff1663ffffffff16148061332b57508460010160149054906101000a900463ffffffff1663ffffffff168360010160149054906101000a900463ffffffff1663ffffffff16145b15613339576000905061333e565b600190505b949350505050565b60008060006007600085815260200190815260200160002060009054906101000a900473ffffffffffffffffffffffffffffffffffffffff1691506007600086815260200190815260200160002060009054906101000a900473ffffffffffffffffffffffffffffffffffffffff1690508073ffffffffffffffffffffffffffffffffffffffff168273ffffffffffffffffffffffffffffffffffffffff16148061344f57508173ffffffffffffffffffffffffffffffffffffffff16600a600087815260200190815260200160002060009054906101000a900473ffffffffffffffffffffffffffffffffffffffff1673ffffffffffffffffffffffffffffffffffffffff16145b9250505092915050565b6000808260a0015163ffffffff161415801561348d57504367ffffffffffffffff16826040015167ffffffffffffffff1611155b9050919050565b60008061349f613ad3565b60008863ffffffff16891415156134b557600080fd5b8763ffffffff16881415156134c957600080fd5b8661ffff16871415156134db57600080fd5b6002878115156134e757fe5b049250600d8361ffff1611156134fc57600d92505b610100604051908101604052808781526020014267ffffffffffffffff168152602001600067ffffffffffffffff1681526020018a63ffffffff1681526020018963ffffffff168152602001600063ffffffff1681526020018461ffff1681526020018861ffff1681525091506001600683908060018154018082558091505090600182039060005260206000209060020201600090919290919091506000820151816000015560208201518160010160006101000a81548167ffffffffffffffff021916908367ffffffffffffffff16021790555060408201518160010160086101000a81548167ffffffffffffffff021916908367ffffffffffffffff16021790555060608201518160010160106101000a81548163ffffffff021916908363ffffffff16021790555060808201518160010160146101000a81548163ffffffff021916908363ffffffff16021790555060a08201518160010160186101000a81548163ffffffff021916908363ffffffff16021790555060c082015181600101601c6101000a81548161ffff021916908361ffff16021790555060e082015181600101601e6101000a81548161ffff021916908361ffff16021790555050500390508063ffffffff16811415156136d557600080fd5b7f0a5311bd2a6608f08a180df2ee7c5946819a649b204b554bb8e39825b2c50ad58582846060015163ffffffff16856080015163ffffffff168660000151604051808673ffffffffffffffffffffffffffffffffffffffff1673ffffffffffffffffffffffffffffffffffffffff1681526020018581526020018481526020018381526020018281526020019550505050505060405180910390a161377c60008683612ef9565b80935050505095945050505050565b6000808260a0015163ffffffff161480156137be57504367ffffffffffffffff16826040015167ffffffffffffffff1611155b9050919050565b6000806006838154811015156137d757fe5b906000526020600020906002020191506006848154811015156137f657fe5b90600052602060002090600202019050828160010160186101000a81548163ffffffff021916908363ffffffff160217905550613832826139da565b61383b816139da565b600a600085815260200190815260200160002060006101000a81549073ffffffffffffffffffffffffffffffffffffffff0219169055600a600084815260200190815260200160002060006101000a81549073ffffffffffffffffffffffffffffffffffffffff0219169055600f600081548092919060010191905055507f241ea03ca20251805084d27d4440371c34a0b85ff108f6bb5611248f73818b806007600086815260200190815260200160002060009054906101000a900473ffffffffffffffffffffffffffffffffffffffff1685858460010160089054906101000a900467ffffffffffffffff16604051808573ffffffffffffffffffffffffffffffffffffffff1673ffffffffffffffffffffffffffffffffffffffff1681526020018481526020018381526020018267ffffffffffffffff16815260200194505050505060405180910390a150505050565b60005b6020821015156139b75782518452602084019350602083019250602082039150613992565b6001826020036101000a0390508019835116818551168181178652505050505050565b43600554600383600101601c9054906101000a900461ffff1661ffff16600e81101515613a0357fe5b600891828204019190066004029054906101000a900463ffffffff1663ffffffff16811515613a2e57fe5b04018160010160086101000a81548167ffffffffffffffff021916908367ffffffffffffffff160217905550600d81600101601c9054906101000a900461ffff1661ffff161015613aad57600181600101601c8282829054906101000a900461ffff160192506101000a81548161ffff021916908361ffff1602179055505b50565b608060405190810160405280600490602082028038833980820191505090505090565b6101006040519081016040528060008152602001600067ffffffffffffffff168152602001600067ffffffffffffffff168152602001600063ffffffff168152602001600063ffffffff168152602001600063ffffffff168152602001600061ffff168152602001600061ffff16815250905600a165627a7a72305820b5d94a17c6301d088dbfdac72aa632e7b1ba2402ef90eeb160c8d5f1c07e24cd0029",
  "source": "pragma solidity ^0.4.11;\n\nimport './KittyOwnership.sol';\nimport './GeneScienceInterface.sol';\n\n/// @title A facet of KittyCore that manages Kitty siring, gestation, and birth.\n/// @author Axiom Zen (https://www.axiomzen.co)\n/// @dev See the KittyCore contract documentation to understand how the various contract facets are arranged.\ncontract KittyBreeding is KittyOwnership {\n\n\t/// @dev The Pregnant event is fired when two cats successfully breed and the pregnancy\n\t///  timer begins for the matron.\n\tevent Pregnant(address owner, uint256 matronId, uint256 sireId, uint256 cooldownEndBlock);\n\n\t/// @notice The minimum payment required to use breedWithAuto(). This fee goes towards\n\t///  the gas cost paid by whatever calls giveBirth(), and can be dynamically updated by\n\t///  the COO role as the gas price changes.\n\tuint256 public autoBirthFee = 2 finney;\n\n\t// Keeps track of number of pregnant kitties.\n\tuint256 public pregnantKitties;\n\n\t/// @dev The address of the sibling contract that is used to implement the sooper-sekret\n\t///  genetic combination algorithm.\n\tGeneScienceInterface public geneScience;\n\n\t/// @dev Update the address of the genetic contract, can only be called by the CEO.\n\t/// @param _address An address of a GeneScience contract instance to be used from this point forward.\n\tfunction setGeneScienceAddress(address _address) external onlyCEO {\n\t\tGeneScienceInterface candidateContract = GeneScienceInterface(_address);\n\n\t\t// NOTE: verify that a contract is what we expect - https://github.com/Lunyr/crowdsale-contracts/blob/cfadd15986c30521d8ba7d5b6f57b4fefcc7ac38/contracts/LunyrToken.sol#L117\n\t\trequire(candidateContract.isGeneScience());\n\n\t\t// Set the new contract address\n\t\tgeneScience = candidateContract;\n\t}\n\n\t/// @dev Checks that a given kitten is able to breed. Requires that the\n\t///  current cooldown is finished (for sires) and also checks that there is\n\t///  no pending pregnancy.\n\tfunction _isReadyToBreed(Kitty _kit) internal view returns (bool) {\n\t\t// In addition to checking the cooldownEndBlock, we also need to check to see if\n\t\t// the cat has a pending birth; there can be some period of time between the end\n\t\t// of the pregnacy timer and the birth event.\n\t\treturn (_kit.siringWithId == 0) && (_kit.cooldownEndBlock <= uint64(block.number));\n\t}\n\n\t/// @dev Check if a sire has authorized breeding with this matron. True if both sire\n\t///  and matron have the same owner, or if the sire has given siring permission to\n\t///  the matron's owner (via approveSiring()).\n\tfunction _isSiringPermitted(uint256 _sireId, uint256 _matronId) internal view returns (bool) {\n\t\taddress matronOwner = kittyIndexToOwner[_matronId];\n\t\taddress sireOwner = kittyIndexToOwner[_sireId];\n\n\t\t// Siring is okay if they have same owner, or if the matron's owner was given\n\t\t// permission to breed with this sire.\n\t\treturn (matronOwner == sireOwner || sireAllowedToAddress[_sireId] == matronOwner);\n\t}\n\n\t/// @dev Set the cooldownEndTime for the given Kitty, based on its current cooldownIndex.\n\t///  Also increments the cooldownIndex (unless it has hit the cap).\n\t/// @param _kitten A reference to the Kitty in storage which needs its timer started.\n\tfunction _triggerCooldown(Kitty storage _kitten) internal {\n\t\t// Compute an estimation of the cooldown time in blocks (based on current cooldownIndex).\n\t\t_kitten.cooldownEndBlock = uint64((cooldowns[_kitten.cooldownIndex]/secondsPerBlock) + block.number);\n\n\t\t// Increment the breeding count, clamping it at 13, which is the length of the\n\t\t// cooldowns array. We could check the array size dynamically, but hard-coding\n\t\t// this as a constant saves gas. Yay, Solidity!\n\t\tif (_kitten.cooldownIndex < 13) {\n\t\t\t_kitten.cooldownIndex += 1;\n\t\t}\n\t}\n\n\t/// @notice Grants approval to another user to sire with one of your Kitties.\n\t/// @param _addr The address that will be able to sire with your Kitty. Set to\n\t///  address(0) to clear all siring approvals for this Kitty.\n\t/// @param _sireId A Kitty that you own that _addr will now be able to sire with.\n\tfunction approveSiring(address _addr, uint256 _sireId)\n\texternal\n\twhenNotPaused\n\t{\n\t\trequire(_owns(msg.sender, _sireId));\n\t\tsireAllowedToAddress[_sireId] = _addr;\n\t}\n\n\t/// @dev Updates the minimum payment required for calling giveBirthAuto(). Can only\n\t///  be called by the COO address. (This fee is used to offset the gas cost incurred\n\t///  by the autobirth daemon).\n\tfunction setAutoBirthFee(uint256 val) external onlyCOO {\n\t\tautoBirthFee = val;\n\t}\n\n\t/// @dev Checks to see if a given Kitty is pregnant and (if so) if the gestation\n\t///  period has passed.\n\tfunction _isReadyToGiveBirth(Kitty _matron) private view returns (bool) {\n\t\treturn (_matron.siringWithId != 0) && (_matron.cooldownEndBlock <= uint64(block.number));\n\t}\n\n\t/// @notice Checks that a given kitten is able to breed (i.e. it is not pregnant or\n\t///  in the middle of a siring cooldown).\n\t/// @param _kittyId reference the id of the kitten, any user can inquire about it\n\tfunction isReadyToBreed(uint256 _kittyId)\n\tpublic\n\tview\n\treturns (bool)\n\t{\n\t\trequire(_kittyId > 0);\n\t\tKitty storage kit = kitties[_kittyId];\n\t\treturn _isReadyToBreed(kit);\n\t}\n\n\t/// @dev Checks whether a kitty is currently pregnant.\n\t/// @param _kittyId reference the id of the kitten, any user can inquire about it\n\tfunction isPregnant(uint256 _kittyId)\n\tpublic\n\tview\n\treturns (bool)\n\t{\n\t\trequire(_kittyId > 0);\n\t\t// A kitty is pregnant if and only if this field is set\n\t\treturn kitties[_kittyId].siringWithId != 0;\n\t}\n\n\t/// @dev Internal check to see if a given sire and matron are a valid mating pair. DOES NOT\n\t///  check ownership permissions (that is up to the caller).\n\t/// @param _matron A reference to the Kitty struct of the potential matron.\n\t/// @param _matronId The matron's ID.\n\t/// @param _sire A reference to the Kitty struct of the potential sire.\n\t/// @param _sireId The sire's ID\n\tfunction _isValidMatingPair(\n\t\tKitty storage _matron,\n\t\tuint256 _matronId,\n\t\tKitty storage _sire,\n\t\tuint256 _sireId\n\t)\n\tprivate\n\tview\n\treturns(bool)\n\t{\n\t\t// A Kitty can't breed with itself!\n\t\tif (_matronId == _sireId) {\n\t\t\treturn false;\n\t\t}\n\n\t\t// Kitties can't breed with their parents.\n\t\tif (_matron.matronId == _sireId || _matron.sireId == _sireId) {\n\t\t\treturn false;\n\t\t}\n\t\tif (_sire.matronId == _matronId || _sire.sireId == _matronId) {\n\t\t\treturn false;\n\t\t}\n\n\t\t// We can short circuit the sibling check (below) if either cat is\n\t\t// gen zero (has a matron ID of zero).\n\t\tif (_sire.matronId == 0 || _matron.matronId == 0) {\n\t\t\treturn true;\n\t\t}\n\n\t\t// Kitties can't breed with full or half siblings.\n\t\tif (_sire.matronId == _matron.matronId || _sire.matronId == _matron.sireId) {\n\t\t\treturn false;\n\t\t}\n\t\tif (_sire.sireId == _matron.matronId || _sire.sireId == _matron.sireId) {\n\t\t\treturn false;\n\t\t}\n\n\t\t// Everything seems cool! Let's get DTF.\n\t\treturn true;\n\t}\n\n\t/// @dev Internal check to see if a given sire and matron are a valid mating pair for\n\t///  breeding via auction (i.e. skips ownership and siring approval checks).\n\tfunction _canBreedWithViaAuction(uint256 _matronId, uint256 _sireId)\n\tinternal\n\tview\n\treturns (bool)\n\t{\n\t\tKitty storage matron = kitties[_matronId];\n\t\tKitty storage sire = kitties[_sireId];\n\t\treturn _isValidMatingPair(matron, _matronId, sire, _sireId);\n\t}\n\n\t/// @notice Checks to see if two cats can breed together, including checks for\n\t///  ownership and siring approvals. Does NOT check that both cats are ready for\n\t///  breeding (i.e. breedWith could still fail until the cooldowns are finished).\n\t///  TODO: Shouldn't this check pregnancy and cooldowns?!?\n\t/// @param _matronId The ID of the proposed matron.\n\t/// @param _sireId The ID of the proposed sire.\n\tfunction canBreedWith(uint256 _matronId, uint256 _sireId)\n\texternal\n\tview\n\treturns(bool)\n\t{\n\t\trequire(_matronId > 0);\n\t\trequire(_sireId > 0);\n\t\tKitty storage matron = kitties[_matronId];\n\t\tKitty storage sire = kitties[_sireId];\n\t\treturn _isValidMatingPair(matron, _matronId, sire, _sireId) &&\n\t\t\t_isSiringPermitted(_sireId, _matronId);\n\t}\n\n\t/// @dev Internal utility function to initiate breeding, assumes that all breeding\n\t///  requirements have been checked.\n\tfunction _breedWith(uint256 _matronId, uint256 _sireId) internal {\n\t\t// Grab a reference to the Kitties from storage.\n\t\tKitty storage sire = kitties[_sireId];\n\t\tKitty storage matron = kitties[_matronId];\n\n\t\t// Mark the matron as pregnant, keeping track of who the sire is.\n\t\tmatron.siringWithId = uint32(_sireId);\n\n\t\t// Trigger the cooldown for both parents.\n\t\t_triggerCooldown(sire);\n\t\t_triggerCooldown(matron);\n\n\t\t// Clear siring permission for both parents. This may not be strictly necessary\n\t\t// but it's likely to avoid confusion!\n\t\tdelete sireAllowedToAddress[_matronId];\n\t\tdelete sireAllowedToAddress[_sireId];\n\n\t\t// Every time a kitty gets pregnant, counter is incremented.\n\t\tpregnantKitties++;\n\n\t\t// Emit the pregnancy event.\n\t\tPregnant(kittyIndexToOwner[_matronId], _matronId, _sireId, matron.cooldownEndBlock);\n\t}\n\n\t/// @notice Breed a Kitty you own (as matron) with a sire that you own, or for which you\n\t///  have previously been given Siring approval. Will either make your cat pregnant, or will\n\t///  fail entirely. Requires a pre-payment of the fee given out to the first caller of giveBirth()\n\t/// @param _matronId The ID of the Kitty acting as matron (will end up pregnant if successful)\n\t/// @param _sireId The ID of the Kitty acting as sire (will begin its siring cooldown if successful)\n\tfunction breedWithAuto(uint256 _matronId, uint256 _sireId)\n\texternal\n\tpayable\n\twhenNotPaused\n\t{\n\t\t// Checks for payment.\n\t\trequire(msg.value >= autoBirthFee);\n\n\t\t// Caller must own the matron.\n\t\trequire(_owns(msg.sender, _matronId));\n\n\t\t// Neither sire nor matron are allowed to be on auction during a normal\n\t\t// breeding operation, but we don't need to check that explicitly.\n\t\t// For matron: The caller of this function can't be the owner of the matron\n\t\t//   because the owner of a Kitty on auction is the auction house, and the\n\t\t//   auction house will never call breedWith().\n\t\t// For sire: Similarly, a sire on auction will be owned by the auction house\n\t\t//   and the act of transferring ownership will have cleared any oustanding\n\t\t//   siring approval.\n\t\t// Thus we don't need to spend gas explicitly checking to see if either cat\n\t\t// is on auction.\n\n\t\t// Check that matron and sire are both owned by caller, or that the sire\n\t\t// has given siring permission to caller (i.e. matron's owner).\n\t\t// Will fail for _sireId = 0\n\t\trequire(_isSiringPermitted(_sireId, _matronId));\n\n\t\t// Grab a reference to the potential matron\n\t\tKitty storage matron = kitties[_matronId];\n\n\t\t// Make sure matron isn't pregnant, or in the middle of a siring cooldown\n\t\trequire(_isReadyToBreed(matron));\n\n\t\t// Grab a reference to the potential sire\n\t\tKitty storage sire = kitties[_sireId];\n\n\t\t// Make sure sire isn't pregnant, or in the middle of a siring cooldown\n\t\trequire(_isReadyToBreed(sire));\n\n\t\t// Test that these cats are a valid mating pair.\n\t\trequire(_isValidMatingPair(\n\t\t\tmatron,\n\t\t\t_matronId,\n\t\t\tsire,\n\t\t\t_sireId\n\t\t));\n\n\t\t// All checks passed, kitty gets pregnant!\n\t\t_breedWith(_matronId, _sireId);\n\t}\n\n\t/// @notice Have a pregnant Kitty give birth!\n\t/// @param _matronId A Kitty ready to give birth.\n\t/// @return The Kitty ID of the new kitten.\n\t/// @dev Looks at a given Kitty and, if pregnant and if the gestation period has passed,\n\t///  combines the genes of the two parents to create a new kitten. The new Kitty is assigned\n\t///  to the current owner of the matron. Upon successful completion, both the matron and the\n\t///  new kitten will be ready to breed again. Note that anyone can call this function (if they\n\t///  are willing to pay the gas!), but the new kitten always goes to the mother's owner.\n\tfunction giveBirth(uint256 _matronId)\n\texternal\n\twhenNotPaused\n\treturns(uint256)\n\t{\n\t\t// Grab a reference to the matron in storage.\n\t\tKitty storage matron = kitties[_matronId];\n\n\t\t// Check that the matron is a valid cat.\n\t\trequire(matron.birthTime != 0);\n\n\t\t// Check that the matron is pregnant, and that its time has come!\n\t\trequire(_isReadyToGiveBirth(matron));\n\n\t\t// Grab a reference to the sire in storage.\n\t\tuint256 sireId = matron.siringWithId;\n\t\tKitty storage sire = kitties[sireId];\n\n\t\t// Determine the higher generation number of the two parents\n\t\tuint16 parentGen = matron.generation;\n\t\tif (sire.generation > matron.generation) {\n\t\t\tparentGen = sire.generation;\n\t\t}\n\n\t\t// Call the sooper-sekret gene mixing operation.\n\t\tuint256 childGenes = geneScience.mixGenes(matron.genes, sire.genes, matron.cooldownEndBlock - 1);\n\n\t\t// Make the new kitten!\n\t\taddress owner = kittyIndexToOwner[_matronId];\n\t\tuint256 kittenId = _createKitty(_matronId, matron.siringWithId, parentGen + 1, childGenes, owner);\n\n\t\t// Clear the reference to sire from the matron (REQUIRED! Having siringWithId\n\t\t// set is what marks a matron as being pregnant.)\n\t\tdelete matron.siringWithId;\n\n\t\t// Every time a kitty gives birth counter is decremented.\n\t\tpregnantKitties--;\n\n\t\t// Send the balance fee to the person who made birth happen.\n\t\tmsg.sender.send(autoBirthFee);\n\n\t\t// return the new kitten's ID\n\t\treturn kittenId;\n\t}\n}\n",
  "sourcePath": "/Users/harrisonbeckerich/proj/vanimals/contracts/KittyBreeding.sol",
  "compiler": {
    "name": "solc",
    "version": "0.4.24+commit.e67f0147.Emscripten.clang"
  },
  "schemaVersion": "2.0.0",
  "updatedAt": "2018-07-05T21:18:37.497Z"
}